:020000040000FA
:0400000035EF00F0E8
:060008006F8286ED08F096
:100018006F80D8CF07F0E8CF08F0E0CF09F0D9CF4C
:100028000AF0DACF0BF09EAA07D0ABA203D0AB98A8
:1000380000F0AB88B2EC07F09EA007D06B4A6C2AA0
:10004800F30ECF6ECA0ECE6E9E900BC0DAFF0AC0BA
:10005800D9FF09C0E0FF08C0E8FF07C0D8FF6F90CC
:06006800100040EF08F05B
:100600000067256400742564000029C041F02AC0F9
:1006100042F02BC043F02CC044F02DC045F02EC05A
:1006200046F02FC047F030C048F048AE02D0010E6F
:1006300001D0000E3F6E406A3F504010D8B410D039
:10064000481E471E461E451E441E431E421E416C48
:10065000000E4222432244224522462247224822BB
:1006600068AE699268BE05D0685008E16704D8B0EA
:1006700005D0000E3C6E010E3B6E04D067C03BF00F
:1006800068C03CF065C03DF066C03EF03F50401091
:10069000D8A402D069A403D03D06D8A03E06000E1F
:1006A0004A6E1F0E496E000E00019F6F7CD04906F6
:1006B000D8A04A06800E4924D96E000E4A20DA6E70
:1006C00041C00CF042C00DF043C00EF044C00FF02A
:1006D00045C010F046C011F047C012F048C013F0FA
:1006E0000A0E146E000E156E000E166E000E176EBA
:1006F000000E186E000E196E000E1A6E000E1B6EA4
:100700008AEC05F00CC031F00DC032F00EC033F0B1
:100710000FC034F010C035F011C036F012C037F001
:1007200013C038F031C01EF033C01FF027EC08F0C2
:100730001E50300FDF6E3B06D8A03C063D06D8A009
:100740003E0641C00CF042C00DF043C00EF044C064
:100750000FF045C010F046C011F047C012F048C07D
:1007600013F00A0E146E000E156E000E166E000EBB
:10077000176E000E186E000E196E000E1A6E000E27
:100780001B6EE6EC04F00CC041F00DC042F00EC050
:1007900043F00FC044F010C045F011C046F012C045
:1007A00047F013C048F04ABE1FD04A5003E1490445
:1007B000D8A01AD0415042104310441045104610A2
:1007C00047104810D8A473D73CBE05D03C5002E176
:1007D0003B04D8B06CD73EBE07D03E5003E13D0489
:1007E000D8A002D069B263D73F504010D8A402D03D
:1007F00069A417D04906D8A04A063F504010D8A493
:1008000004D0000E3A6E2B0E03D0000E3A6E2D0E61
:10081000396E800E4924D96E000E4A20DA6E39C036
:10082000DFFF27C01CF028C01DF0800E49241E6E7B
:10083000000E4A201F6E3DC020F03EC021F0DDECCE
:1008400006F01CC027F01DC028F012004DC0D9FFD3
:100850004EC0DAFFDECFF6FFDDCFF7FF0800F55020
:10086000250AD8A499D04DC0D9FF4EC0DAFFDE2AA0
:10087000000EDD22000E666E000E656E65C069F02A
:1008800066C06AF0676868684DC0D9FF4EC0DAFF7D
:10089000DECFF6FFDDCFF7FF0800F550640AD8B4CD
:1008A0000DD04DC0D9FF4EC0DAFFDECFF6FFDDCF51
:1008B000F7FF0800F550690AD8A43FD04DC0D9FF12
:1008C0004EC0DAFFDE2A000EDD224FC0D9FF50C035
:1008D000DAFFDFCF51F0020EDE26DFCF52F0000E3E
:1008E000DD2251C0D9FF52C0DAFFDECF53F0DDCF99
:1008F00054F0000E54BEFF0E556E566E576E586E75
:10090000596E5A6E4BC027F04CC028F053C029F0E6
:1009100054C02AF055C02BF056C02CF057C02DF013
:1009200058C02EF059C02FF05AC030F005EC03F03B
:1009300027C04BF028C04CF012004DC0D9FF4EC06C
:10094000DAFFDECFF6FFDDCFF7FF0800F550250A0E
:10095000D8A416D04DC0D9FF4EC0DAFFDE2A000E53
:10096000DD22000E0D6E250E0C6E4BC00EF04CC03D
:100970000FF08DEC06F0000E4C6E010E4B6E120067
:100980004DC0D9FF4EC0DAFFDE2A000EDD22000E78
:100990004C6E000E4B6E12004DC0D9FF4EC0DAFFF8
:1009A000DECFF6FFDDCFF7FF0800F5500C6E0D6AC5
:1009B0004BC00EF04CC00FF08DEC06F04DC0D9FFCF
:1009C0004EC0DAFFDE2A000EDD22D5D7000E1D6EE6
:1009D0001BAE12D01B1E1A1E191E181E171E161E25
:1009E000151E146C000E1522162217221822192229
:1009F0001A221B22010E1D6E13AE12D0131E121EE0
:100A0000111E101E0F1E0E1E0D1E0C6C000E0D2250
:100A10000E220F221022112212221322010E1D1A61
:100A200020EE1EF0070EDE6AE806FDE214501510F7
:100A300016101710181019101A101B10D8B446D021
:100A4000010E1C6E0AD0D89014361536163617369D
:100A5000183619361A361B361C2A1BAEF4D7D89016
:100A60001E361F36203621362236233624362536CA
:100A700014500C5C15500D5816500E5817500F5846
:100A800018501058195011581A5012581B5013581A
:100A9000D8A011D014500C5E15500D5A16500E5A95
:100AA00017500F5A1850105A1950115A1A50125AFA
:100AB0001B50135A1E80D8901B321A32193218322A
:100AC00017321632153214321C2EC9D71D50D8B425
:100AD00010D0251E241E231E221E211E201E1F1E76
:100AE0001E6C000E1F2220222122222223222422D9
:100AF00025221EC00CF01FC00DF020C00EF021C03A
:100B00000FF022C010F023C011F024C012F025C055
:100B100013F01200000E1D6E13AE12D0131E121E23
:100B2000111E101E0F1E0E1E0D1E0C6C000E0D222F
:100B30000E220F221022112212221322010E1D6EEC
:100B40001BAE10D01B1E1A1E191E181E171E161EB5
:100B5000151E146C000E15221622172218221922B7
:100B60001A221B22145015101610171018101910E5
:100B70001A101B10D8B43CD0010E1C6E0AD0D890AD
:100B80001436153616361736183619361A361B36F9
:100B90001C2A1BAEF4D714500C5C15500D5816507F
:100BA0000E5817500F5818501058195011581A5005
:100BB00012581B501358D8A010D014500C5E15506A
:100BC0000D5A16500E5A17500F5A1850105A1950E5
:100BD000115A1A50125A1B50135AD8901B321A32FB
:100BE0001932183217321632153214321C2ED3D75E
:100BF0001D50D8B410D0131E121E111E101E0F1E31
:100C00000E1E0D1E0C6C000E0D220E220F22102245
:100C10001122122213220CC00CF00DC00DF00EC0D8
:100C20000EF00FC00FF010C010F011C011F012C084
:100C300012F013C013F0120091EC08F0000E000146
:100C4000C56F000EC46F000EC76F000EC66FC64B97
:100C5000C72BC7BFFCD7A80EC65D610EC759D8A069
:100C6000F6D7C44BC52BC5BFEED7C55104E1060E60
:100C7000C45DD8A0E8D7BA0EAA6F000EAB6F050E00
:100C8000AC6F060EAD6F000E0D6E000E0C6ED4EC48
:100C900007F00CC0AEF00DC0AFF060EC07F0BA0E7C
:100CA0000D6E000E0E6E0DEC08F0000E0001C96F07
:100CB000000EC86F000ECB6F000ECA6FCA4BCB2B55
:100CC000CBBFFCD7A80ECA5D610ECB59D8A0F6D712
:100CD000C84BC92BC9BFEED7C95104E1060EC85D88
:100CE000D8A0E8D7BA0EAA6F000EAB6F010EAC6F9A
:100CF000060EAD6F000E0D6E010E0C6ED4EC07F0FB
:100D00000CC0AEF00DC0AFF060EC07F0BA0E0D6E87
:100D1000000E0E6E0DEC08F091D70E500F10D8B4E7
:100D200004D00E500F10D8A404D00C50A8EC08F03A
:100D3000120020EE04F00E50D9260F50DA22DE50B9
:100D4000DE10D8B416D020EE04F00E50D9260F5085
:100D5000DA2210EE02F00E50E1260F50E222DE50B1
:100D6000E65CE650800A146EDE50800A1458D8B053
:100D7000120020EE02F00E50D9260F50DA22DECFFC
:100D800010F0DDCF11F00EC0D9FF0FC0DAFFDECFBB
:100D900012F0DDCF13F010501224D96E1150132031
:100DA000DA6E0CC0DFFF20EE02F00E50D9260F5095
:100DB000DA22DE2A000EDD22120069A00AD01EC04F
:100DC00015F01FC016F01CC017F01DC018F0F1EC94
:100DD00007F021BE05D020C025F021C026F004D0A8
:100DE000000E266E000E256E000E246E000E236E81
:100DF0000CD0000E0D6E200E0C6E1CC00EF01DC02F
:100E00000FF08DEC06F0234A242A2550235C245051
:100E1000800A226E2650800A2258D8A0EAD769B0EC
:100E20000AD01EC015F01FC016F01CC017F01DC060
:100E300018F0F1EC07F01EC00CF01FC00DF055ECDF
:100E400008F025500C241C6E26500D201D6E12003B
:100E5000000E066E02AE06D0016C021ED8B0022A49
:100E6000010E066E04AE04D0036C041ED8B0042A32
:100E700003500410D8B418D0010E056E04D0D890D9
:100E800003360436052A04AEFAD70350015C045039
:100E90000258D8A004D00350015E0450025AD890E2
:100EA00004320332052EF1D70650D8B404D0016CB9
:100EB000021ED8B0022A01C001F002C002F01200E6
:100EC000AE0E0001B26F000EB36FAAC0B4F0ABC09B
:100ED000B5F0000EB76F000EB66F000EB96F000EC2
:100EE000B86FB40E5B6E000E5C6EACC05DF0ADC052
:100EF0005EF0B20E5F6E000E606E89EC07F00001CE
:100F0000B651AA25D96EB751AB21DA6E000EDF6E4D
:100F100012005DC061F05EC062F0000E646E000EF3
:100F2000636E12D05BC04BF05CC04CF0610E4D6E36
:100F3000000E4E6E5FC04FF060C050F026EC04F023
:100F40004B5063264C50642261C0F6FF62C0F7FF2D
:100F50000800F5500009D8A4E5D763C05BF064C071
:100F60005CF01200A00E6D24D96E000E6E20DA6EB9
:100F7000AECFDFFFA00E6D24D96E000E6E20DA6EAC
:100F8000DF509EEC08F06D4A6E2A6DC001F06EC015
:100F900002F0000E046E0A0E036E28EC07F001C08A
:100FA0006DF002C06EF012000CC00EF00E460E4640
:100FB000C2500E18C30B0E18C26EC282C280C2B2DB
:100FC000FED7C350C4CF0EF00F6A0EC00FF00E6AEA
:100FD0000E10106E0F50116E10C00CF011C00DF0FD
:100FE0001200000E1B6E000E1A6E0BD019C00CF012
:100FF0000D6A17C00EF018C00FF08DEC06F01A4AFB
:101000001B2A1A501524D96E1B501620DA6EDF5099
:10101000196E1950D8B41200E9D7000E106E000EE8
:101020000F6E0BD00F500D24D96E10500E20DA6EBB
:10103000DF5098EC08F00F4A102A0F500D24D96E9B
:1010400010500E20DA6EDF50D8B41200EBD71FBE5E
:1010500005D01F5010E11E04D8B00DD01EC020F0E6
:101060001FC021F0201E211E204A212A20C01EF070
:1010700021C01FF012001EC01EF01FC01FF0120082
:1010800000EE80F02A0EEE6AE806FDE100EE63F065
:101090000C0EEE6AE806FDE16F906F92000EF86E9E
:1010A000060EF76E00011CEF06F00CC00EF00DC02E
:1010B0000FF002D00C4A0D2A0CC0D9FF0DC0DAFF88
:1010C000DF50D8A4F7D70E500C5C0C6E0F500D58A3
:1010D0000D6E1200948C948EAC98B896AC840C0E65
:1010E000AF6EAB8E9E889E9AAC8AAB889D989F9877
:1010F0009D8A9F9A120092680E0EC16EC08E070ED6
:10110000C012000EC46E000EC36E120006009EA434
:1011100006D082749E94000EB36E000EB26E6F9273
:101120001100A4EC08F06AEC08F07BEC08F0120067
:101130000C6EACA2FED70CC0ADFF1200016EACA2CB
:10114000FED701C0ADFF1200D38CD39AD388120012
:0211500012008B
:020000040020DA
:08000000FFFFFFFFFFFFFFFF00
:020000040030CA
:0E000000FF881F00FF8381FF0FC00FE00F403D
:00000001FF
