:020000040000FA
:0400000035EF00F0E8
:0600080038827BED04F0DC
:100018003880D8CF2AF0E8CF2BF0E0CF2CF0D9CF1A
:100028002DF0DACF2EF09EAA07D0ABA203D0AB9862
:1000380000F0AB88CBEC03F09EA007D0164A172A35
:10004800F30ECF6ECA0ECE6E9E902EC0DAFF2DC074
:10005800D9FF2CC0E0FF2BC0E8FF2AC0D8FF38909A
:060068001000EDEF03F0B3
:100600000000000000DCCFD1350000000000C01564
:100610003F6042A20D70A5EC363BAAB83F4F38763A
:100620003F3CAA38338CBEBF350072313F1872315F
:100630003F4CBB31330EEADDB555B38A38610B361A
:10064000BBABAA2A3E42F1533E55326C3E05A38B0A
:100650003EABAAAA3EB76DDB3E9A99193F6042A213
:100660000DCAF249710000804B0000803F0000C0BD
:100670003F00AAB83FC623F6B80040763F6D6F6EC4
:1006800069746F720073746172740000030EE82E57
:10069000FED700F0000E306E300E2F6E51EC04F0DD
:1006A000030EE82EFED700F0000E306E300E2F6ED7
:1006B00051EC04F0030EE82EFED700F0000E306E71
:1006C000300E2F6E51EC04F0030EE82EFED700F032
:1006D000000E306E380E2F6E51EC04F0000E306EAE
:1006E000060E2F6E51EC04F0000E306E0C0E2F6EC5
:1006F00051EC04F0000E306E010E2F6E51EC04F040
:10070000A60EE82EFED700D07D0E316E060E326E9C
:10071000840E0CEC04F0850E316E060E326EC50EA2
:100720000CEC04F01200000E296E25AE06D0246CED
:10073000251ED8B0252A010E296E27AE04D0266CBE
:10074000271ED8B0272A26502710D8B418D0010E5B
:10075000286E04D0D89026362736282A27AEFAD716
:100760002650245C27502558D8A004D02650245E5B
:100770002750255AD89027322632282EF1D72950D3
:10078000D8B404D0246C251ED8B0252A24C024F067
:1007900025C025F012001A0E1824D96E000E19205B
:1007A000DA6EAECFDFFF1A0E1824D96E000E1920B4
:1007B000DA6EDF506EEC04F0184A192A18C024F0E3
:1007C00019C025F0000E276E0A0E266E93EC03F07A
:1007D00024C018F025C019F01200FC0EF66E080EA9
:1007E000F76E000EF86E00EE34F010EE04F0090023
:1007F000F5CFEEFFE550E150FAE100EE01F0230EF7
:10080000EE6AE806FDE138903892000EF86E060EAA
:10081000F76E000178EF04F0336E33C02FF0306ACA
:1008200051EC04F00CD031C0F6FF32C0F7FF0800E5
:10083000F5502F6E306A44EC04F0314A322A31C050
:10084000F6FF32C0F7FF0800F5500009D8B41200D7
:10085000EAD7CD8ECD50CF0B2009CD6ECD809E90A6
:100860009D809F800B0ECF6EDB0ECE6E120067EC6C
:1008700004F074EC04F080EC04F05EEC04F046EC60
:1008800003F029EC04F012002FC083FF82848296CB
:1008900000D000D000D0828600D000D000D0829658
:1008A00012002FC083FF8294829600D000D000D027
:1008B000828600D000D000D0829612000D0EC16E4C
:1008C000940EC06E000EC46E000EC36E1200000EB9
:1008D000946E000E956E030E926E1200246EACA202
:1008E000FED724C0ADFF1200D38CD39AD398120048
:1008F00037EC04F0FFD70600389211000000FA44EC
:020900001200E3
:020000040020DA
:08000000FFFFFFFFFFFFFFFF00
:020000040030CA
:0E000000FF881F00FF8381FF0FC00FE00F403D
:00000001FF
