:020000040000FA
:040000002CEF00F0F1
:060008007F82E4ED11F01F
:100018007F80D8CFADF1E8CFAEF1E0CFAFF1D9CF47
:10002800B0F1DACFB1F19EAA07D0ABA203D0AB985A
:1000380000F0AB886BEC17F0B1C1DAFFB0C1D9FFA3
:10004800AFC1E0FFAEC1E8FFADC1D8FF7F9010009F
:04005800B4EF15F0FC
:100600000000000000DCCFD1350000000000C01564
:100610003F6042A20D70A5EC363BAAB83F4F38763A
:100620003F3CAA38338CBEBF350072313F1872315F
:100630003F4CBB31330EEADDB555B38A38610B361A
:10064000BBABAA2A3E42F1533E55326C3E05A38B0A
:100650003EABAAAA3EB76DDB3E9A99193F6042A213
:100660000DCAF249710000804B269E783EEEE9915A
:100670003E13CECC3EAAAA2A3FD1F717378071315C
:100680003F0000803F0000C03F00AAB83FC623F6ED
:10069000B80040763F2573252E32662043006D6FEB
:1006A0006E69746F7200737461727400494E460013
:1006B0004E414E00696E66006E616E006C66000011
:1006C000000E00019B6F000E9A6F57C0ACF058C02F
:1006D000ADF059C0AEF05AC0AFF0AFAF16D0000EBB
:1006E0009B6F010E9A6FACC001F0ADC002F0AEC0BE
:1006F00003F0AFC004F064EC18F001C0ACF002C02D
:10070000ADF003C0AEF004C0AFF0000E0001B36F57
:10071000000EB26FE7C09FF0E8C0A0F09A519B11A5
:10072000D8A402D0EBA513D09A519B11D8A404D021
:10073000000E856F2B0E03D0000E856F2D0E846F7B
:1007400084C022F1B24BB32B9F07D8A0A007ACC046
:1007500001F0ADC002F0AEC003F0AFC004F03EEC5B
:1007600013F001040210D8A44CD0BF0E5C6EFF0E33
:100770005D6E5B505E6E5F6A5C505E265D505F2210
:100780005F5006E11A0E5E5CD8B002D0010E01D0B7
:10079000000E0001866F876B86518711D8B40DD08B
:1007A000220EB225016E010EB321026EAC0E036E55
:1007B000060E046E1CEC17F00CD0220EB225016E52
:1007C000010EB321026EB40E036E060E046E1CEC15
:1007D00017F00001FD0E9F27FF0EA02355C011F05A
:1007E00056C012F0220E136E010E146E9FC015F04B
:1007F000A0C016F0A2EC14F011C055F012C056F0D3
:100800001200ACC001F0ADC002F0AEC003F0AFC04A
:1008100004F03EEC13F001500210D8A435D0BF0E06
:100820005C6EFF0E5D6E5B505E6E5F6A5C505E26B6
:100830005D505F225F5006E11A0E5E5CD8B002D0B8
:10084000010E01D0000E0001886F896B885189115B
:10085000D8B40DD0220EB225016E010EB321026E66
:10086000B00E036E060E046E1CEC17F0B2D7220E0B
:10087000B225016E010EB321026EB80E036E060E94
:10088000046E1CEC17F0A5D7000E0001B46F000E2B
:10089000B56F800EB66F3F0EB76F000EB16F000ED2
:1008A000B06FACC001F0ADC002F0AEC003F0AFC09D
:1008B00004F0000E056E000E066E000E076E000EB0
:1008C000086EEFEC14F0D8A01ED076D0B4C00FF0B4
:1008D000B5C010F0B6C011F0B7C012F0000E136E24
:1008E000000E146E200E156E410E166E27EC0AF0E7
:1008F0000FC0B4F010C0B5F011C0B6F012C0B7F020
:100900000001B04BB12BACC028F0ADC029F0AEC097
:100910002AF0AFC02BF0000E136E000E146E200EE6
:10092000156E410E166EB4C00FF0B5C010F0B6C013
:1009300011F0B7C012F027EC0AF00FC02CF010C075
:100940002DF011C02EF012C02FF0D6EC12F0D8A06E
:100950001FD0BCD7B4C028F0B5C029F0B6C02AF06B
:10096000B7C02BF0000E2C6E000E2D6E200E2E6EDA
:10097000410E2F6E56EC0DF028C0B4F029C0B5F032
:100980002AC0B6F02BC0B7F00001B007D8A0B1075D
:10099000ACC028F0ADC029F0AEC02AF0AFC02BF03B
:1009A000B4C02CF0B5C02DF0B6C02EF0B7C02FF0FB
:1009B000D6EC12F0D8A0CED75BC007F0086A45ECA1
:1009C00017F007500001A16FA1C09EF0670EA1199A
:1009D000D8A419D0E951EA11D8A404D0000EEA6FC6
:1009E000010EE96FEABF05D0EA5108E1E905D8B088
:1009F00005D0000E9D6F060E9C6F08D0E9C09CF0DC
:100A0000EAC09DF003D0EAAFF9D7F3D7670EA1197A
:100A1000D8A422D0B1AF06D0FC0EB05DFF0EB15904
:100A2000D8A018D0FF0E5C6EFF0E5D6E9CC05EF00D
:100A30009DC05FF05C505E265D505F22B0515E5CF1
:100A40005F50800A606EB151800A6058D8A002D011
:100A5000660E01D0650E9E6F9CC094F09DC095F00F
:100A6000670EA119D8A405D0660E9E19D8B4B1AFEF
:100A700002D0944B952B660E9E19D8A416D0B1AF18
:100A80000CD0000EB46F000EB56F800EB66F3F0E27
:100A9000B76F000EB16F000EB06F670EA119D8B41A
:100AA00004D0B0519427B1519523000EAB6F000EC6
:100AB000AA6FACC0A2F0ADC0A3F0AEC0A4F0AFC0AE
:100AC000A5F0B4C080F0B5C081F0B6C082F0B7C068
:100AD00083F07BD0A2C028F0A3C029F0A4C02AF0E4
:100AE000A5C02BF0B4C02CF0B5C02DF0B6C02EF0D0
:100AF000B7C02FF056EC0DF028C041F029C042F0ED
:100B00002AC043F02BC044F09AEC0EF041C0A6F08E
:100B100042C0A7F043C0A8F044C0A9F0A6C001F0AD
:100B2000A7C002F0A8C003F0A9C004F0A4EC13F021
:100B300001C098F002C099F0A2C028F0A3C029F02B
:100B4000A4C02AF0A5C02BF0B4C013F0B5C014F0B7
:100B5000B6C015F0B7C016F0A6C00FF0A7C010F0D1
:100B6000A8C011F0A9C012F027EC0AF00FC02CF0B9
:100B700010C02DF011C02EF012C02FF08FEC17F026
:100B800028C0A2F029C0A3F02AC0A4F02BC0A5F071
:100B9000B4C028F0B5C029F0B6C02AF0B7C02BF019
:100BA000000E2C6E000E2D6E200E2E6E410E2F6E3E
:100BB00056EC0DF028C0B4F029C0B5F02AC0B6F04C
:100BC0002BC0B7F00001AA4BAB2B9451AA5DAB51DF
:100BD000800A5C6E9551800A5C58D8A07BD7B4C05F
:100BE0000FF0B5C010F0B6C011F0B7C012F0000E93
:100BF000136E000E146EA00E156E400E166E27ECCE
:100C00000AF00FC0A6F010C0A7F011C0A8F012C0E3
:100C1000A9F0A2C028F0A3C029F0A4C02AF0A5C062
:100C20002BF0A6C02CF0A7C02DF0A8C02EF0A9C0B4
:100C30002FF0D6EC12F0D8B003D0000E000118D07F
:100C4000A2C001F0A3C002F0A4C003F0A5C004F04C
:100C5000A6C005F0A7C006F0A8C007F0A9C008F01C
:100C6000EFEC14F0D8A00BD0000198B108D0000E22
:100C7000A66F000EA76F000EA86F000EA96FACC084
:100C800001F0ADC002F0AEC003F0AFC004F0A6C0EA
:100C900005F0A7C006F0A8C007F0A9C008F0D0EC86
:100CA0000BF001C0A2F002C0A3F003C0A4F004C086
:100CB000A5F080C0B4F081C0B5F082C0B6F083C0AA
:100CC000B7F0650E00019E19D8B405D0B0C096F0FB
:100CD000B1C097F004D0000E976F000E966F000E13
:100CE000936F000E926F000E916F000E906F000ECA
:100CF000AB6F000EAA6FC6D0A2C028F0A3C029F027
:100D0000A4C02AF0A5C02BF0B4C02CF0B5C02DF0C3
:100D1000B6C02EF0B7C02FF056EC0DF028C041F051
:100D200029C042F02AC043F02BC044F09AEC0EF0E8
:100D300041C0A6F042C0A7F043C0A8F044C0A9F04B
:100D4000A6C001F0A7C002F0A8C003F0A9C004F03B
:100D5000A4EC13F001C098F002C099F00001EBB9C7
:100D60000CD098519911D8A408D0670EA119D8B405
:100D700097AF03D0904B912B39D092519311D8B4A7
:100D800097AF22D0220EB225D96E010EB321DA6EB2
:100D90002E0EDF6EB24BB32B9F07D8A0A007000E1C
:100DA000936F010E926F10D0220EB225D96E010EF4
:100DB000B321DA6E300EDF6EB24BB32B9F07D8A093
:100DC000A0079007D8A0910790519111D8A4ECD713
:100DD000220EB225D96E010EB321DA6E9851300F72
:100DE000DF6EB24BB32B9F07D8A0A007A2C028F09C
:100DF000A3C029F0A4C02AF0A5C02BF0B4C013F002
:100E0000B5C014F0B6C015F0B7C016F0A6C00FF00C
:100E1000A7C010F0A8C011F0A9C012F027EC0AF08A
:100E20000FC02CF010C02DF011C02EF012C02FF00A
:100E30008FEC17F028C0A2F029C0A3F02AC0A4F0BC
:100E40002BC0A5F0B4C028F0B5C029F0B6C02AF078
:100E5000B7C02BF0000E2C6E000E2D6E200E2E6EE5
:100E6000410E2F6E56EC0DF028C0B4F029C0B5F03D
:100E70002AC0B6F02BC0B7F000019607D8A097079C
:100E8000AA4BAB2B9451AA5DAB51800A5C6E955175
:100E9000800A5C58D8B008D0B3BF2ED7B35104E154
:100EA0004B0EB25DD8A028D792519311D8B4EBA9BC
:100EB0000AD0220EB225D96E010EB321DA6E2E0EA3
:100EC000DF6EB24BB32B220EB225D96E010EB321C9
:100ED000DA6E000EDF6E650E9E19D8A47FD4000E68
:100EE000AB6F4F0EAA6F220EAA25D96E010EAB2151
:100EF000DA6E000EDF6E000E9B6F000E9A6FB1AFC0
:100F000008D0000E9B6F010E9A6FB06DB11FD8B064
:100F1000B12B000E9D6F020E9C6F2BD0AA07D8A09C
:100F2000AB07220EAA25D96E010EAB21DA6EB0C036
:100F300001F0B1C002F0000E046E0A0E036E26EC42
:100F400016F00150300FDF6EB0C001F0B1C002F0FA
:100F5000000E046E0A0E036E34EC15F001C0B0F002
:100F600002C0B1F000019C07D8A09D079F07D8A040
:100F7000A007B051B111D8A4D1D79DBF05D09D51C4
:100F8000CDE19C05D8B0CAD7AA07D8A0AB079A5123
:100F90009B11D8A404D0000E8B6F2B0E03D0000E33
:100FA0008B6F2D0E8A6F220EAA25D96E010EAB21F2
:100FB000DA6E8AC0DFFF9F07D8A0A007AA07D8A0D3
:100FC000AB07BF0E5C6EFF0E5D6E5B505E6E5F6AC0
:100FD0005C505E265D505F225F5006E11A0E5E5C3B
:100FE000D8B002D0010E01D0000E8E6F8F6B8E51E3
:100FF0008F11D8A404D0000E8D6F650E03D0000EA3
:101000008D6F450E8C6F220EAA25D96E010EAB2175
:10101000DA6E8CC0DFFF9F07D8A0A007220EB22592
:10102000016E010EB321026E220EAA25036E010E7F
:10103000AB21046E1CEC17F0EEEF03F063C0D9FF98
:1010400064C0DAFFDECFF6FFDDCFF7FF0800F55012
:10105000250AD8A4E2D163C0D9FF64C0DAFFDE2A32
:10106000000EDD22000E0001E86F000EE76FE7C002
:10107000EBF0E8C0ECF0E969EA6963C0D9FF64C04D
:10108000DAFFDECFF6FFDDCFF7FF0800F5502E0ABE
:10109000D8A46DD0000EEA6F000EE96F63C0D9FFCF
:1010A00064C0DAFFDE2A000EDD2263C0D9FF64C00F
:1010B000DAFFDECFF6FFDDCFF7FF0800F5502A0A92
:1010C000D8A41CD063C0D9FF64C0DAFFDE2A000EAA
:1010D000DD2265C0D9FF66C0DAFFDFCF67F0020E00
:1010E000DE26DFCF68F0000EDD2267C0D9FF68C0C2
:1010F000DAFFDECFE9F0DDCFEAF039D063C0D9FF07
:1011000064C0DAFFDECF08F0DDCF09F075EC0FF038
:1011100008C0E9F009C0EAF007D063C0D9FF64C095
:10112000DAFFDE2A000EDD22D00E676EFF0E686E3B
:1011300063C0D9FF64C0DAFFDECFF6FFDDCFF7FF73
:101140000800F550696E6A6A6750692668506A221D
:101150006A5006E10A0E695CD8B002D0010E01D0D7
:10116000000E6D6E6E6A6D506E10D8A4D6D763C037
:10117000D9FF64C0DAFFDECFF6FFDDCFF7FF08004E
:10118000F550076E086A45EC17F00750756E7550FC
:10119000D8B433D063C0D9FF64C0DAFFDECF67F0C4
:1011A000DDCF68F0010E6726000E682267C0F6FFEB
:1011B00068C0F7FF0800F550076E086A45EC17F0A5
:1011C0000750766E7650D8B418D063C0D9FF64C08B
:1011D000DAFFDECF67F0DDCF68F0020E6726000E83
:1011E000682267C0F6FF68C0F7FF0800F550076E79
:1011F000086A45EC17F00750776E660E7518D8A48C
:101200003FD063C0D9FF64C0DAFFDECFF6FFDDCF89
:10121000F7FF0800F5CF78F063C0D9FF64C0DAFFAC
:10122000DE2A000EDD2265C0D9FF66C0DAFFDFCFFF
:1012300067F0040EDE26DFCF68F0000EDD2267C007
:10124000D9FF68C0DAFFDECF71F0DECF72F0DECFFB
:1012500073F0DECF74F061C055F062C056F071C01B
:1012600057F072C058F073C059F074C05AF078C08B
:101270005BF060EC03F055C061F056C062F0120004
:10128000750E016E000E026EBC0E036E060E046E2D
:10129000000E066E020E056E01EC14F001500210F5
:1012A000D8A455D063C0D9FF64C0DAFFDECF67F0A1
:1012B000DDCF68F0010E6726000E682267C0F6FFDA
:1012C00068C0F7FF0800F5CF78F0BF0E676EFF0E1D
:1012D000686E63C0D9FF64C0DAFFDECFF6FFDDCFF2
:1012E000F7FF0800F550696E6A6A67506926685012
:1012F0006A226A5006E11A0E695CD8B002D0010E6B
:1013000001D0000E6F6E706A6F50701065C0D9FF0B
:1013100066C0DAFFDFCF67F0040EDE26DFCF68F0AD
:10132000000EDD2267C0D9FF68C0DAFFDECF71F0A2
:10133000DECF72F0DECF73F0DECF74F0020E63C04A
:10134000D9FF64C0DAFFDE26000EDD2284D763C039
:10135000D9FF64C0DAFFDECFF6FFDDCFF7FF08006C
:10136000F550730AD8A42AD063C0D9FF64C0DAFF4D
:10137000DE2A000EDD2265C0D9FF66C0DAFFDFCFAE
:1013800067F0020EDE26DFCF68F0000EDD2267C0B8
:10139000D9FF68C0DAFFDECF6BF0DDCF6CF061C043
:1013A0000AF062C00BF06BC00CF06CC00DF04EEC9C
:1013B00011F00AC061F00BC062F0120063C0D9FFE7
:1013C00064C0DAFFDECFF6FFDDCFF7FF0800F5508F
:1013D000250AD8A416D063C0D9FF64C0DAFFDE2A7C
:1013E000000EDD22000E026E250E016E61C003F0BC
:1013F00062C004F052EC14F0000E626E010E616ED9
:10140000120063C0D9FF64C0DAFFDE2A000EDD22BD
:10141000000E626E000E616E120063C0D9FF64C0E0
:10142000DAFFDECFF6FFDDCFF7FF0800F550016EE3
:10143000026A61C003F062C004F052EC14F063C0B1
:10144000D9FF64C0DAFFDE2A000EDD22D5D71250A4
:10145000800B1B6E12501224216E11BE2180215070
:10146000D8B40DD02128D8A408D0000E0F6E000EDD
:10147000106E000E116E000E126E118E08D0000E4E
:101480000F6E000E106E000E116E000E126E1650D2
:10149000800B1B1A16501624206E15BE208020507B
:1014A000D8B40DD02028D8A408D0000E136E000E9A
:1014B000146E000E156E000E166E158E08D0000EFE
:1014C000136E000E146E000E156E000E166E205078
:1014D000D8B403D02150D8A409D0000E0F6E000E4E
:1014E000106E000E116E000E126E120015500F02DB
:1014F000F3CF26F0F4CF27F026501C6E1D6A1E6A2B
:101500001F6A2750226E236A246A256A145010022B
:10151000F3CF26F0F4CF27F026501C26000E1D2214
:101520001E221F2227502226000E2322242225229B
:1015300013501102F3CF26F0F4CF27F026501C26CB
:10154000000E1D221E221F2227502226000E2322BB
:10155000242225221EC01FF01DC01EF01CC01DF03D
:101560001C6A13501002F3CF26F0F4CF27F0265058
:101570001C2627501D22000E1E22000E1F22145072
:101580000F02F3CF26F0F4CF27F026501C26275069
:101590001D22000E1E22000E1F221EC01FF01DC0A5
:1015A0001EF01CC01DF01C6A13500F02F3CF26F072
:1015B000F4CF27F026501C2627501D22000E1E2295
:1015C000000E1F2215501002F3CF26F0F4CF27F0A3
:1015D0002650222627502322000E2422000E2522E8
:1015E00014501102F3CF26F0F4CF27F02650222614
:1015F00027502322000E2422000E2522155011020E
:10160000F3CF26F0F4CF27F02650176E2750186E30
:10161000196A1A6A19C01AF018C019F017C018F020
:10162000176A1750222618502322195024221A50C4
:1016300025221CC017F01DC018F01EC019F01FC0D5
:101640001AF0190E05D0D8901A3219321832173202
:10165000E82EF9D717502226185023221950242299
:101660001A5025221EC01FF01DC01EF01CC01DF008
:101670001C6A205021C017F0186A1726000E182285
:10168000820E1724266EFF0E1820276E0FD0D890DA
:1016900022362336243625361FBE2280D8901C36AB
:1016A0001D361E361F362606D8A0270624AEEFD7D5
:1016B000000E206E1FAE17D0FF0E1C14176EFF0E0B
:1016C0001D14186EFF0E1E14196E7F0E1F141A6E55
:1016D0001750181019101A10D8B403D0010E206E2C
:1016E00002D022B0FBD72050D8B41FD0010E222642
:1016F000000E23222422252225A017D022C017F075
:1017000023C018F024C019F025C01AF01A341A3278
:1017100019321832173217C022F018C023F019C03E
:1017200024F01AC025F0264A272A27BE0DD02750BC
:1017300003E12628D8A008D0000E226E000E236EEA
:10174000800E246E7F0E20D027BE05D027500EE1DC
:101750002604D8B00BD0000E226E000E236E000EB1
:10176000246E000E256E000E1B6E0FD026C021F0D9
:10177000FF0E2216FF0E23167F0E2416000E2516CE
:1017800021B0248ED8902130256E1B50251222C006
:101790000FF023C010F024C011F025C012F0120089
:1017A0000450800B0D6E045004240F6E03BE0F8096
:1017B0000F50D8B40DD00F28D8A408D0000E016E59
:1017C000000E026E000E036E000E046E038E06D035
:1017D000000E016E000E026E000E036E000E046E0F
:1017E0000850800B0E6E0D500E18D8A40D8C0850AA
:1017F00008240E6E07BE0E800E50D8B40DD00E28F1
:10180000D8A408D0000E056E000E066E000E076EFE
:10181000000E086E078E06D0000E056E000E066ED6
:10182000000E076E000E086E0F500E5CD8B022D06E
:101830000DAC02D0800E0D1A0FC010F00EC00FF0CC
:1018400010C00EF001C010F005C001F010C005F08E
:1018500002C010F006C002F010C006F003C010F085
:1018600007C003F010C007F004C010F008C004F077
:1018700010C008F0000E106E0F500EC009F00A6A7A
:10188000095E000E0A5A0ABE2CD00A5004E11A0E54
:10189000095CD8A026D00150021003100410D8B45F
:1018A00002D0010E01D0000E106E000E016E000E6F
:1018B000026E000E036E000E046E0EC00FF015D007
:1018C00010A005D0D89010300109106E02D0D89029
:1018D000103201B0108E043404320332023201326D
:1018E0000F2A0E500F5CD8A0EBD70DBC28D00F509C
:1018F000D8A409D0000E016E000E026E000E036E19
:10190000000E046E120005500126065002220750F8
:1019100003220850042204A071D010A005D0D89052
:1019200010300109106E02D0D890103201B0108E24
:10193000043404320332023201320F2A5FD00550E0
:10194000015C06500258075003580450800A096E83
:101950000850800A0958D8B025D00150055C096E9E
:10196000025006580A6E035007580B6E0450085870
:101970000C6EFF0E0924016EFF0E0A20026EFF0E90
:101980000B20036EFF0E0C20046E800E0D1A106CDF
:101990001050D8A40FD0010E0126000E02220322FF
:1019A000042208D00550015E0650025A0750035A1F
:1019B0000850045A0150021003100410D8A41CD07F
:1019C0001050D8A419D0000E016E000E026E000E49
:1019D000036E000E046E1200D890013602360336F4
:1019E000043610BE018010A002D0D88001D0D8905B
:1019F00010360F50D8A40F0603AEEED7000E0E6EB1
:101A000010AE0BD010C009F07F0E0916D8B403D069
:101A1000010E0E6E02D001B0FBD70E50D8B420D00C
:101A2000010E0126000E02220322042204A018D077
:101A300001C009F002C00AF003C00BF004C00CF0B2
:101A40000C340C320B320A32093209C001F00AC0E0
:101A500002F00BC003F00CC004F00F28D8A40F2A2A
:101A60000F28D8B403D00F50D8A40DD0000E016EAB
:101A7000000E026E000E036E000E046E0F50D8A40E
:101A800002D0000E0D6E0FA002D0038E01D0039E77
:101A9000D8900F30046E0DBE048E01C001F002C05C
:101AA00002F003C003F004C004F012002B50800BBE
:101AB000386E2B502B243F6E2ABE3F803F50D8B447
:101AC0000DD03F28D8A408D0000E286E000E296E35
:101AD000000E2A6E000E2B6E2A8E06D0000E286E87
:101AE000000E296E000E2A6E000E2B6E2F50800BFA
:101AF000381A2F502F24406E2EBE40804050D8B44C
:101B00000DD04028D8A408D0000E2C6E000E2D6EEB
:101B1000000E2E6E000E2F6E2E8E06D0000E2C6E36
:101B2000000E2D6E000E2E6E000E2F6E2C502D10FE
:101B30002E102F10D8A417D0000E286E000E296E7C
:101B4000000E2A6E000E2B6E800E2A127F0E2B12B4
:101B500038502B1228C028F029C029F02AC02AF0BA
:101B60002BC02BF012003F50D8A409D0000E286ED5
:101B7000000E296E000E2A6E000E2B6E12004050D1
:101B80003FC030F0316A305E000E315A7F0E302493
:101B9000396E000E31203A6E28C034F029C035F07D
:101BA0002AC036F02BC037F0000E286E000E296ECA
:101BB000000E2A6E000E2B6E000E3B6E000E3C6E69
:101BC000000E3D6E000E3E6E000E406E28D040505E
:101BD000D8B411D0D8903436353636363736D8901A
:101BE000283629362A362B363EBE2880D8903B36FA
:101BF0003C363D363E362C50345C2D5035582E50F8
:101C000036582F503758D8A009D03E8C2C50345E0F
:101C10002D50355A2E50365A2F50375A402A190E09
:101C20004064D5D73450351036103710D8B411D0A1
:101C30003B800FD0D890283629362A362B363EBE28
:101C40002880D8903B363C363D363E363906D8A003
:101C50003A062AAEEFD7000E406E3EAE17D0FF0E0A
:101C60003B14306EFF0E3C14316EFF0E3D14326E8D
:101C70007F0E3E14336E3050311032103310D8B412
:101C800003D0010E406E02D028B0FBD74050D8B42C
:101C90001FD0010E2826000E29222A222B222BA03B
:101CA00017D028C030F029C031F02AC032F02BC044
:101CB00033F03334333232323132303230C028F004
:101CC00031C029F032C02AF033C02BF0394A3A2A09
:101CD0003ABE10D03A5003E13928D8A00BD0000EFC
:101CE0003A6E3968000E286E000E296E000E2A6EBC
:101CF000000E2B6E3ABE05D03A5011E13904D8B02F
:101D00000ED0000E3A6E000E396E000E286E000ED8
:101D1000296E000E2A6E000E2B6E000E386E39C032
:101D20003FF03FA002D02A8E01D02A9ED8903F30AB
:101D30002B6E0ED7DBC051F0DCC052F0DDC053F08B
:101D4000DEC054F041C051F042C052F043C053F0E5
:101D500044C054F0810E456EFF0E466E51C047F0F0
:101D600052C048F053C049F054C04AF0180E05D094
:101D7000D8904A32493248324732E82EF9D7475094
:101D800045244F6E000E4620506E50BE0FD050506E
:101D900004E1170E4F5CD8A009D041C041F042C009
:101DA00042F043C043F044C044F0120050BE5ED045
:101DB0004FC045F0FF0E466EFF0E476E7F0E486E19
:101DC000000E496E456601D007D049344932483289
:101DD00047324632452EF6D746C04BF047C04CF04E
:101DE00048C04DF049C04EF04B505114456E4C5018
:101DF0005214466E4D505314476E4E505414486E54
:101E00004550461047104810D8B4C7D751C045F0C8
:101E100052C046F053C047F054C048F0200E05D0E1
:101E2000D8904832473246324532E82EF9D74550ED
:101E3000461047104810D8B408D04B5051264C508B
:101E400052224D5053224E5054224B1C456E4C1C76
:101E5000466E4D1C476E4E1C486E455051164650FE
:101E60005216475053164850541636D051C045F0BC
:101E700052C046F053C047F054C048F0200E05D081
:101E8000D8904832473246324532E82EF9D745508D
:101E9000461047104810D8A408D0000E516E000E0E
:101EA000526E000E536E000E16D0D8905134456E0F
:101EB0005234466E5334476E5434486E4550461083
:101EC00047104810D8B408D0000E516E000E526E64
:101ED000800E536EBF0E546E51C041F052C042F09E
:101EE00053C043F054C044F01200000E166E000EB2
:101EF000156E000E0F6E000E0E6E02D0084A092AF3
:101F0000010E146E08C0F6FF09C0F7FF0800F55077
:101F1000200AD8B418D0F70E0A6EFF0E0B6E08C058
:101F2000F6FF09C0F7FF0800F5500C6E0D6A0A5065
:101F30000C260B500D220D5004E1050E0C5CD8A0B0
:101F400002D0000E146E14C010F0116A105011105F
:101F5000D8B408D0D3D7000E0F6E010E0E6E084A0B
:101F6000092A2ED008C0F6FF09C0F7FF0800F55077
:101F70000A6E0B6A0B50000AD8A422D00A502B0A12
:101F8000D8B4EDD7060AD8B4E6D71AD015C001F0F8
:101F900016C002F0000E046E0A0E036EBDEC18F0BF
:101FA00008C0F6FF09C0F7FF0800F550015E000EFB
:101FB000025A300E0124156E000E0220166ECFD785
:101FC000D00E0A6EFF0E0B6E08C0F6FF09C0F7FFB9
:101FD0000800F5500C6E0D6A0A500C260B500D22AD
:101FE0000D5006E10A0E0C5CD8B002D0010E01D0F3
:101FF000000E126E136A12501310D8A4C7D70E50D9
:102000000F10D8A40DD015C00AF016C00BF00A1E90
:102010000B1E0A4A0B2A0AC008F00BC009F0120076
:1020200015C008F016C009F01200096E0950D8A4B6
:1020300004AE1AD001C005F002C006F003C007F0DC
:1020400004C008F0051E061E071E081E052A000E05
:1020500006220722082205C00BF006C00CF007C0BC
:102060000DF008C00EF008D001C00BF002C00CF05B
:1020700003C00DF004C00EF0015002100310041054
:10208000D8A409D0000E016E000E026E000E036E81
:10209000000E046E1200960E0A6E06D00A2AD89020
:1020A0000E320D320C320B32000E0B14056E000E88
:1020B0000C14066E000E0D14076EFE0E0E14086E44
:1020C0000550061007100810D8B40DD0E7D70A2A1B
:1020D000010E0B26000E0C220D220E22D8900E327D
:1020E0000D320C320B32000E0B14056E000E0C1468
:1020F000066E000E0D14076EFF0E0E14086E0550CE
:10210000061007100810D8B407D0E1D70A06D890F7
:102110000B360C360D360E360DBE03D0020E0A609D
:10212000F5D70AA00D9ED8900A320AC005F0066ABB
:10213000076A086A05C008F0076A066A056A05505A
:102140000B1206500C1207500D1208500E120950B7
:10215000D8A404AE01D00E8E0BC001F00CC002F06A
:102160000DC003F00EC004F0120001C00BF002C05D
:102170000CF005500610D8B412000BC0D9FF0CC0EB
:10218000DAFF03C0DFFF05500B24076E06500C205A
:10219000086EFF0E0724D96EFF0E0820DA6E03C00A
:1021A000DFFF065004E1030E055CD8A0120020EE0C
:1021B00001F00B50D9260C50DA2203C0DFFF20EECD
:1021C00002F00B50D9260C50DA2203C0DFFF055075
:1021D0000B24076E06500C20086EFE0E0724D96EE5
:1021E000FF0E0820DA6E03C0DFFF05500B24076ED8
:1021F00006500C20086EFD0E0724D96EFF0E082035
:10220000DA6E03C0DFFF065004E1070E055CD8A0BC
:10221000120020EE03F00B50D9260C50DA2203C036
:10222000DFFF05500B24076E06500C20086EFC0ED5
:102230000724D96EFF0E0820DA6E03C0DFFF0650B8
:1022400004E1090E055CD8A012000BC007F00CC019
:1022500008F0071E081E074A082A030E0714096E15
:102260000A6A09500B260A500C220950055E0A50D2
:10227000065AFC0E0516FF0E06160BD00BC0D9FF32
:102280000CC0DAFF03C0DFFF0506D8A006060B4A24
:102290000C2A05500610D8B41200F0D721EE7CF0BD
:1022A00010EE0FF0060EDBCFE3FFE806FCE20CC0F9
:1022B0001AF00DC01BF01A501B10D8A404D00F0E3A
:1022C0001A6E000E1B6E1AC001F01BC002F0A8ECC3
:1022D00018F001C01EF002C01FF0E9C01CF0EAC0F7
:1022E0001DF01DBE0ED01E501C5C1D50800A0E6ECF
:1022F0001F50800A0E58D8B004D01CC01EF01DC05C
:102300001FF01EC01CF01FC01DF0E7C018F0E8C091
:1023100019F00001EBA10DD016D0000E026E200EB8
:10232000016E0AC003F00BC004F052EC14F01E4A18
:102330001F2A18501E5C1F50800A0E6E1950800A0A
:102340000E58D8A0EAD7000E176E000E166E13D0E6
:102350001AC0D9FF1BC0DAFFDF500E6E0E50016E9F
:10236000026A0AC003F00BC004F052EC14F01A4ADF
:102370001B2A164A172A1C50165C1750800A0E6E2C
:102380001D50800A0E58D8A0E3D70001EBB10DD044
:1023900016D0000E026E200E016E0AC003F00BC0B4
:1023A00004F052EC14F01E4A1F2A18501E5C1F50F5
:1023B000800A0E6E1950800A0E58D8A0EAD71EC0A7
:1023C0000AF01FC00BF012000600E9CFCFF0EACFF1
:1023D000D0F0E1CFD1F0E2CFD2F0D9CFD3F0DACF45
:1023E000D4F0F3CFD5F0F4CFD6F0F6CFD7F0F7CFC7
:1023F000D8F0F8CFD9F0F5CFDAF09EB09DA04FD04D
:102400000001F551EF5DF051800ACE6FF651800A60
:10241000CE59D8B003D0EF4BF02B3CD0000EF06F6C
:10242000000EEF6F000E016E020E026E000E046EC3
:10243000000E036E000E066E640E056EB5EC10F015
:10244000210EE82EFED700F0000E0001BA6F020E3A
:10245000BB6F950EBC6F060EBD6F000EBE6F020EF9
:10246000BF6F000E426E000E416E69EC12F041C06B
:10247000C0F042C0C1F043C0C2F044C0C3F0F3ECAE
:1024800016F00EEC19F0000E046E020E056E800EB2
:1024900095EC16F09E90FDC0CEFFFEC0CFFFDAC0D7
:1024A000F5FFD9C0F8FFD8C0F7FFD7C0F6FFD6C0F8
:1024B000F4FFD5C0F3FFD4C0DAFFD3C0D9FFD2C038
:1024C000E2FFD1C0E1FFD0C0EAFFCFC0E9FF7F92B9
:1024D000110041C045F045464546C2504518C30B62
:1024E0004518C26EC280C282C2B2FED7C3CF4AF0C4
:1024F000C4CF4BF0000E2C6E000E2D6E800E2E6E93
:10250000440E2F6E000E136E000E146EA00E156E8C
:10251000400E166E4AC001F04BC002F0000E02BE23
:10252000FF0E036E046E010E15EC10F001C00FF0EB
:1025300002C010F003C011F004C012F027EC0AF042
:102540000FC028F010C029F011C02AF012C02BF0E3
:1025500056EC0DF028C046F029C047F02AC048F0DC
:102560002BC049F046C00FF047C010F048C011F032
:1025700049C012F0000E136E000E146EC80E156ED8
:10258000420E166E27EC0AF00FC04CF010C04DF052
:1025900011C04EF012C04FF0C2904CC041F04DC07F
:1025A00042F04EC043F04FC044F01200000E281419
:1025B000306E000E2914316E800E2A14326E7F0E9A
:1025C0002B14336E3050311032103310D8A408D091
:1025D000000E286E000E296E000E2A6E000E2B6E65
:1025E000000E2C14306E000E2D14316E800E2E1441
:1025F000326E7F0E2F14336E305031103210331084
:10260000D8A408D0000E2C6E000E2D6E000E2E6E7B
:10261000000E2F6E2BAE09D0286C291ED8B0292AA7
:102620002A1ED8B02A2A800E2B562FAE09D02C6C29
:102630002D1ED8B02D2A2E1ED8B02E2A800E2F5631
:10264000000E281A000E291A000E2A1A800E2B1AC4
:10265000000E2C1A000E2D1A000E2E1A800E2F1AA4
:102660002C50285C2D5029582E502A582F502B586A
:10267000D8B002D0D8901200D8801200DFC00BF082
:10268000E0C00CF0E1C00DF0E2C00EF001C00BF0B4
:1026900002C00CF003C00DF004C00EF00BC005F03A
:1026A0000CC006F00DC007F00EC008F0180E05D0E3
:1026B000D8900832073206320532E82EF9D7055095
:1026C000096E0A6A09500A10D8A419D0D8900B34A0
:1026D000056E0C34066E0D34076E0E34086E055010
:1026E000061007100810D8A405D0000E026E020EC6
:1026F000016E1200000E026E030E016E1200092818
:102700000A10D8A41CD00BC005F00CC006F00DC0F8
:1027100007F00EC008F0090ED890053606360736C9
:102720000836E82EF9D70550061007100810D8A46F
:1027300002D0010E01D0000E016E026A1200000EDE
:10274000026E040E016E1200033404340A6E0A5045
:10275000D8A409D0000E016E000E026E000E036EAA
:10276000000E046E120001C005F002C006F003C0A6
:1027700007F004C008F0200E05D0D89008320732C8
:1027800006320532E82EF9D70550096E038EFF0E8A
:102790000116FF0E0216FF0E0316000E0416960E0B
:1027A0000A5E0AAE0DD00A50800A970FD8A0D2D781
:1027B000D89004320332023201320A3EF9D70DD0EA
:1027C0001F0E0A6407D0C6D7D890013602360336EA
:1027D00004360A060A50D8A4F7D70950D8B408D04E
:1027E000041E031E021E016C000E0222032204229C
:1027F00001C001F002C002F003C003F004C004F005
:10280000120001C008F002C009F003C00AF004C0C1
:102810000BF00506D8A0060605280FE10628D8A467
:102820000CD0000E026E000E016E1200084A092A3A
:102830000A4A0B2A0506D8A0060608C0D9FF09C017
:10284000DAFFDF50D8B41CD00AC0F6FF0BC0F7FF88
:102850000800F5500009D8B413D005500610D8B4BC
:102860000FD008C0D9FF09C0DAFFDF50076E0AC0D9
:10287000F6FF0BC0F7FF0800F5500718D8B4D6D7FD
:1028800008C0D9FF09C0DAFFDF50076E0AC0F6FFA3
:102890000BC0F7FF0800F550075C016E026AD8A074
:1028A0000206120003500410D8B404D003500410E0
:1028B000D8A404D0015020EC19F0120020EE04F04E
:1028C0000350D9260450DA22DE50DE10D8B416D0D8
:1028D00020EE04F00350D9260450DA2210EE02F064
:1028E0000350E1260450E222DE50E65CE650800A06
:1028F000096EDE50800A0958D8B0120020EE02F0AE
:102900000350D9260450DA22DECF05F0DDCF06F0E1
:1029100003C0D9FF04C0DAFFDECF07F0DDCF08F037
:1029200005500724D96E06500820DA6E01C0DFFF7B
:1029300020EE02F00350D9260450DA22DE2A000EDF
:10294000DD2212000001EBA10AD013C00AF014C06E
:102950000BF011C00CF012C00DF0D1EC17F016BE48
:1029600005D015C01AF016C01BF004D0000E1B6E67
:10297000000E1A6E000E196E000E186E0CD0000EAE
:10298000026E200E016E11C003F012C004F052EC72
:1029900014F0184A192A1A50185C1950800A176E38
:1029A0001B50800A1758D8A0EAD70001EBB10AD013
:1029B00013C00AF014C00BF011C00CF012C00DF0DF
:1029C000D1EC17F013C001F014C002F0A8EC18F01D
:1029D0001A500124116E1B500220126E1200000EBC
:1029E0000114096E000E02140A6E800E03140B6EA1
:1029F0007F0E04140C6E09500A100B100C10D8A492
:102A000008D0000E016E000E026E000E036E000E66
:102A1000046E000E0514096E000E06140A6E800E78
:102A200007140B6E7F0E08140C6E09500A100B1061
:102A30000C10D8A408D0000E056E000E066E000E15
:102A4000076E000E086E055001180AE106500218C4
:102A500007E10750031804E108500418D8B402D065
:102A6000D8901200D8801200000E066E04AE06D078
:102A7000036C041ED8B0042A010E066E02AE06D006
:102A8000016C021ED8B0022A010E061A000E086E52
:102A9000000E076E03500410D8B41CD0010E056E52
:102AA00004D0D89003360436052A04AEFAD7D8905D
:102AB000073608360350015C04500258D8A005D0F0
:102AC0000350015E0450025A0780D890043203324A
:102AD000052EEDD70650D8B404D0076C081ED8B028
:102AE000082A07C001F008C002F01200140E01010C
:102AF000B96F790EE82EFED7B92FFCD700D0000EA3
:102B00000101B36F380EB26F05EC18F0290EE82EF4
:102B1000FED700D0000E0101B36F010EB26F05ECBD
:102B200018F0000E0101B36F060EB26F05EC18F03D
:102B3000000E0101B36F0C0EB26F05EC18F0290EF8
:102B4000E82EFED700D09E0E0101B56F060EB66FBF
:102B5000800E5EEC16F0A60E0101B56F060EB66F84
:102B6000C00E5EEC16F01200240EF66E310EF76EFB
:102B7000000EF86E01EE7CF010EE2BF00900F5CFA0
:102B8000EEFFE550E150FAE1000EF66E320EF76E00
:102B9000000EF86E00EEF1F010EE0EF00900F5CF29
:102BA000EEFFE550E150FAE102EE00F0640EEE6A4D
:102BB000E806FDE101EE00F07C0EEE6AE806FDE1BC
:102BC00000EEDBF0160EEE6AE806FDE17F907F92E4
:102BD000000EF86E000119EF19F0000E0101AC6F44
:102BE000A8AF06D0A76DA81FD8B0A82B010EAC6F58
:102BF000AAAF04D0A96DAA1FD8B0AA2BA951AA11B7
:102C0000D8B418D0010EAB6F04D0D890A937AA372A
:102C1000AB2BAAAFFAD7A951A75DAA51A859D8A042
:102C200004D0A951A75FAA51A85BD890AA33A933B1
:102C3000AB2FF1D7AC51D8B404D0A76DA81FD8B032
:102C4000A82BA7C1A7F1A8C1A8F11200000E066E1B
:102C500002AE06D0016C021ED8B0022A010E066E2A
:102C600004AE04D0036C041ED8B0042A0350041030
:102C7000D8B418D0010E056E04D0D89003360436AF
:102C8000052A04AEFAD70350015C04500258D8A0BC
:102C900004D00350015E0450025AD890043203322B
:102CA000052EF1D70650D8B404D0016C021ED8B05E
:102CB000022A01C001F002C002F012000101B86F47
:102CC000B8C1B2F10101B36B05EC18F01AD0B5C16F
:102CD000F6FFB6C1F7FFF86A050EF76403D00800E7
:102CE000F55005D0F6CFE9FFF7CFEAFFEF5001012D
:102CF000B76FB751B26FB36BEDEC17F00101B54B85
:102D0000B62BB5C1F6FFB6C1F7FFF86A050EF7643A
:102D100003D00800F55005D0F6CFE9FFF7CFEAFF62
:102D2000EF500009D8B41200D2D7076E07C001F0E7
:102D3000026A7BEC18F018D004C0F6FF05C0F7FF5C
:102D4000F86A050EF76403D00800F55005D0F6CFF9
:102D5000E9FFF7CFEAFFEF50066E0650016E026AF8
:102D60004DEC18F0044A052A04C0F6FF05C0F7FF31
:102D7000F86A050EF76403D00800F55005D0F6CFC9
:102D8000E9FFF7CFEAFFEF500009D8B41200D4D71B
:102D90007BC0B8F07CC0B9F0000E0001E66F000EF9
:102DA000E56F13D079C061F07AC062F0B80E636E3F
:102DB000000E646E7DC065F07EC066F01EEC08F00B
:102DC00061500001E5276250E623B8C0F6FFB9C0A4
:102DD000F7FF0800F5500009D8A4E4D7E5C079F062
:102DE000E6C07AF01200BE0E0001C66F000EC76F7B
:102DF000BAC0C8F0BBC0C9F0000ECB6F000ECA6FDE
:102E0000000ECD6F000ECC6FC80E796E000E7A6E7C
:102E1000BCC07BF0BDC07CF0C60E7D6E000E7E6E29
:102E2000C8EC16F00001CA51BA25D96ECB51BB21AE
:102E3000DA6E000EDF6E120003C007F004C008F067
:102E400001C009F002C00AF00750056E0850066E76
:102E5000074A082A05C0F6FF06C0F7FFF86A09C04E
:102E6000D9FF0AC0DAFF094A0A2A050EF76403D01F
:102E70000800F55005D0F6CFE9FFF7CFEAFFEF5095
:102E8000DF6EDF50D8B41200DFD7BF0E096EFF0E21
:102E90000A6E07C00BF008C00CF009500B260A5050
:102EA0000C220C5006E11A0E0B5CD8B002D0010EB9
:102EB00001D0000E0D6E0E6A0D500E10D8B406D063
:102EC000200E0710076E0850086E120007C007F0AA
:102ED00008C008F01200720E01012025D96E010E03
:102EE0002121DA6EAECFDFFF720E2025D96E010EE2
:102EF0002121DA6EDF5007EC19F00101204B212B64
:102F000020C1A7F121C1A8F1000EAA6F0A0EA96F76
:102F1000EDEC15F0A7C120F1A8C121F11200000EBF
:102F20002C1A000E2D1A000E2E1A800E2F1A28C0F1
:102F300001F029C002F02AC003F02BC004F02CC01D
:102F400005F02DC006F02EC007F02FC008F0D0EC21
:102F50000BF001C028F002C029F003C02AF004C021
:102F60002BF01200010E076E200E01180210D8B4CB
:102F700014D0F70E036EFF0E046E01C005F002C000
:102F800006F00350052604500622065004E1050E03
:102F9000055CD8A002D0000E076E07C001F0026ADF
:102FA0001200000E106E000E0F6E0BD00EC001F05E
:102FB000026A0CC003F00DC004F052EC14F00F4A8A
:102FC000102A0F500A24D96E10500B20DA6EDF50F1
:102FD0000E6E0E50D8B41200E9D7B2C18CFF8B88A8
:102FE0008B9C080EE82EFED700F08B8C080EE82E86
:102FF000FED700F08B9C040E0101B46FE40EE82EA6
:10300000FED7B42FFCD700F01200B2C18CFF8B9812
:103010008B9C080EE82EFED700F08B8C080EE82E55
:10302000FED700F08B9C040E0101B46FE40EE82E75
:10303000FED7B42FFCD700F01200BF0E036EFF0EB8
:10304000046E01C005F002C006F0035005260450CE
:103050000622065006E11A0E055CD8B002D0010E19
:1030600001D0000E016E026A1200D00E036EFF0E38
:10307000046E01C005F002C006F00350052604509E
:103080000622065006E10A0E055CD8B002D0010EF9
:1030900001D0000E016E026A120001C08CFF8B8805
:1030A0008B9C080EE82EFED700F08B8C080EE82EC5
:1030B000FED700F08B9C040E036EE40EE82EFED7C4
:1030C000032EFCD700D01200015002100310041090
:1030D000D8B408D0000E011A000E021A000E031A0E
:1030E000800E041A01C001F002C002F003C003F018
:1030F00004C004F0120001C08CFF8B988B9C080E5A
:10310000E82EFED700F08B8C080EE82EFED700F0DC
:103110008B9C040E036EE40EE82EFED7032EFCD724
:1031200000D01200286E756C6C29003333134014E4
:10313000AE073FAE47E1BE33331340EC51383F7B1F
:0F31400014AEBE333313403D0A573ED7A3F0BE43
:1031500001C003F002C004F002D0014A022A01C0FB
:10316000D9FF02C0DAFFDF50D8A4F7D70350015CC3
:10317000016E04500258026E120001500302F3CF98
:1031800005F0F4CF06F001500402F3500626025079
:103190000302F350062605C001F006C002F012003B
:1031A0001CEC19F0EDEC18F015EC19F076EC15F0BC
:1031B0001FEC19F0F7EC18F0DFEC18F01200CD8ED0
:1031C000CD50CF0B2009CD6ECD809E909D809F80ED
:1031D000FDC0CEFFFEC0CFFF12000D0EC16E000E6F
:1031E000946E000E956E9390030E926E12000D0E6B
:1031F000C16E940EC06E000EC46E000EC36E12003F
:10320000000020410400020001000100DB0B01016D
:10321000A76FACA2FED7A7C1ADFF1200000E026ED1
:10322000010E016E7BEC18F01200D38CD38AD39878
:103230001200D0EC18F0FFD7D08EF28E12001200E0
:0232400012007A
:020000040020DA
:08000000FFFFFFFFFFFFFFFF00
:020000040030CA
:0E000000FF881F00FF8381FF0FC00FE00F403D
:00000001FF
