:020000040000FA
:0400000035EF00F0E8
:0600080073829FED2EF053
:100018007380D8CF07F0E8CF08F0E0CF09F0D9CF48
:100028000AF0DACF0BF09EAA07D0ABA203D0AB98A8
:1000380000F0AB8875EC2DF09EA007D06F4A702AAF
:10004800F30ECF6ECA0ECE6E9E900BC0DAFF0AC0BA
:10005800D9FF09C0E0FF08C0E8FF07C0D8FF7390C8
:0600680010004FEF2CF028
:100600000000000000DCCFD1350000000000C01564
:100610003F6042A20D70A5EC363BAAB83F4F38763A
:100620003F3CAA38338CBEBF350072313F1872315F
:100630003F4CBB31330EEADDB555B38A38610B361A
:10064000BBABAA2A3E42F1533E55326C3E05A38B0A
:100650003EABAAAA3EB76DDB3E9A99193F6042A213
:100660000DCAF249710000804B0000803F0000C0BD
:100670003F00AAB83FC623F6B80040763F6D6F6EC4
:1006800069746F7200737461727400252E31660094
:10069000252E326600494E46004E414E00696E6678
:0906A000006E616E006C66000042
:1006AA0056C0B8F157C0B9F158C0BAF159C0BBF138
:1006BA00B8C160F1B9C161F1BAC162F1BBC163F1FC
:1006CA005AC0B8F15BC0B9F15CC0BAF15DC0BBF108
:1006DA00B8C17CF1B9C17DF1BAC17EF1BBC17FF16C
:1006EA00FF0E01016015A86FFF0E6115A96FFF0EBD
:1006FA006215AA6F7F0E6315AB6FFF0E7C15906FA4
:10070A00FF0E7D15916FFF0E7E15926F7F0E7F157E
:10071A00936F9051911192119311D8A409D0000EA0
:10072A00566E000E576E800E586E3F0E596E1200AE
:10073A00800E62190FE13F0E631960116111D8A48E
:10074A0009D0000E566E000E576E800E586E3F0E80
:10075A00596E1200ABBF09D0A805000EA959800E28
:10076A00AA597F0EAB59D8B00BD093BF24D09005AD
:10077A00000E9159800E92597F0E9359D8A01BD022
:10078A0056C00CF057C00DF058C00EF059C00FF00B
:10079A005AC010F05BC011F05CC012F05DC013F0DB
:1007AA00DEEC20F00CC056F00DC057F00EC058F029
:1007BA000FC059F01200000E506F000E516F000E5C
:1007CA00526F000E536F63AF90D093BF0ED0800E5E
:1007DA00925D4B0E9359D8A008D0020E506F000EAE
:1007EA00516F000E526F000E7FD093BF7ED0800EE5
:1007FA00925D3F0E9359D8A078D0170E5E6E90C1C5
:10080A005FF091C160F092C161F093C162F05E66DF
:10081A0001D007D062346232613260325F325E2EBA
:10082A00F6D7810E5F240101A06FFF0E6020A16F31
:10083A00FF0E6120A26FFF0E6220A36FA05117085E
:10084A005E6E90C15FF091C160F092C161F093C198
:10085A0062F05E6601D007D0623462326132603281
:10086A005F325E2EF6D75FC0ACF160C0ADF161C0F9
:10087A00AEF162C0AFF10101A05117085E6EACC1C2
:10088A005FF0ADC160F0AEC161F0AFC162F05E2A47
:10089A0005D0D8905F366036613662365E2EF9D75B
:1008AA0090515F1822E1915160181FE1925161182D
:1008BA001CE193516218D8A418D0010EAC155E6ED3
:1008CA00000EAD155F6E000EAE15606E000EAF1510
:1008DA00616E5E500208506F000E5F54516F000E39
:1008EA006054526F000E6154536F800E921955E195
:1008FA007F0E931990119111D8A44FD0800EAA1986
:10090A000FE13F0EAB19A811A911D8A409D0000E06
:10091A00566E000E576E800E586E3F0E596E1200BC
:10092A00ABBF1DD0A805000EA959800EAA593F0ECB
:10093A00AB59D8A014D07FAF09D0000E566E000E66
:10094A00576E000E586E000E596E12005AC056F0BD
:10095A005BC057F05CC058F05DC059F012007FAF21
:10096A0013D05AC00CF05BC00DF05CC00EF05DC035
:10097A000FF039EC2EF00CC056F00DC057F00EC037
:10098A0058F00FC059F01200000E566E000E576E46
:10099A00000E586E000E596E1200800E92192CE14C
:1009AA003F0E931990119111D8A426D07FAF1BD076
:1009BA00000E3D6E000E3E6E800E3F6E3F0E406E84
:1009CA0056C041F057C042F058C043F059C044F0F5
:1009DA0064EC22F03DC056F03EC057F03FC058F0DC
:1009EA0040C059F0120056C056F057C057F058C0D0
:1009FA0058F059C059F01200400E7F197C117D1130
:100A0A007E11D8A41BD056C01CF057C01DF058C088
:100A1A001EF059C01FF056C020F057C021F058C030
:100A2A0022F059C023F035EC1FF01CC056F01DC04F
:100A3A0057F01EC058F01FC059F012003F0E7F1920
:100A4A007C117D117E11D8B463BF13D056C049F012
:100A5A0057C04AF058C04BF059C04CF045EC1BF057
:100A6A0049C056F04AC057F04BC058F04CC059F034
:100A7A00120056C00CF057C00DF058C00EF059C005
:100A8A000FF0EFEC2DF00CC070F10DC071F10EC03B
:100A9A0072F10FC073F1800E0101AA1906E17F0EEF
:100AAA00AB19A811A911D8B40FD0A851A911AA112C
:100ABA00AB11D8B409D0800EAA1905E13F0EAB19C3
:100ACA00A811A911D8A4A5D070C1B4F171C1B5F10A
:100ADA0072C1B6F173C1B7F17FAF1AD0000E3D6E85
:100AEA00000E3E6E800E3F6E3F0E406EB4C141F066
:100AFA00B5C142F0B6C143F0B7C144F064EC22F08C
:100B0A003DC0B4F13EC0B5F13FC0B6F140C0B7F147
:100B1A00010163AF75D0000EA8255E6E000EA921F3
:100B2A005F6E800EAA21606EC00EAB21616E5051BD
:100B3A005E10626E51515F10636E52516010646EA6
:100B4A0053516110656E6250631064106510D8A429
:100B5A003FD0B4C139F0B5C13AF0B6C13BF0B7C124
:100B6A003CF0B4C135F0B5C136F0B6C137F0B7C103
:100B7A0038F052EC2DF035C03DF036C03EF037C0AB
:100B8A003FF038C040F0B4C139F0B5C13AF0B6C14F
:100B9A003BF0B7C13CF0B4C135F0B5C136F0B6C1CF
:100BAA0037F0B7C138F052EC2DF035C041F036C0FD
:100BBA0042F037C043F038C044F064EC22F03DC044
:100BCA00B4F13EC0B5F13FC0B6F140C0B7F118D09C
:100BDA005005511152115311D8A412D0B4C10CF0BE
:100BEA00B5C10DF0B6C10EF0B7C10FF039EC2EF059
:100BFA000CC0B4F10DC0B5F10EC0B6F10FC0B7F11B
:100C0A00B4C156F0B5C157F0B6C158F0B7C159F0E2
:100C1A001200000E886F000E896F800E8A6F3F0ED9
:100C2A008B6F63AF53D05051511152115311D8A445
:100C3A003FD056C039F057C03AF058C03BF059C0BF
:100C4A003CF056C035F057C036F058C037F059C09E
:100C5A0038F052EC2DF035C03DF036C03EF037C0CA
:100C6A003FF038C040F056C039F057C03AF058C08B
:100C7A003BF059C03CF056C035F057C036F058C06A
:100C8A0037F059C038F052EC2DF035C041F036C07B
:100C9A0042F037C043F038C044F064EC22F03DC063
:100CAA0056F03EC057F03FC058F040C059F012000D
:100CBA005005511152115311D8A408D0000E886F53
:100CCA00000E896F800E8A6FBF0E8B6F93BF6BD237
:100CDA009005000E9159000E92594D0E9359D8A0C5
:100CEA0062D2ABBF0AD0F80EA85DFF0EA9597F0EDB
:100CFA00AA593F0EAB59D8B06CD07FBF35D0600E21
:100D0A00206E420E216EA20E226E0D0E236E88C137
:100D1A001CF089C11DF08AC11EF08BC11FF035EC91
:100D2A001FF01CC0A4F11DC0A5F11EC0A6F11FC072
:100D3A00A7F1A4C11CF0A5C11DF0A6C11EF0A7C150
:100D4A001FF0600E206E420E216EA20E226E0D0E54
:100D5A00236E35EC1FF01CC056F01DC057F01EC0A4
:100D6A0058F01FC059F01200CA0E206EF20E216E02
:100D7A00490E226E710E236E88C11CF089C11DF0C6
:100D8A008AC11EF08BC11FF035EC1FF01CC0A4F104
:100D9A001DC0A5F11EC0A6F11FC0A7F1A4C11CF079
:100DAA00A5C11DF0A6C11EF0A7C11FF0CA0E206E74
:100DBA00F20E216E490E226E710E236E35EC1FF073
:100DCA001CC056F01DC057F01EC058F01FC059F085
:100DDA001200ABBF7DD0080EA85D000EA959800E87
:100DEA00AA593F0EAB59D8A073D07FBF07D07F5105
:100DFA007E117D1138E17C05D8B035D0600E206EA9
:100E0A00420E216EA20E226E0D0E236E88C11CF0B8
:100E1A0089C11DF08AC11EF08BC11FF035EC1FF08D
:100E2A001CC0A4F11DC0A5F11EC0A6F11FC0A7F1E8
:100E3A00A4C11CF0A5C11DF0A6C11EF0A7C11FF0D8
:100E4A00600E206E420E216EA20E226E0D0E236ED1
:100E5A0035EC1FF01CC056F01DC057F01EC058F0EC
:100E6A001FC059F01200CA0E206EF20E216E490EF2
:100E7A00226E710E236E88C11CF089C11DF08AC1D1
:100E8A001EF08BC11FF035EC1FF01CC0A4F11DC071
:100E9A00A5F11EC0A6F11FC0A7F1A4C11CF0A5C1EF
:100EAA001DF0A6C11EF0A7C11FF0CA0E206EF20ED9
:100EBA00216E490E226E710E236E35EC1FF01CC096
:100ECA0056F01DC057F01EC058F01FC059F012004E
:100EDA0070C10CF071C10DF072C10EF073C10FF048
:100EEA00000E106E000E116E800E126EBF0E136E83
:100EFA00DEEC20F00CC0B0F10DC0B1F10EC0B2F1C1
:100F0A000FC0B3F1000E206E000E216E800E226E0D
:100F1A003E0E236EB0C11CF0B1C11DF0B2C11EF06D
:100F2A00B3C11FF035EC1FF01CC039F01DC03AF0F8
:100F3A001EC03BF01FC03CF0AB0E356EAA0E366EDB
:100F4A00AA0E376E3E0E386E52EC2DF035C0A4F163
:100F5A0036C0A5F137C0A6F138C0A7F1B0C120F05C
:100F6A00B1C121F0B2C122F0B3C123F0B0C11CF06B
:100F7A00B1C11DF0B2C11EF0B3C11FF035EC1FF0B4
:100F8A001CC054F11DC055F11EC056F11FC057F1C7
:100F9A00B0C120F0B1C121F0B2C122F0B3C123F037
:100FAA00A4C11CF0A5C11DF0A6C11EF0A7C11FF067
:100FBA0035EC1FF01CC039F01DC03AF01EC03BF0E2
:100FCA001FC03CF0000E356E000E366E000E376EF6
:100FDA003F0E386E52EC2DF035C048F136C049F15B
:100FEA0037C04AF138C04BF154C11CF055C11DF04D
:100FFA0056C11EF057C11FF048C120F049C121F067
:10100A004AC122F04BC123F035EC1FF01CC044F159
:10101A001DC045F11EC046F11FC047F1B0C11CF00A
:10102A00B1C11DF0B2C11EF0B3C11FF0000E206E97
:10103A00AA0E216EB80E226E3F0E236E35EC1FF0FB
:10104A001CC074F11DC075F11EC076F11FC077F186
:10105A00700E206EA50E216EEC0E226E360E236ED9
:10106A00B0C11CF0B1C11DF0B2C11EF0B3C11FF076
:10107A0035EC1FF01CC035F01DC036F01EC037F02D
:10108A001FC038F03B0E206EAA0E216EB80E226EDB
:10109A003F0E236E44C11CF045C11DF046C11EF02F
:1010AA0047C11FF035EC1FF01CC039F01DC03AF0E3
:1010BA001EC03BF01FC03CF052EC2DF035C078F159
:1010CA0036C079F137C07AF138C07BF174C10CF0BF
:1010DA0075C10DF076C10EF077C10FF078C110F02E
:1010EA0079C111F07AC112F07BC113F0DEEC20F065
:1010FA000CC084F10DC085F10EC086F10FC087F1D6
:10110A0084C1B8F185C1B9F186C1BAF187C1BBF111
:10111A00B8C194F1B9C195F1BAC196F1BBC197F1C1
:10112A00000E01019415B86FF00E9515B96FFF0EF8
:10113A009615BA6FFF0E9715BB6FB8C184F1B9C186
:10114A0085F1BAC186F1BBC187F174C139F075C1A5
:10115A003AF076C13BF077C13CF084C135F085C1E5
:10116A0036F086C137F087C138F052EC2DF035C021
:10117A0098F136C099F137C09AF138C09BF178C11D
:10118A0035F079C136F07AC137F07BC138F098C1B1
:10119A0039F099C13AF09AC13BF09BC13CF052EC4C
:1011AA002DF0F9EF0FF0000E806F000E816F000E28
:1011BA00826F000E836FABBF06D0AB5137E1800E52
:1011CA00AA5DD8B033D070C11CF071C11DF072C1D4
:1011DA001EF073C11FF0000E206E000E216E800EED
:1011EA00226E4B0E236E35EC1FF01CC070F11DC031
:1011FA0071F11EC072F11FC073F1E80E0101802760
:10120A00FF0E8123FF0E8223FF0E832370C1B8F1E4
:10121A0071C1B9F172C1BAF173C1BBF1B8C1A8F118
:10122A00B9C1A9F1BAC1AAF1BBC1ABF1170E5E6E81
:10123A00A8C15FF0A9C160F0AAC161F0ABC162F0B8
:10124A005E6601D007D062346232613260325F3248
:10125A005E2EF6D7810E5F24636EFF0E6020646EE9
:10126A00FF0E6120656EFF0E6220666E63500101FB
:10127A008027645081236550822366508323FF0EA2
:10128A00A815AC6FFF0EA915AD6F7F0EAA15AE6F2C
:10129A00000EAB15AF6F000EAC11A86F000EAD11AA
:1012AA00A96F800EAE11AA6F3F0EAF11AB6FAFBF21
:1012BA000AD0AF510AE1720EAC5DC40EAD591C0ED4
:1012CA00AE59D8B002D0000E0DD0AFBF0AD0AF5180
:1012DA0011E1D70EAC5DB30EAD595D0EAE59D8B063
:1012EA0009D0010EA06F000EA16F000EA26F000EB2
:1012FA00A36F16D0000EA06F000EA16F000EA26F92
:10130A00000EA36F010E8027000E81238223832300
:10131A00000EA827000EA923800EAA23FF0EAB23D6
:10132A00A8C1B8F1A9C1B9F1AAC1BAF1ABC1BBF15F
:10133A00B8C170F1B9C171F1BAC172F1BBC173F12F
:10134A0070C135F071C136F072C137F073C138F02F
:10135A00A0C15EF0A1C15FF0D8905E365F36D8902A
:10136A005E365F36690E5E24F66E060E5F20F76EF5
:10137A000900F5CF39F00900F5CF3AF00900F5CFA9
:10138A003BF00A00F5CF3CF052EC2DF035C074F179
:10139A0036C075F137C076F138C077F1000E3D6E70
:1013AA00000E3E6E800E3F6E3F0E406E70C110F012
:1013BA0071C111F072C112F073C113F0A0C15EF0D5
:1013CA00A1C15FF0D8905E365F36D8905E365F3640
:1013DA00690E5E24F66E060E5F20F76E0900F5CFE1
:1013EA000CF00900F5CF0DF00900F5CF0EF00A0058
:1013FA00F5CF0FF0DEEC20F00CC041F00DC042F04A
:10140A000EC043F00FC044F064EC22F03DC078F106
:10141A003EC079F13FC07AF140C07BF174C11CF043
:10142A0075C11DF076C11EF077C11FF078C120F09A
:10143A0079C121F07AC122F07BC123F035EC1FF08B
:10144A001CC05CF11DC05DF11EC05EF11FC05FF1E2
:10145A005CC16CF15DC16DF15EC16EF15FC16FF18E
:10146A006CC1B8F16DC1B9F16EC1BAF16FC1BBF10E
:10147A00B8C194F1B9C195F1BAC196F1BBC197F15E
:10148A00000E01019415B86FF00E9515B96FFF0E95
:10149A009615BA6FFF0E9715BB6FB8C16CF1B9C13B
:1014AA006DF1BAC16EF1BBC16FF1A8C15EF0A9C1FD
:1014BA005FF0AAC160F0ABC161F0613461326032A1
:1014CA005F325E32000E5E14626EF00E5F14636E5F
:1014DA00FF0E6014646EFF0E6114656E000E6210DA
:1014EA00946F000E6310956F000E6410966F200EB5
:1014FA006510976FA0C15EF0A1C15FF0A2C160F054
:10150A00A3C161F0150ED8905E365F36603661363B
:10151A00E82EF9D794515E24626E95515F20636E6E
:10152A0096516020646E97516120656E000E6224A8
:10153A00B86F000E6320B96F400E6420BA6F000EB8
:10154A006520BB6FB8C168F1B9C169F1BAC16AF166
:10155A00BBC16BF1A0C15EF0A1C15FF0D8905E364D
:10156A005F36D8905E365F36690E5E24F66E060EDA
:10157A005F20F76E0900F5CF39F00900F5CF3AF090
:10158A000900F5CF3BF00A00F5CF3CF068C135F011
:10159A0069C136F06AC137F06BC138F052EC2DF0F0
:1015AA0035C098F136C099F137C09AF138C09BF12D
:1015BA0070C135F071C136F072C137F073C138F0BD
:1015CA0098C139F099C13AF09AC13BF09BC13CF0FD
:1015DA0052EC2DF035C034F136C035F137C036F152
:1015EA0038C037F168C120F069C121F06AC122F020
:1015FA006BC123F06CC11CF06DC11DF06EC11EF0F1
:10160A006FC11FF035EC1FF01CC039F01DC03AF055
:10161A001EC03BF01FC03CF074C135F075C136F0F6
:10162A0076C137F077C138F052EC2DF035C098F119
:10163A0036C099F137C09AF138C09BF134C120F015
:10164A0035C121F036C122F037C123F06CC11CF03C
:10165A006DC11DF06EC11EF06FC11FF035EC1FF099
:10166A001CC039F01DC03AF01EC03BF01FC03CF050
:10167A0098C135F099C136F09AC137F09BC138F05C
:10168A0052EC2DF035C054F136C055F137C056F141
:10169A0038C057F154C11CF055C11DF056C11EF097
:1016AA0057C11FF078C120F079C121F07AC122F028
:1016BA007BC123F035EC1FF01CC030F11DC031F1A5
:1016CA001EC032F11FC033F15CC11CF05DC11DF0B8
:1016DA005EC11EF05FC11FF05CC120F05DC121F048
:1016EA005EC122F05FC123F035EC1FF01CC08CF103
:1016FA001DC08DF11EC08EF11FC08FF1550E106EE8
:10170A00320E116E6C0E126E3E0E136E420E206E6B
:10171A00F10E216E530E226E3E0E236E8CC11CF00A
:10172A008DC11DF08EC11EF08FC11FF035EC1FF068
:10173A001CC00CF01DC00DF01EC00EF01FC00FF033
:10174A00DEEC20F00CC0A4F10DC0A5F10EC0A6F18C
:10175A000FC0A7F1050E106EA30E116E8B0E126E3E
:10176A003E0E136E8CC120F08DC121F08EC122F085
:10177A008FC123F0A4C11CF0A5C11DF0A6C11EF0A3
:10178A00A7C11FF035EC1FF01CC00CF01DC00DF0F6
:10179A001EC00EF01FC00FF0DEEC20F00CC054F19A
:1017AA000DC055F10EC056F10FC057F1AB0E106EB9
:1017BA00AA0E116EAA0E126E3E0E136E8CC120F086
:1017CA008DC121F08EC122F08FC123F054C11CF0CB
:1017DA0055C11DF056C11EF057C11FF035EC1FF060
:1017EA001CC00CF01DC00DF01EC00EF01FC00FF083
:1017FA00DEEC20F00CC048F10DC049F10EC04AF1F0
:10180A000FC04BF1B70E106E6D0E116EDB0E126E1D
:10181A003E0E136E8CC120F08DC121F08EC122F0D4
:10182A008FC123F048C11CF049C11DF04AC11EF006
:10183A004BC11FF035EC1FF01CC00CF01DC00DF0A1
:10184A001EC00EF01FC00FF0DEEC20F00CC038F105
:10185A000DC039F10EC03AF10FC03BF19A0E106E6D
:10186A00990E116E190E126E3F0E136E8CC120F076
:10187A008DC121F08EC122F08FC123F038C11CF036
:10188A0039C11DF03AC11EF03BC11FF035EC1FF003
:10189A001CC00CF01DC00DF01EC00EF01FC00FF0D2
:1018AA00DEEC20F00CC000F10DC001F10EC002F117
:1018BA000FC003F18CC120F08DC121F08EC122F03E
:1018CA008FC123F08CC11CF08DC11DF08EC11EF09A
:1018DA008FC11FF035EC1FF01CC004F11DC005F1CB
:1018EA001EC006F11FC007F100C11CF001C11DF0A6
:1018FA0002C11EF003C11FF004C120F005C121F08E
:10190A0006C122F007C123F035EC1FF01CC04CF1D0
:10191A001DC04DF11EC04EF11FC04FF130C120F065
:10192A0031C121F032C122F033C123F05CC110F081
:10193A005DC111F05EC112F05FC113F06CC10CF011
:10194A006DC10DF06EC10EF06FC10FF0DEEC20F02C
:10195A000CC01CF00DC01DF00EC01EF00FC01FF011
:10196A0035EC1FF01CC058F11DC059F11EC05AF1C8
:10197A001FC05BF14CC10CF04DC10DF04EC10EF011
:10198A004FC10FF058C110F059C111F05AC112F0ED
:10199A005BC113F0DEEC20F00CC04CF10DC04DF130
:1019AA000EC04EF10FC04FF16CC11CF06DC11DF09D
:1019BA006EC11EF06FC11FF06CC120F06DC121F025
:1019CA006EC122F06FC123F035EC1FF01CC08CF100
:1019DA001DC08DF11EC08EF11FC08FF1000E106E5A
:1019EA00000E116E400E126E400E136E8CC10CF07A
:1019FA008DC10DF08EC10EF08FC10FF0DEEC20F01C
:101A0A000CC058F10DC059F10EC05AF10FC05BF16C
:101A1A0058C10CF059C10DF05AC10EF05BC10FF05C
:101A2A004CC110F04DC111F04EC112F04FC113F06C
:101A3A00DEEC20F00CC068F10DC069F10EC06AF14D
:101A4A000FC06BF168C1B8F169C1B9F16AC1BAF1E5
:101A5A006BC1BBF1B8C194F1B9C195F1BAC196F1A4
:101A6A00BBC197F1000E01019415B86FF00E9515E0
:101A7A00B96FFF0E9615BA6FFF0E9715BB6FB8C1F7
:101A8A0068F1B9C169F1BAC16AF1BBC16BF1000E63
:101A9A00106E000E116E400E126EC00E136E68C1EB
:101AAA000CF069C10DF06AC10EF06BC10FF0DEECEB
:101ABA0020F00CC03CF10DC03DF10EC03EF10FC04C
:101ACA003FF18CC139F08DC13AF08EC13BF08FC124
:101ADA003CF03CC135F03DC136F03EC137F03FC164
:101AEA0038F052EC2DF035C040F136C041F137C024
:101AFA0042F138C043F14CC135F04DC136F04EC108
:101B0A0037F04FC138F040C139F041C13AF042C113
:101B1A003BF043C13CF052EC2DF035C034F136C0F5
:101B2A0035F137C036F138C037F16CC11CF06DC1E0
:101B3A001DF06EC11EF06FC11FF068C120F069C1AF
:101B4A0021F06AC122F06BC123F035EC1FF01CC0F2
:101B5A0074F11DC075F11EC076F11FC077F168C11E
:101B6A0020F069C121F06AC122F06BC123F030C1B3
:101B7A001CF031C11DF032C11EF033C11FF035EC2B
:101B8A001FF01CC00CF01DC00DF01EC00EF01FC0CF
:101B9A000FF05CC120F05DC121F05EC122F05FC18F
:101BAA0023F034C11CF035C11DF036C11EF037C117
:101BBA001FF035EC1FF01CC010F01DC011F01EC044
:101BCA0012F01FC013F0DEEC20F00CC078F10DC04B
:101BDA0079F10EC07AF10FC07BF174C10CF075C1B6
:101BEA000DF076C10EF077C10FF078C110F079C10F
:101BFA0011F07AC112F07BC113F0DEEC20F00CC0B8
:101C0A009CF10DC09DF10EC09EF10FC09FF19CC1C9
:101C1A00B8F19DC1B9F19EC1BAF19FC1BBF1B8C17A
:101C2A0094F1B9C195F1BAC196F1BBC197F1000E11
:101C3A0001019415B86FF00E9515B96FFF0E961540
:101C4A00BA6FFF0E9715BB6FB8C19CF1B9C19DF170
:101C5A00BAC19EF1BBC19FF174C139F075C13AF0A6
:101C6A0076C13BF077C13CF09CC135F09DC136F09E
:101C7A009EC137F09FC138F052EC2DF035C098F173
:101C8A0036C099F137C09AF138C09BF178C135F066
:101C9A0079C136F07AC137F07BC138F098C139F092
:101CAA0099C13AF09AC13BF09BC13CF052EC2DF03D
:101CBA0035C064F136C065F137C066F138C067F1E6
:101CCA009CC11CF09DC11DF09EC11EF09FC11FF05A
:101CDA00000E206E400E216E760E226E3F0E236E8F
:101CEA0035EC1FF01CC020F11DC021F11EC022F1ED
:101CFA001FC023F14F0E206E380E216E760E226E13
:101D0A003F0E236E64C11CF065C11DF066C11EF052
:101D1A0067C11FF035EC1FF01CC010F01DC011F098
:101D2A001EC012F01FC013F0C60E206E230E216EC5
:101D3A00F60E226EB80E236E9CC11CF09DC11DF0DA
:101D4A009EC11EF09FC11FF035EC1FF01CC00CF0A5
:101D5A001DC00DF01EC00EF01FC00FF0DEEC20F00B
:101D6A000CC058F10DC059F10EC05AF10FC05BF109
:101D7A0058C10CF059C10DF05AC10EF05BC10FF0F9
:101D8A00A0C15EF0A1C15FF0D8905E365F36D890F0
:101D9A005E365F36010E5E24F66E060E5F20F76E23
:101DAA000900F5CF10F00900F5CF11F00900F5CFC1
:101DBA0012F00A00F5CF13F0DEEC20F00CC024F18B
:101DCA000DC025F10EC026F10FC027F180C10CF01D
:101DDA0081C10DF082C10EF083C10FF0010EAFEC8C
:101DEA0027F00CC0B0F10DC0B1F10EC0B2F10FC0B6
:101DFA00B3F124C110F025C111F026C112F027C198
:101E0A0013F020C10CF021C10DF022C10EF023C144
:101E1A000FF0DEEC20F00CC058F10DC059F10EC0E5
:101E2A005AF10FC05BF1A0C15EF0A1C15FF0D8907A
:101E3A005E365F36D8905E365F36090E5E24F66EE1
:101E4A00060E5F20F76E0900F5CF10F00900F5CFF6
:101E5A0011F00900F5CF12F00A00F5CF13F058C1BE
:101E6A000CF059C10DF05AC10EF05BC10FF0DEEC57
:101E7A0020F00CC008F10DC009F10EC00AF10FC024
:101E8A000BF108C10CF009C10DF00AC10EF00BC12B
:101E9A000FF0B0C110F0B1C111F0B2C112F0B3C16C
:101EAA0013F0DEEC20F00CC084F10DC085F10EC0F9
:101EBA0086F10FC087F184C1B8F185C1B9F186C135
:101ECA00BAF187C1BBF1B8C194F1B9C195F1BAC1F0
:101EDA0096F1BBC197F1000E01019415B86FF00E8F
:101EEA009515B96FFF0E9615BA6FFF0E9715BB6F52
:101EFA00B8C184F1B9C185F1BAC186F1BBC187F114
:101F0A00B0C139F0B1C13AF0B2C13BF0B3C13CF053
:101F1A0084C135F085C136F086C137F087C138F003
:101F2A0052EC2DF035C098F136C099F137C09AF1CC
:101F3A0038C09BF1A0C15EF0A1C15FF0D8905E36B7
:101F4A005F36D8905E365F36090E5E24F66E060E50
:101F5A005F20F76E0900F5CF39F00900F5CF3AF0A6
:101F6A000900F5CF3BF00A00F5CF3CF098C135F0F7
:101F7A0099C136F09AC137F09BC138F052EC2DF076
:101F8A0035C040F136C041F137C042F138C043F1A3
:101F9A0020C139F021C13AF022C13BF023C13CF003
:101FAA0040C135F041C136F042C137F043C138F083
:101FBA0052EC2DF035C00CF136C00DF137C00EF1E0
:101FCA0038C00FF124C135F025C136F026C137F0EB
:101FDA0027C138F00CC139F00DC13AF00EC13BF0FF
:101FEA000FC13CF052EC2DF035C01CF136C01DF18A
:101FFA0037C01EF138C01FF15AC0B8F15BC0B9F141
:10200A005CC0BAF15DC0BBF1B8C194F1B9C195F138
:10201A00BAC196F1BBC197F1000E01019415B86FD0
:10202A00F00E9515B96FFF0E9615BA6FFF0E97153C
:10203A00BB6FB8C128F1B9C129F1BAC12AF1BBC134
:10204A002BF184C120F085C121F086C122F087C11D
:10205A0023F028C139F029C13AF02AC13BF02BC13B
:10206A003CF05AC035F05BC036F05CC037F05DC05A
:10207A0038F052EC2DF035C01CF036C01DF037C0D8
:10208A001EF038C01FF035EC1FF01CC010F11DC047
:10209A0011F11EC012F11FC013F110C10CF011C1D1
:1020AA000DF012C10EF013C10FF01CC120F01DC1BA
:1020BA0021F01EC122F01FC123F05AC01CF05BC0E0
:1020CA001DF05CC01EF05DC01FF035EC1FF01CC097
:1020DA0010F01DC011F01EC012F01FC013F0DEEC8C
:1020EA0020F00CC064F10DC065F10EC066F10FC09E
:1020FA0067F128C11CF029C11DF02AC11EF02BC1AD
:10210A001FF084C120F085C121F086C122F087C169
:10211A0023F035EC1FF01CC09CF11DC09DF11EC0C0
:10212A009EF11FC09FF164C10CF065C10DF066C13C
:10213A000EF067C10FF09CC110F09DC111F09EC155
:10214A0012F09FC113F0DEEC20F00CC0B4F10DC008
:10215A00B5F10EC0B6F10FC0B7F1B4C1B8F1B5C14F
:10216A00B9F1B6C1BAF1B7C1BBF1B8C1ACF1B9C1E5
:10217A00ADF1BAC1AEF1BBC1AFF10101AFBF3ED003
:10218A00AC05000EAD59000EAE59430EAF59D8A09A
:10219A0035D0CA0E206EF20E216E490E226E710ED5
:1021AA00236E88C11CF089C11DF08AC11EF08BC143
:1021BA001FF035EC1FF01CC0A4F11DC0A5F11EC014
:1021CA00A6F11FC0A7F1A4C11CF0A5C11DF0A6C1AC
:1021DA001EF0A7C11FF0CA0E206EF20E216E490E24
:1021EA00226E710E236E35EC1FF01CC056F01DC016
:1021FA0057F01EC058F01FC059F01200430EAF1915
:10220A00AC11AD11AE11D8A46DD09CC139F09DC1ED
:10221A003AF09EC13BF09FC13CF0B4C135F0B5C164
:10222A0036F0B6C137F0B7C138F052EC2DF035C0F0
:10223A003DF036C03EF037C03FF038C040F03C0EAB
:10224A00106EAA0E116E380E126E330E136E64C122
:10225A000CF065C10DF066C10EF067C10FF0DEEC3F
:10226A0020F00CC041F00DC042F00EC043F00FC088
:10227A0044F0E8EC28F0D8B0E5D0CA0E206EF20E91
:10228A00216E490E226E710E236E88C11CF089C11F
:10229A001DF08AC11EF08BC11FF035EC1FF01CC067
:1022AA00A4F11DC0A5F11EC0A6F11FC0A7F1A4C1CB
:1022BA001CF0A5C11DF0A6C11EF0A7C11FF0CA0ED1
:1022CA00206EF20E216E490E226E710E236E35ECCF
:1022DA001FF01CC056F01DC057F01EC058F01FC09A
:1022EA0059F01200FF0EAC155E6EFF0EAD155F6E53
:1022FA00FF0EAE15606E7F0EAF15616E61BE3ED0E9
:10230A005E04000E5F58160E6058430E6158D8A03E
:10231A0035D0600E206E420E216EA20E226E0D0E78
:10232A00236E88C11CF089C11DF08AC11EF08BC1C1
:10233A001FF035EC1FF01CC0A4F11DC0A5F11EC092
:10234A00A6F11FC0A7F1A4C11CF0A5C11DF0A6C12A
:10235A001EF0A7C11FF0600E206E420E216EA20E63
:10236A00226E0D0E236E35EC1FF01CC056F01DC0F8
:10237A0057F01EC058F01FC059F01200160EAE19C1
:10238A0061E1C30EAF19AC11AD11D8A45BD09CC1E9
:10239A0039F09DC13AF09EC13BF09FC13CF0B4C1F7
:1023AA0035F0B5C136F0B6C137F0B7C138F052ECE6
:1023BA002DF035C03DF036C03EF037C03FF038C092
:1023CA0040F064C141F065C142F066C143F067C1A3
:1023DA0044F0E8EC28F0D8A035D0600E206E420E0A
:1023EA00216EA20E226E0D0E236E88C11CF089C1C9
:1023FA001DF08AC11EF08BC11FF035EC1FF01CC006
:10240A00A4F11DC0A5F11EC0A6F11FC0A7F1A4C169
:10241A001CF0A5C11DF0A6C11EF0A7C11FF0600ED9
:10242A00206E420E216EA20E226E0D0E236E35EC28
:10243A001FF01CC056F01DC057F01EC058F01FC038
:10244A0059F01200FF0E0101AC152C6FFF0EAD15ED
:10245A002D6FFF0EAE152E6F7F0EAF152F6F170E55
:10246A005E6E2CC15FF02DC160F02EC161F02FC1EC
:10247A0062F05E6601D007D0623462326132603245
:10248A005F325E2EF6D7810E5F240101A06FFF0E28
:10249A006020A16FFF0E6120A26FFF0E6220A36F62
:1024AA00000E806F000E816F000E826F000E836F28
:1024BA002FBFD8D02C05000E2D59000E2E593F0ED5
:1024CA002F59D8A0CFD0A0C15EF0010E5E26000E13
:1024DA005F6E000E606E800E616E000E626E5E664A
:1024EA0001D007D062346232613260325F325E2ECE
:1024FA00F6D70101AC515F24806FAD516020816F26
:10250A00AE516120826FAF516220836F810E5E6E81
:10251A00FF0E5F6EFF0E606EFF0E616E170E626E2B
:10252A0080C163F081C164F082C165F083C166F045
:10253A00626601D007D0663466326532643263322D
:10254A00622EF6D763505E240101A06F000E5F2051
:10255A00A16F000E6020A26F000E6120A36FA0C1C0
:10256A005EF0FF0E5F6EFF0E606E7F0E616E000EF4
:10257A00626E5E6601D007D06234623261326032C6
:10258A005F325E2EF6D75F1C636E601C646E611C40
:10259A00656E621C666E010180516314B86F8151C9
:1025AA006414B96F82516514BA6F83516614BB6F94
:1025BA00B8C1B0F1B9C1B1F1BAC1B2F1BBC1B3F19D
:1025CA00A05117085E6EFF0E80155F6EFF0E811513
:1025DA00606E7F0E8215616E000E8315626E000EAC
:1025EA005F10636E000E6010646E800E6110656E7F
:1025FA00000E6210666E5E6601D007D066346632DF
:10260A006532643263325E2EF6D763C080F164C0ED
:10261A0081F165C082F166C083F10101AFAF08D0D4
:10262A00831F821F811F806D000E812382238323D3
:10263A009CC135F09DC136F09EC137F09FC138F07C
:10264A00B0C139F0B1C13AF0B2C13BF0B3C13CF00C
:10265A0052EC2DF035C09CF136C09DF137C09EF189
:10266A0038C09FF164C10CF065C10DF066C10EF06F
:10267A0067C10FF09CC110F09DC111F09EC112F00C
:10268A009FC113F0DEEC20F00CC0B0F10DC0B1F127
:10269A000EC0B2F10FC0B3F1B0C1B8F1B1C1B9F116
:1026AA00B2C1BAF1B3C1BBF1B8C194F1B9C195F1E4
:1026BA00BAC196F1BBC197F1000E01019415B86F2A
:1026CA00800E9515B96FFF0E9615BA6FFF0E971506
:1026DA00BB6FB8C1B0F1B9C1B1F1BAC1B2F1BBC1F6
:1026EA00B3F1B0C11CF0B1C11DF0B2C11EF0B3C14B
:1026FA001FF0000E206E720E216E310E226E3F0EFA
:10270A00236E35EC1FF01CC074F11DC075F11EC09C
:10271A0076F11FC077F19CC139F09DC13AF09EC194
:10272A003BF09FC13CF0B0C135F0B1C136F0B2C147
:10273A0037F0B3C138F052EC2DF035C098F136C0FD
:10274A0099F137C09AF138C09BF1180E206E720EBB
:10275A00216E310E226E3F0E236E98C139F099C157
:10276A003AF09AC13BF09BC13CF064C135F065C1B7
:10277A0036F066C137F067C138F052EC2DF035C03B
:10278A001CF036C01DF037C01EF038C01FF035EC03
:10279A001FF01CC014F11DC015F11EC016F11FC098
:1027AA0017F114C10CF015C10DF016C10EF017C1C6
:1027BA000FF08C0E206EBE0E216EBF0E226E350EED
:1027CA00236EB0C11CF0B1C11DF0B2C11EF0B3C17D
:1027DA001FF035EC1FF01CC010F01DC011F01EC018
:1027EA0012F01FC013F0DEEC20F00CC078F10DC01F
:1027FA0079F10EC07AF10FC07BF174C10CF075C18A
:10280A000DF076C10EF077C10FF078C110F079C1E2
:10281A0011F07AC112F07BC113F0DEEC20F00CC08B
:10282A00B4F10DC0B5F10EC0B6F10FC0B7F174C165
:10283A0039F075C13AF076C13BF077C13CF0B4C1CA
:10284A0035F0B5C136F0B6C137F0B7C138F052EC41
:10285A002DF035C098F136C099F137C09AF138C0D9
:10286A009BF178C135F079C136F07AC137F07BC176
:10287A0038F098C139F099C13AF09AC13BF09BC13E
:10288A003CF052EC2DF035C044F136C045F137C06A
:10289A0046F138C047F1B4C11CF0B5C11DF0B6C14C
:1028AA001EF0B7C11FF0B4C120F0B5C121F0B6C106
:1028BA0022F0B7C123F035EC1FF01CC0B0F11DC0E7
:1028CA00B1F11EC0B2F11FC0B3F10E0E106EEA0EC6
:1028DA00116EDD0E126EB50E136E4C0E206EBB0E0F
:1028EA00216E310E226E330E236EB0C11CF0B1C1BF
:1028FA001DF0B2C11EF0B3C11FF035EC1FF01CC0B1
:10290A000CF01DC00DF01EC00EF01FC00FF0DEEC63
:10291A0020F00CC0A4F10DC0A5F10EC0A6F10FC0A5
:10292A00A7F1550E106EB30E116E8A0E126E380E86
:10293A00136EB0C120F0B1C121F0B2C122F0B3C10F
:10294A0023F0A4C11CF0A5C11DF0A6C11EF0A7C1A9
:10295A001FF035EC1FF01CC00CF01DC00DF01EC09E
:10296A000EF01FC00FF0DEEC20F00CC054F10DC0C9
:10297A0055F10EC056F10FC057F1610E106E0B0ED5
:10298A00116E360E126EBB0E136EB0C120F0B1C1BD
:10299A0021F0B2C122F0B3C123F054C11CF055C1D9
:1029AA001DF056C11EF057C11FF035EC1FF01CC0B8
:1029BA000CF01DC00DF01EC00EF01FC00FF0DEECB3
:1029CA0020F00CC048F10DC049F10EC04AF10FC009
:1029DA004BF1AB0E106EAA0E116E2A0E126E3E0E3F
:1029EA00136EB0C120F0B1C121F0B2C122F0B3C15F
:1029FA0023F048C11CF049C11DF04AC11EF04BC169
:102A0A001FF035EC1FF01CC00CF01DC00DF01EC0ED
:102A1A000EF01FC00FF0DEEC20F00CC038F10DC034
:102A2A0039F10EC03AF10FC03BF1B4C135F0B5C16E
:102A3A0036F0B6C137F0B7C138F0B0C120F0B1C135
:102A4A0021F0B2C122F0B3C123F038C11CF039C160
:102A5A001DF03AC11EF03BC11FF035EC1FF01CC03F
:102A6A0039F01DC03AF01EC03BF01FC03CF052ECDA
:102A7A002DF035C084F136C085F137C086F138C0F3
:102A8A0087F1000E106E000E116E000E126EC00E4F
:102A9A00136E84C10CF085C10DF086C10EF087C19A
:102AAA000FF0DEEC20F00CC041F00DC042F00EC079
:102ABA0043F00FC044F084C120F085C121F086C1E3
:102ACA0022F087C123F0B4C11CF0B5C11DF0B6C114
:102ADA001EF0B7C11FF035EC1FF01CC03DF01DC041
:102AEA003EF01EC03FF01FC040F064EC22F03DC033
:102AFA003CF13EC03DF13FC03EF140C03FF144C110
:102B0A0010F045C111F046C112F047C113F044C19B
:102B1A0020F045C121F046C122F047C123F0B4C1DB
:102B2A001CF0B5C11DF0B6C11EF0B7C11FF035ECDF
:102B3A001FF01CC00CF01DC00DF01EC00EF01FC00F
:102B4A000FF0DEEC20F00CC018F10DC019F10EC028
:102B5A001AF10FC01BF13CC135F03DC136F03EC140
:102B6A0037F03FC138F018C139F019C13AF01AC12B
:102B7A003BF01BC13CF052EC2DF035C04CF136C095
:102B8A004DF137C04EF138C04FF1B4C139F0B5C17B
:102B9A003AF0B6C13BF0B7C13CF04CC135F04DC17B
:102BAA0036F04EC137F04FC138F052EC2DF035C037
:102BBA0098F136C099F137C09AF138C09BF1000EEE
:102BCA00356E000E366E800E376E3F0E386E98C127
:102BDA0039F099C13AF09AC13BF09BC13CF052ECF2
:102BEA002DF035C0B4F136C0B5F137C0B6F138C0F2
:102BFA00B7F1B4C1B8F1B5C1B9F1B6C1BAF1B7C14B
:102C0A00BBF1B8C1ACF1B9C1ADF1BAC1AEF1BBC14A
:102C1A00AFF180C15EF081C15FF082C160F083C113
:102C2A0061F0170ED8905E365F3660366136E82E50
:102C3A00F9D75E500101AC275F50AD236050AE2337
:102C4A006150AF23170E5E6EACC15FF0ADC160F08C
:102C5A00AEC161F0AFC162F05E6601D007D06234E6
:102C6A006232613260325F325E2EF6D762BE07D0C0
:102C7A006250611060101AE15F04D8B017D0B4C175
:102C8A0035F0B5C136F0B6C137F0B7C138F080C1FA
:102C9A0039F081C13AF0A8EC23F035C0B4F136C05E
:102CAA00B5F137C0B6F138C0B7F110D0ACC1B8F140
:102CBA00ADC1B9F1AEC1BAF1AFC1BBF1B8C1B4F19E
:102CCA00B9C1B5F1BAC1B6F1BBC1B7F188C11CF03F
:102CDA0089C11DF08AC11EF08BC11FF0B4C120F05A
:102CEA00B5C121F0B6C122F0B7C123F035EC1FF00F
:102CFA001CC056F01DC057F01EC058F01FC059F036
:102D0A001200000E0001AA6F000EA96F62C0BBF08C
:102D1A0063C0BCF064C0BDF065C0BEF0BEAF16D0E3
:102D2A00000EAA6F010EA96FBBC00CF0BCC00DF05B
:102D3A00BDC00EF0BEC00FF039EC2EF00CC0BBF0D7
:102D4A000DC0BCF00EC0BDF00FC0BEF0000E0001F9
:102D5A00C26F000EC16F69C0AEF06AC0AFF0A95170
:102D6A00AA11D8A402D06DA413D0A951AA11D8A42B
:102D7A0004D0000E946F2B0E03D0000E946F2D0E0C
:102D8A00936F93C000F2C14BC22BAE07D8A0AF0716
:102D9A00BBC00CF0BCC00DF0BDC00EF0BEC00FF041
:102DAA0050EC29F00C040D10D8A44CD0BF0E000131
:102DBA008A6FFF0E8B6F66508C6F8D6B8A518C27D2
:102DCA008B518D238D5106E11A0E8C5DD8B002D03D
:102DDA00010E01D0000E956F966B95519611D8B4DD
:102DEA000DD0000EC1250C6E020EC2210D6E950E7D
:102DFA000E6E060E0F6E03EC2DF00CD0000EC125E0
:102E0A000C6E020EC2210D6E9D0E0E6E060E0F6E18
:102E1A0003EC2DF00001FD0EAE27FF0EAF2360C0BC
:102E2A001CF061C01DF0000E1E6E020E1F6EAEC0B9
:102E3A0020F0AFC021F00DEC2BF01CC060F01DC0DB
:102E4A0061F01200BBC00CF0BCC00DF0BDC00EF0AA
:102E5A00BEC00FF050EC29F00C500D10D8A435D09C
:102E6A00BF0E00018A6FFF0E8B6F66508C6F8D6BE1
:102E7A008A518C278B518D238D5106E11A0E8C5D58
:102E8A00D8B002D0010E01D0000E976F986B9751FF
:102E9A009811D8B40DD0000EC1250C6E020EC221B5
:102EAA000D6E990E0E6E060E0F6E03EC2DF0B2D754
:102EBA00000EC1250C6E020EC2210D6EA10E0E6E01
:102ECA00060E0F6E03EC2DF0A5D7000E0001C36F9E
:102EDA00000EC46F800EC56F3F0EC66F000EC06F26
:102EEA00000EBF6FBBC00CF0BCC00DF0BDC00EF031
:102EFA00BEC00FF0000E106E000E116E000E126EA4
:102F0A00000E136E58EC2BF0D8A01ED076D0C3C09A
:102F1A001CF0C4C01DF0C5C01EF0C6C01FF0000ED4
:102F2A00206E000E216E200E226E410E236E35ECAD
:102F3A001FF01CC0C3F01DC0C4F01EC0C5F01FC0E6
:102F4A00C6F00001BF4BC02BBBC03DF0BCC03EF079
:102F5A00BDC03FF0BEC040F0000E206E000E216ED4
:102F6A00200E226E410E236EC3C01CF0C4C01DF099
:102F7A00C5C01EF0C6C01FF035EC1FF01CC041F0E2
:102F8A001DC042F01EC043F01FC044F0E8EC28F018
:102F9A00D8A01FD0BCD7C3C03DF0C4C03EF0C5C046
:102FAA003FF0C6C040F0000E416E000E426E200E89
:102FBA00436E410E446E64EC22F03DC0C3F03EC045
:102FCA00C4F03FC0C5F040C0C6F00001BF07D8A09A
:102FDA00C007BBC03DF0BCC03EF0BDC03FF0BEC0A4
:102FEA0040F0C3C041F0C4C042F0C5C043F0C6C0FF
:102FFA0044F0E8EC28F0D8A0CED766C012F0136AE5
:10300A002CEC2DF012500001B06FB0C0ADF0670E7D
:10301A00B019D8A419D06B506C10D8A404D0000EE3
:10302A006C6E010E6B6E6CBE05D06C5008E16B04C1
:10303A00D8B005D0000EAC6F060EAB6F08D06BC0CF
:10304A00ABF06CC0ACF003D06CAEF9D7F3D7670E17
:10305A00B019D8A422D0C0AF06D0FC0EBF5DFF0EB7
:10306A00C059D8A018D0FF0E8A6FFF0E8B6FABC065
:10307A008CF0ACC08DF08A518C278B518D23BF51B7
:10308A008C5D8D51800A8E6FC051800A8E59D8A0EE
:10309A0002D0660E01D0650EAD6FABC0A3F0ACC016
:1030AA00A4F0670EB019D8A405D0660EAD19D8B42D
:1030BA00C0AF02D0A34BA42B660EAD19D8A416D06C
:1030CA00C0AF0CD0000EC36F000EC46F800EC56F68
:1030DA003F0EC66F000EC06F000EBF6F670EB019AD
:1030EA00D8B404D0BF51A327C051A423000EBA6F8D
:1030FA00000EB96FBBC0B1F0BCC0B2F0BDC0B3F036
:10310A00BEC0B4F0C3C08FF0C4C090F0C5C091F087
:10311A00C6C092F07BD0B1C03DF0B2C03EF0B3C0A1
:10312A003FF0B4C040F0C3C041F0C4C042F0C5C0D3
:10313A0043F0C6C044F064EC22F03DC056F03EC0F5
:10314A0057F03FC058F040C059F09BEC24F056C0ED
:10315A00B5F057C0B6F058C0B7F059C0B8F0B5C00E
:10316A0056F0B6C057F0B7C058F0B8C059F0B6EC30
:10317A0029F056C0A7F057C0A8F0B1C035F0B2C0C8
:10318A0036F0B3C037F0B4C038F0C3C020F0C4C0C2
:10319A0021F0C5C022F0C6C023F0B5C01CF0B6C0ED
:1031AA001DF0B7C01EF0B8C01FF035EC1FF01CC0F0
:1031BA0039F01DC03AF01EC03BF01FC03CF052EC83
:1031CA002DF035C0B1F036C0B2F037C0B3F038C018
:1031DA00B4F0C3C03DF0C4C03EF0C5C03FF0C6C0A5
:1031EA0040F0000E416E000E426E200E436E410EFC
:1031FA00446E64EC22F03DC0C3F03EC0C4F03FC050
:10320A00C5F040C0C6F00001B94BBA2BA351B95D55
:10321A00BA51800A8A6FA451800A8A59D8A07BD7EA
:10322A00C3C01CF0C4C01DF0C5C01EF0C6C01FF04C
:10323A00000E206E000E216EA00E226E400E236E2E
:10324A0035EC1FF01CC0B5F01DC0B6F01EC0B7F0BB
:10325A001FC0B8F0B1C03DF0B2C03EF0B3C03FF0FD
:10326A00B4C040F0B5C041F0B6C042F0B7C043F0B8
:10327A00B8C044F0E8EC28F0D8B003D0000E000142
:10328A0018D0B1C00CF0B2C00DF0B3C00EF0B4C08B
:10329A000FF0B5C010F0B6C011F0B7C012F0B8C048
:1032AA0013F058EC2BF0D8A00BD00001A7B108D02E
:1032BA00000EB56F000EB66F000EB76F000EB86F36
:1032CA00BBC00CF0BCC00DF0BDC00EF0BEC00FF00C
:1032DA00B5C010F0B6C011F0B7C012F0B8C013F004
:1032EA00DEEC20F00CC0B1F00DC0B2F00EC0B3F0AD
:1032FA000FC0B4F08FC0C3F090C0C4F091C0C5F045
:10330A0092C0C6F0650E0001AD19D8B405D0BFC091
:10331A00A5F0C0C0A6F004D0000EA66F000EA56FDF
:10332A00000EA26F000EA16F000EA06F000E9F6F1D
:10333A00000EBA6F000EB96FC7D0B1C03DF0B2C06F
:10334A003EF0B3C03FF0B4C040F0C3C041F0C4C0C7
:10335A0042F0C5C043F0C6C044F064EC22F03DC060
:10336A0056F03EC057F03FC058F040C059F09BECB1
:10337A0024F056C0B5F057C0B6F058C0B7F059C0DF
:10338A00B8F0B5C056F0B6C057F0B7C058F0B8C0DC
:10339A0059F0B6EC29F056C0A7F057C0A8F06DB89E
:1033AA000DD00001A751A811D8A408D0670EB019F2
:1033BA00D8B4A6AF03D09F4BA02B3AD00001A1519D
:1033CA00A211D8B4A6AF22D0000EC125D96E020E22
:1033DA00C221DA6E2E0EDF6EC14BC22BAE07D8A009
:1033EA00AF07000EA26F010EA16F10D0000EC1250B
:1033FA00D96E020EC221DA6E300EDF6EC14BC22BBD
:10340A00AE07D8A0AF079F07D8A0A0079F51A01169
:10341A00D8A4ECD7000EC125D96E020EC221DA6EED
:10342A00A751300FDF6EC14BC22BAE07D8A0AF0732
:10343A00B1C035F0B2C036F0B3C037F0B4C038F01E
:10344A00C3C020F0C4C021F0C5C022F0C6C023F01A
:10345A00B5C01CF0B6C01DF0B7C01EF0B8C01FF052
:10346A0035EC1FF01CC039F01DC03AF01EC03BF00D
:10347A001FC03CF052EC2DF035C0B1F036C0B2F0AE
:10348A0037C0B3F038C0B4F0C3C03DF0C4C03EF09A
:10349A00C5C03FF0C6C040F0000E416E000E426E3D
:1034AA00200E436E410E446E64EC22F03DC0C3F020
:1034BA003EC0C4F03FC0C5F040C0C6F00001A50739
:1034CA00D8A0A607B94BBA2BA351B95DBA51800A45
:1034DA008A6FA451800A8A59D8B008D0C2BF2DD7A2
:1034EA00C25104E14B0EC15DD8A027D7A151A21148
:1034FA00D8B46DA80AD0000EC125D96E020EC22119
:10350A00DA6E2E0EDF6EC14BC22B000EC125D96EAC
:10351A00020EC221DA6E000EDF6E650EAD19D8A456
:10352A007ED4000EBA6F4F0EB96F000EB925D96E50
:10353A00020EBA21DA6E000EDF6E000EAA6F000EBE
:10354A00A96FC0AF08D0000EAA6F010EA96FBF6D98
:10355A00C01FD8B0C02B000EAC6F020EAB6F2BD0C1
:10356A00B907D8A0BA07000EB925D96E020EBA213A
:10357A00DA6EBFC00CF0C0C00DF0000E0F6E0A0E5E
:10358A000E6EDFEC2BF00C50300FDF6EBFC00CF06C
:10359A00C0C00DF0000E0F6E0A0E0E6E9DEC2BF0E1
:1035AA000CC0BFF00DC0C0F00001AB07D8A0AC073B
:1035BA00AE07D8A0AF07BF51C011D8A4D1D7ACBFAE
:1035CA0005D0AC51CDE1AB05D8B0CAD7B907D8A060
:1035DA00BA07A951AA11D8A404D0000E9A6F2B0ECB
:1035EA0003D0000E9A6F2D0E996F000EB925D96E71
:1035FA00020EBA21DA6E99C0DFFFAE07D8A0AF0774
:10360A00B907D8A0BA07BF0E8A6FFF0E8B6F665034
:10361A008C6F8D6B8A518C278B518D238D5106E1CE
:10362A001A0E8C5DD8B002D0010E01D0000E9D6F2B
:10363A009E6B9D519E11D8A404D0000E9C6F650EFE
:10364A0003D0000E9C6F450E9B6F000EB925D96EF4
:10365A00020EBA21DA6E9BC0DFFFAE07D8A0AF0711
:10366A00000EC1250C6E020EC2210D6E000EB92588
:10367A000E6E020EBA210F6E03EC2DF014EF17F046
:10368A0049C08CF04AC08DF04BC08EF04CC08FF010
:10369A008CC0A4F08DC0A5F08EC0A6F08FC0A7F094
:1036AA00000E0001A4154D6E000EA5154E6E800E7B
:1036BA00A6154F6E7F0EA715506E800E4F1833E178
:1036CA007F0E50184D104E10D8A42DD049C020F0AE
:1036DA004AC021F04BC022F04CC023F049C01CF074
:1036EA004AC01DF04BC01EF04CC01FF035EC1FF055
:1036FA001CC00CF01DC00DF01EC00EF01FC00FF054
:10370A0049C010F04AC011F04BC012F04CC013F07F
:10371A00DEEC20F00CC049F00DC04AF00EC04BF0B0
:10372A000FC04CF01200A7BF07D0A751A611A511D0
:10373A0033E1A405D8B030D0FF0EA4154D6EFF0EAC
:10374A00A5154E6EFF0EA6154F6E7F0EA715506E6D
:10375A004D504E104F105010D8A409D049C049F00E
:10376A004AC04AF04BC04BF04CC04CF01200A7AF15
:10377A0013D0000E686E210E676E980E0C6E060E40
:10378A000D6E78EC2EF00CC049F00DC04AF00EC058
:10379A004BF00FC04CF01200170E4D6EA4C04EF045
:1037AA00A5C04FF0A6C050F0A7C051F04D6601D099
:1037BA0007D05134513250324F324E324D2EF6D755
:1037CA004EC09CF04FC09DF050C09EF051C09FF07B
:1037DA0000019C519D119E119F11D8A42AD0000E60
:1037EA00886F000E896F000E8A6F000E8B6F0BD0E8
:1037FA00D890A437A537A637A737010E8827000E19
:10380A0089238A238B23A6AFF3D7FF0E88254D6E13
:10381A00FF0E89214E6EFF0E8A214F6EFF0E8B21FD
:10382A00506E4D509C5F4E509D5B4F509E5B50506A
:10383A009F5B810E9C27FF0E9D23FF0E9E23FF0E8A
:10384A009F23FF0EA4154D6EFF0EA5154E6E7F0E1B
:10385A00A6154F6E000EA715506E000E4D10A46FE0
:10386A00000E4E10A56F800E4F10A66F000E50105E
:10387A00A76F9CA108D0A451A427A551A523A6519E
:10388A00A623A751A7239F359F339E339D339C338D
:10389A00A451A427A551A523A651A623A751A7231E
:1038AA00000E846F000E856F000E866F000E876F04
:1038BA0084C090F085C091F086C092F087C093F0E2
:1038CA00000EA06F000EA16F000EA26F010EA36F73
:1038DA0043D0A0518425946FA1518521956FA2519F
:1038EA008621966FA3518721976F9451A45D9551B4
:1038FA00A5599651A659A751800A4D6E9751800A2B
:10390A004D58D8A01CD0A0519425846FA15195215F
:10391A00856FA2519621866FA3519721876F945183
:10392A00A45F9551A55B9651A65B9751A75BA051E1
:10393A009027A1519123A2519223A3519323A451D9
:10394A00A427A551A523A651A623A751A723D890FA
:10395A00A333A233A133A033A051A111A211A31101
:10396A00D8A4B7D7A451A511A611A711D8B455D078
:10397A00000E986F000E996F800E9A6F3F0E9B6F24
:10398A0098C03DF099C03EF09AC03FF09BC040F00D
:10399A00000E416E000E426E800E436E3F0E446E64
:1039AA00E8EC28F0D8A039D0000E0001986F000E7C
:1039BA00996F800E9A6F3F0E9B6F000E3D6E000E40
:1039CA003E6E800E3F6E3F0E406E98C041F099C029
:1039DA0042F09AC043F09BC044F0E8EC28F0D8B01B
:1039EA0007D0020E00019027000E9123922314D0D3
:1039FA00010E000190154D6E000E91154E6E000ECF
:103A0A0092154F6E000E9315506E4D5090274E50E2
:103A1A0091234F5092235050932390C04DF091C060
:103A2A004EF092C04FF093C050F0503450324F32A3
:103A3A004E324D32000E4D240001A46F000E4E206E
:103A4A00A56F000E4F20A66F3F0E5020A76F9CC097
:103A5A004DF09DC04EF09EC04FF09FC050F0170E23
:103A6A00D8904D364E364F365036E82EF9D74D504F
:103A7A00A4274E50A5234F50A6235050A723A4C0D5
:103A8A008CF0A5C08DF0A6C08EF0A7C08FF08CC0B8
:103A9A0098F08DC099F08EC09AF08FC09BF098C0B4
:103AAA0049F099C04AF09AC04BF09BC04CF0120002
:103ABA00C9C0D9FFCAC0DAFFDECFF6FFDDCFF7FFF4
:103ACA000800F550250AD8A4B1D1C9C0D9FFCAC087
:103ADA00DAFFDE2A000EDD22000E6A6E000E696E23
:103AEA0069C06DF06AC06EF06B686C68C9C0D9FFB6
:103AFA00CAC0DAFFDECFF6FFDDCFF7FF0800F550C8
:103B0A002E0AD8A46ED0000E6C6E000E6B6EC9C061
:103B1A00D9FFCAC0DAFFDE2A000EDD22C9C0D9FFEA
:103B2A00CAC0DAFFDECFF6FFDDCFF7FF0800F55097
:103B3A002A0AD8A41CD0C9C0D9FFCAC0DAFFDE2A13
:103B4A00000EDD22CBC0D9FFCCC0DAFFDFCFCDF02B
:103B5A00020EDE26DFCFCEF0000EDD22CDC0D9FF69
:103B6A00CEC0DAFFDECF6BF0DDCF6CF03AD0C9C041
:103B7A00D9FFCAC0DAFFDECF13F0DDCF14F00FECA5
:103B8A0027F013C06BF014C06CF007D0C9C0D9FF7E
:103B9A00CAC0DAFFDE2A000EDD22D00E0001CD6F88
:103BAA00FF0ECE6FC9C0D9FFCAC0DAFFDECFF6FF5B
:103BBA00DDCFF7FF0800F550CF6FD06BCD51CF277F
:103BCA00CE51D023D05106E10A0ECF5DD8B002D033
:103BDA00010E01D0000ED16FD26BD151D211D8A4EF
:103BEA00D5D7C9C0D9FFCAC0DAFFDECFF6FFDDCF0D
:103BFA00F7FF0800F550126E136A2CEC2DF01250E4
:103C0A000001D96FD951D8B435D0C9C0D9FFCAC0BB
:103C1A00DAFFDECFCDF0DDCFCEF0010ECD27000EDC
:103C2A00CE23CDC0F6FFCEC0F7FF0800F550126EC6
:103C3A00136A2CEC2DF012500001DA6FDA51D8B465
:103C4A0019D0C9C0D9FFCAC0DAFFDECFCDF0DDCFA7
:103C5A00CEF0020ECD27000ECE23CDC0F6FFCEC089
:103C6A00F7FF0800F550126E136A2CEC2DF0125073
:103C7A000001DB6F660ED919D8A43FD0C9C0D9FF9D
:103C8A00CAC0DAFFDECFF6FFDDCFF7FF0800F5CFB7
:103C9A00DCF0C9C0D9FFCAC0DAFFDE2A000EDD2275
:103CAA00CBC0D9FFCCC0DAFFDFCFCDF0040EDE26C1
:103CBA00DFCFCEF0000EDD22CDC0D9FFCEC0DAFFB5
:103CCA00DECFD5F0DECFD6F0DECFD7F0DECFD8F01C
:103CDA00C7C060F0C8C061F0D5C062F0D6C063F05A
:103CEA00D7C064F0D8C065F0DCC066F086EC16F088
:103CFA0060C0C7F061C0C8F01200D90E0C6E000E89
:103D0A000D6EA50E0E6E060E0F6E000E116E020ED1
:103D1A00106E6CEC2AF00C500D10D8A456D0C9C005
:103D2A00D9FFCAC0DAFFDECFCDF0DDCFCEF0010E6B
:103D3A000001CD27000ECE23CDC0F6FFCEC0F7FF7F
:103D4A000800F5CFDCF0BF0ECD6FFF0ECE6FC9C0F5
:103D5A00D9FFCAC0DAFFDECFF6FFDDCFF7FF0800D2
:103D6A00F550CF6FD06BCD51CF27CE51D023D05144
:103D7A0006E11A0ECF5DD8B002D0010E01D0000EB6
:103D8A00D36FD46BD351D411CBC0D9FFCCC0DAFFD7
:103D9A00DFCFCDF0040EDE26DFCFCEF0000EDD221F
:103DAA00CDC0D9FFCEC0DAFFDECFD5F0DECFD6F058
:103DBA00DECFD7F0DECFD8F0020EC9C0D9FFCAC015
:103DCA00DAFFDE26000EDD2283D7C9C0D9FFCAC0BA
:103DDA00DAFFDECFF6FFDDCFF7FF0800F550250A40
:103DEA00D8A417D0C9C0D9FFCAC0DAFFDE2A000E8C
:103DFA00DD22000E0D6E250E0C6EC7C00EF0C8C077
:103E0A000FF0BDEC2AF0000E0001C86F010EC76F5B
:103E1A001200C9C0D9FFCAC0DAFFDE2A000EDD22AD
:103E2A00000E0001C86F000EC76F1200C9C0D9FF8B
:103E3A00CAC0DAFFDECFF6FFDDCFF7FF0800F55084
:103E4A000C6E0D6AC7C00EF0C8C00FF0BDEC2AF0A8
:103E5A00C9C0D9FFCAC0DAFFDE2A000EDD22D3D7D5
:103E6A001F50800B286E1F501F242E6E1EBE2E80E0
:103E7A002E50D8B40DD02E28D8A408D0000E1C6E0F
:103E8A00000E1D6E000E1E6E000E1F6E1E8E08D0D6
:103E9A00000E1C6E000E1D6E000E1E6E000E1F6EB2
:103EAA002350800B281A23502324296E22BE2980EE
:103EBA002950D8B40DD02928D8A408D0000E206ED5
:103ECA00000E216E000E226E000E236E228E08D086
:103EDA00000E206E000E216E000E226E000E236E62
:103EEA002950D8B403D02E50D8A409D0000E1C6E85
:103EFA00000E1D6E000E1E6E000E1F6E1200225066
:103F0A001C02F3CF33F0F4CF34F033502A6E2B6A0D
:103F1A002C6A2D6A34502F6E306A316A326A215007
:103F2A001D02F3CF33F0F4CF34F033502A26000EBB
:103F3A002B222C222D2234502F26000E3022312201
:103F4A00322220501E02F3CF33F0F4CF34F0335034
:103F5A002A26000E2B222C222D2234502F26000E28
:103F6A003022312232222CC02DF02BC02CF02AC054
:103F7A002BF02A6A20501D02F3CF33F0F4CF34F02D
:103F8A0033502A2634502B22000E2C22000E2D22CA
:103F9A0021501C02F3CF33F0F4CF34F033502A26E9
:103FAA0034502B22000E2C22000E2D222CC02DF074
:103FBA002BC02CF02AC02BF02A6A20501C02F3CF07
:103FCA0033F0F4CF34F033502A2634502B22000E2B
:103FDA002C22000E2D2222501D02F3CF33F0F4CFF3
:103FEA0034F033502F2634503022000E3122000E86
:103FFA00322221501E02F3CF33F0F4CF34F0335083
:10400A002F2634503022000E3122000E3222225046
:10401A001E02F3CF33F0F4CF34F03350246E345011
:10402A00256E266A276A26C027F025C026F024C0F6
:10403A0025F0246A24502F2625503022265031227A
:10404A00275032222AC024F02BC025F02CC026F09B
:10405A002DC027F0190E05D0D890273226322532E6
:10406A002432E82EF9D724502F2625503022265004
:10407A003122275032222CC02DF02BC02CF02AC01E
:10408A002BF02A6A29502EC024F0256A2426000E15
:10409A002522820E2424336EFF0E2520346E0FD083
:1040AA00D8902F363036313632362DBE2F80D89002
:1040BA002A362B362C362D363306D8A0340631AEA6
:1040CA00EFD7000E296E2DAE17D0FF0E2A14246EDC
:1040DA00FF0E2B14256EFF0E2C14266E7F0E2D1448
:1040EA00276E2450251026102710D8B403D0010EAD
:1040FA00296E02D02FB0FBD72950D8B41FD0010E99
:10410A002F26000E30223122322232A017D02FC0A1
:10411A0024F030C025F031C026F032C027F0273411
:10412A00273226322532243224C02FF025C030F01F
:10413A0026C031F027C032F0334A342A34BE0DD0BB
:10414A00345003E13328D8A008D0000E2F6E000E99
:10415A00306E800E316E7F0E20D034BE05D03450C2
:10416A000EE13304D8B00BD0000E2F6E000E306E65
:10417A00000E316E000E326E000E286E0FD033C064
:10418A002EF0FF0E2F16FF0E30167F0E3116000E80
:10419A0032162EB0318ED8902E30326E285032120E
:1041AA002FC01CF030C01DF031C01EF032C01FF00D
:1041BA0012000F50800B186E0F500F241A6E0EBE8D
:1041CA001A801A50D8B40DD01A28D8A408D0000ED4
:1041DA000C6E000E0D6E000E0E6E000E0F6E0E8E21
:1041EA0006D0000E0C6E000E0D6E000E0E6E000E46
:1041FA000F6E1350800B196E18501918D8A4188C0A
:10420A0013501324196E12BE19801950D8B40DD048
:10421A001928D8A408D0000E106E000E116E000ED8
:10422A00126E000E136E128E06D0000E106E000E65
:10423A00116E000E126E000E136E1A50195CD8B071
:10424A0022D018AC02D0800E181A1AC01BF019C05E
:10425A001AF01BC019F00CC01BF010C00CF01BC0E8
:10426A0010F00DC01BF011C00DF01BC011F00EC0F4
:10427A001BF012C00EF01BC012F00FC01BF013C0CF
:10428A000FF01BC013F0000E1B6E1A5019C014F069
:10429A00156A145E000E155A15BE2CD0155004E18D
:1042AA001A0E145CD8A026D00C500D100E100F1048
:1042BA00D8B402D0010E01D0000E1B6E000E0C6E97
:1042CA00000E0D6E000E0E6E000E0F6E19C01AF063
:1042DA0015D01BA005D0D8901B3001091B6E02D047
:1042EA00D8901B320CB01B8E0F340F320E320D32A7
:1042FA000C321A2A19501A5CD8A0EBD718BC28D04D
:10430A001A50D8A409D0000E0C6E000E0D6E000EC5
:10431A000E6E000E0F6E120010500C2611500D2258
:10432A0012500E2213500F220FA071D01BA005D0DD
:10433A00D8901B3001091B6E02D0D8901B320CB0EA
:10434A001B8E0F340F320E320D320C321A2A5FD006
:10435A0010500C5C11500D5812500E580F50800A14
:10436A00146E1350800A1458D8B025D00C50105C23
:10437A00146E0D501158156E0E501258166E0F50BD
:10438A001358176EFF0E14240C6EFF0E15200D6EB7
:10439A00FF0E16200E6EFF0E17200F6E800E181AD3
:1043AA001B6C1B50D8A40FD0010E0C26000E0D2238
:1043BA000E220F2208D010500C5E11500D5A1250C6
:1043CA000E5A13500F5A0C500D100E100F10D8A47D
:1043DA001CD01B50D8A419D0000E0C6E000E0D6E06
:1043EA00000E0E6E000E0F6E1200D8900C360D36AF
:1043FA000E360F361BBE0C801BA002D0D88001D00F
:10440A00D8901B361A50D8A41A060EAEEED7000E54
:10441A00196E1BAE0BD01BC014F07F0E1416D8B445
:10442A0003D0010E196E02D00CB0FBD71950D8B4C4
:10443A0020D0010E0C26000E0D220E220F220FA0F4
:10444A0018D00CC014F00DC015F00EC016F00FC035
:10445A0017F01734173216321532143214C00CF012
:10446A0015C00DF016C00EF017C00FF01A28D8A408
:10447A001A2A1A28D8B403D01A50D8A40DD0000E7C
:10448A000C6E000E0D6E000E0E6E000E0F6E1A50A0
:10449A00D8A402D0000E186E1AA002D00E8E01D037
:1044AA000E9ED8901A300F6E18BE0F8E0CC00CF0EC
:1044BA000DC00DF00EC00EF00FC00FF012004050EC
:1044CA00800B4D6E40504024546E3FBE5480545071
:1044DA00D8B40DD05428D8A408D0000E3D6E000ED2
:1044EA003E6E000E3F6E000E406E3F8E06D0000EEE
:1044FA003D6E000E3E6E000E3F6E000E406E445042
:10450A00800B4D1A44504424556E43BE5580555075
:10451A00D8B40DD05528D8A408D0000E416E000E8C
:10452A00426E000E436E000E446E438E06D0000E9D
:10453A00416E000E426E000E436E000E446E4150F4
:10454A00421043104410D8A417D0000E3D6E000E3E
:10455A003E6E000E3F6E000E406E800E3F127F0EC2
:10456A0040124D5040123DC03DF03EC03EF03FC0AB
:10457A003FF040C040F012005450D8A409D0000EB9
:10458A003D6E000E3E6E000E3F6E000E406E120033
:10459A00555054C045F0466A455E000E465A7F0E95
:1045AA0045244E6E000E46204F6E3DC049F03EC077
:1045BA004AF03FC04BF040C04CF0000E3D6E000E7A
:1045CA003E6E000E3F6E000E406E000E506E000EE4
:1045DA00516E000E526E000E536E000E556E28D0AC
:1045EA005550D8B411D0D89049364A364B364C3645
:1045FA00D8903D363E363F36403653BE3D80D89041
:10460A0050365136523653364150495C42504A5818
:10461A0043504B5844504C58D8A009D0538C415061
:10462A00495E42504A5A43504B5A44504C5A552AB2
:10463A00190E5564D5D749504A104B104C10D8B4AE
:10464A0011D050800FD0D8903D363E363F36403696
:10465A0053BE3D80D89050365136523653364E06A8
:10466A00D8A04F063FAEEFD7000E556E53AE17D007
:10467A00FF0E5014456EFF0E5114466EFF0E521473
:10468A00476E7F0E5314486E455046104710481027
:10469A00D8B403D0010E556E02D03DB0FBD75550A9
:1046AA00D8B41FD0010E3D26000E3E223F224022E2
:1046BA0040A017D03DC045F03EC046F03FC047F08D
:1046CA0040C048F04834483247324632453245C045
:1046DA003DF046C03EF047C03FF048C040F04E4A69
:1046EA004F2A4FBE10D04F5003E14E28D8A00BD00E
:1046FA00000E4F6E4E68000E3D6E000E3E6E000EAE
:10470A003F6E000E406E4FBE05D04F5011E14E0471
:10471A00D8B00ED0000E4F6E000E4E6E000E3D6EDB
:10472A00000E3E6E000E3F6E000E406E000E4D6E85
:10473A004EC054F054A002D03F8E01D03F9ED89074
:10474A005430406E0ED735C043F036C044F037C0FF
:10475A0045F038C046F03ABE56D03A5004E1800ED1
:10476A00395CD8A050D043C01CF044C01DF045C0ED
:10477A001EF046C01FF0000E206E000E216E000EC5
:10478A00226E7F0E236E35EC1FF01CC043F01DC055
:10479A0044F01EC045F01FC046F0810E3926FF0EB8
:1047AA003A223ABE88D03A5004E1800E395CD8A049
:1047BA0082D043C01CF044C01DF045C01EF046C064
:1047CA001FF0000E206E000E216E000E226E7F0E6C
:1047DA00236E35EC1FF01CC043F01DC044F01EC010
:1047EA0045F01FC046F0810E3926FF0E3A223ABE26
:1047FA0062D03A5004E1800E395CD8A05CD0000E39
:10480A003A6E7F0E57D03AAE56D0820E395CFF0E02
:10481A003A58D8B050D043C01CF044C01DF045C02F
:10482A001EF046C01FF0000E206E000E216E800E94
:10483A00226E0C0E236E35EC1FF01CC043F01DC017
:10484A0044F01EC045F01FC046F0660E3926000E21
:10485A003A223AAE30D0820E395CFF0E3A58D8B0BE
:10486A002AD043C01CF044C01DF045C01EF046C00B
:10487A001FF0000E206E000E216E800E226E0C0EAE
:10488A00236E35EC1FF01CC043F01DC044F01EC05F
:10489A0045F01FC046F0660E3926000E3A223AAE9F
:1048AA000AD0820E395CFF0E3A58D8B004D0FF0EF7
:1048BA003A6E820E396E7F0E39243B6E000E3A2014
:1048CA003C6E3D6A3E6A170ED8903B363C363D3602
:1048DA003E36E82EF9D73BC03FF03CC040F03DC021
:1048EA0041F03EC042F03FC01CF040C01DF041C044
:1048FA001EF042C01FF043C020F044C021F045C062
:10490A0022F046C023F035EC1FF01CC035F01DC064
:10491A0036F01EC037F01FC038F035C035F036C04B
:10492A0036F037C037F038C038F01200F1C086F0E0
:10493A00F2C087F0F3C088F0F4C089F056C086F060
:10494A0057C087F058C088F059C089F0810E5A6E56
:10495A00FF0E5B6E86C05CF087C05DF088C05EF0BB
:10496A0089C05FF0180E05D0D8905F325E325D3292
:10497A005C32E82EF9D75C505A240001846F000E8D
:10498A005B20856F85BF0FD0855104E1170E845DCA
:10499A00D8A009D056C056F057C057F058C058F0A2
:1049AA0059C059F0120085BF5FD084C05AF0FF0E7B
:1049BA005B6EFF0E5C6E7F0E5D6E000E5E6E5A665B
:1049CA0001D007D05E345E325D325C325B325A2EE1
:1049DA00F6D75BC080F05CC081F05DC082F05EC03B
:1049EA0083F00001805186155A6E815187155B6EDE
:1049FA00825188155C6E835189155D6E5A505B1021
:104A0A005C105D10D8B4C6D786C05AF087C05BF078
:104A1A0088C05CF089C05DF0200E05D0D8905D3268
:104A2A005C325B325A32E82EF9D75A505B105C106E
:104A3A005D10D8B408D080518627815187238251CE
:104A4A00882383518923801D5A6E811D5B6E821DC6
:104A5A005C6E831D5D6E5A5086175B5087175C50DB
:104A6A0088175D50891736D086C05AF087C05BF028
:104A7A0088C05CF089C05DF0200E05D0D8905D3208
:104A8A005C325B325A32E82EF9D75A505B105C100E
:104A9A005D10D8A408D0000E866F000E876F000E36
:104AAA00886F000E16D0D89086355A6E87355B6EA1
:104ABA0088355C6E89355D6E5A505B105C105D10EE
:104ACA00D8B408D0000E866F000E876F800E886FEC
:104ADA00BF0E896F86C056F087C057F088C058F05D
:104AEA0089C059F01200000E0001B86F000EB96FAC
:104AFA00000EBA6F000EBB6FA8C00CF0A9C00DF073
:104B0A00AAC00EF0ABC00FF0010EAFEC27F00CC03C
:104B1A003DF00DC03EF00EC03FF00FC040F0ACC0FB
:104B2A000CF0ADC00DF0AEC00EF0AFC00FF0010E2C
:104B3A00AFEC27F00CC041F00DC042F00EC043F0BC
:104B4A000FC044F064EC22F03DC0BCF03EC0BDF0A2
:104B5A003FC0BEF040C0BFF0BCC03DF0BDC03EF09B
:104B6A00BEC03FF0BFC040F05A0E416E640E426EA6
:104B7A001B0E436E400E446EE8EC28F0D8B078D095
:104B8A00C70E3D6E4B0E3E6EB70E3F6E3E0E406E2A
:104B9A00BCC041F0BDC042F0BEC043F0BFC044F04B
:104BAA00E8EC28F0D8B064D0ACC00CF0ADC00DF081
:104BBA00AEC00EF0AFC00FF0010EAFEC27F00CC084
:104BCA0041F00DC042F00EC043F00FC044F0A8C03F
:104BDA000CF0A9C00DF0AAC00EF0ABC00FF0010E88
:104BEA00AFEC27F00CC03DF00DC03EF00EC03FF018
:104BFA000FC040F064EC22F03DC0B0F03EC0B1F00E
:104C0A003FC0B2F040C0B3F0DE0E5A6E370E5B6E94
:104C1A00310E5C6EC00E5D6EB0C056F0B1C057F07A
:104C2A00B2C058F0B3C059F055EC03F056C0B4F016
:104C3A0057C0B5F058C0B6F059C0B7F0B4C01CF0B0
:104C4A00B5C01DF0B6C01EF0B7C01FF0420E206EF0
:104C5A00340E216EE90E226E420E236E35EC1FF0E1
:104C6A001CC0B8F01DC0B9F01EC0BAF01FC0BBF01E
:104C7A00B8C0A8F0B9C0A9F0BAC0AAF0BBC0ABF0DE
:104C8A001200C0C0C4F00001C447C447C250C419CE
:104C9A00C30BC419C26EC280C282C2B2FED7C3CFCE
:104CAA00CCF0C4CFCDF00001C005C111D8A470D09A
:104CBA00CCC00CF0CDC00DF0000E0DBEFF0E0E6E76
:104CCA000F6E010EAFEC27F00CC041F00DC042F0A0
:104CDA000EC043F00FC044F0000E206E000E216E8D
:104CEA00FA0E226E440E236EFF0E0001C46F030EED
:104CFA00C56FCC51C45FCD51C55BC4C00CF0C5C0F3
:104D0A000DF0000E0DBEFF0E0E6E0F6E010EAFEC13
:104D1A0027F00CC01CF00DC01DF00EC01EF00FC015
:104D2A001FF035EC1FF01CC03DF01DC03EF01EC048
:104D3A003FF01FC040F064EC22F03DC056F03EC088
:104D4A0057F03FC058F040C059F0B6EC29F056C0B1
:104D5A00C6F057C0C7F0C6C0A8F0C7C0A9F0000186
:104D6A00000EA9BFFF0EAA6FAB6FC60EAC6F0B0E7B
:104D7A00AD6F010EAE6F000EAF6F78EC25F0A8C0D4
:104D8A00C8F0A9C0C9F0AAC0CAF0ABC0CBF038D0ED
:104D9A00F60E206E280E216E9C0E226E400E236E99
:104DAA00CCC00CF0CDC00DF0000E0DBEFF0E0E6E85
:104DBA000F6E010EAFEC27F00CC01CF00DC01DF0F9
:104DCA000EC01EF00FC01FF035EC1FF01CC03DF0E6
:104DDA001DC03EF01EC03FF01FC040F0000E416EE5
:104DEA00000E426E200E436E410E446E64EC22F0B9
:104DFA003DC0C8F03EC0C9F03FC0CAF040C0CBF0C9
:104E0A00C290C8C0C0F0C9C0C1F0CAC0C2F0CBC00D
:104E1A00C3F01200000E216E000E206E000E1A6EF4
:104E2A00000E196E02D0134A142A010E1F6E13C007
:104E3A00F6FF14C0F7FF0800F550200AD8B418D0BE
:104E4A00F70E156EFF0E166E13C0F6FF14C0F7FFAD
:104E5A000800F550176E186A1550172616501822B2
:104E6A00185004E1050E175CD8A002D0000E1F6E80
:104E7A001FC01BF01C6A1B501C10D8B408D0D3D713
:104E8A00000E1A6E010E196E134A142A2ED013C080
:104E9A00F6FF14C0F7FF0800F550156E166A165093
:104EAA00000AD8A422D015502B0AD8B4EDD7060A86
:104EBA00D8B4E6D71AD020C00CF021C00DF0000EED
:104ECA000F6E0A0E0E6E65EC2EF013C0F6FF14C0BC
:104EDA00F7FF0800F5500C5E000E0D5A300E0C2438
:104EEA00206E000E0D20216ECFD7D00E156EFF0E4C
:104EFA00166E13C0F6FF14C0F7FF0800F550176EC0
:104F0A00186A1550172616501822185006E10A0E6C
:104F1A00175CD8B002D0010E01D0000E1D6E1E6AB9
:104F2A001D501E10D8A4C7D719501A10D8A40DD0D6
:104F3A0020C015F021C016F0151E161E154A162A95
:104F4A0015C013F016C014F0120020C013F021C0CF
:104F5A0014F01200146E1450D8A40FAE1AD00CC05C
:104F6A0010F00DC011F00EC012F00FC013F0101E99
:104F7A00111E121E131E102A000E112212221322B3
:104F8A0010C016F011C017F012C018F013C019F0B3
:104F9A0008D00CC016F00DC017F00EC018F00FC0E4
:104FAA0019F00C500D100E100F10D8A409D0000ED5
:104FBA000C6E000E0D6E000E0E6E000E0F6E1200BD
:104FCA00960E156E06D0152AD89019321832173255
:104FDA001632000E1614106E000E1714116E000E03
:104FEA001814126EFE0E1914136E105011101210AE
:104FFA001310D8B40DD0E7D7152A010E1626000EC5
:10500A00172218221922D89019321832173216325A
:10501A00000E1614106E000E1714116E000E1814DE
:10502A00126EFF0E1914136E105011101210131075
:10503A00D8B407D0E1D71506D890163617361836E1
:10504A00193618BE03D0020E1560F5D715A0189EA2
:10505A00D890153215C010F0116A126A136A10C07E
:10506A0013F0126A116A106A1050161211501712B0
:10507A0012501812135019121450D8A40FAE01D09E
:10508A00198E16C00CF017C00DF018C00EF019C01A
:10509A000FF012000CC016F00DC017F010501110CE
:1050AA00D8B4120016C0D9FF17C0DAFF0EC0DFFF4E
:1050BA0010501624126E11501720136EFF0E122470
:1050CA00D96EFF0E1320DA6E0EC0DFFF115004E115
:1050DA00030E105CD8A0120020EE01F01650D9265B
:1050EA001750DA220EC0DFFF20EE02F01650D92642
:1050FA001750DA220EC0DFFF10501624126E11501C
:10510A001720136EFE0E1224D96EFF0E1320DA6ECC
:10511A000EC0DFFF10501624126E11501720136EA6
:10512A00FD0E1224D96EFF0E1320DA6E0EC0DFFFB9
:10513A00115004E1070E105CD8A0120020EE03F013
:10514A001650D9261750DA220EC0DFFF1050162447
:10515A00126E11501720136EFC0E1224D96EFF0E18
:10516A001320DA6E0EC0DFFF115004E1090E105C45
:10517A00D8A0120016C012F017C013F0121E131E88
:10518A00124A132A030E1214146E156A14501626A4
:10519A00155017221450105E1550115AFC0E101695
:1051AA00FF0E11160BD016C0D9FF17C0DAFF0EC0BA
:1051BA00DFFF1006D8A01106164A172A1050111040
:1051CA00D8B41200F0D7000E3D14456E000E3E14FE
:1051DA00466E800E3F14476E7F0E4014486E45504F
:1051EA00461047104810D8A408D0000E3D6E000E95
:1051FA003E6E000E3F6E000E406E000E4114456E6C
:10520A00000E4214466E800E4314476E7F0E4414FD
:10521A00486E4550461047104810D8A408D0000ED2
:10522A00416E000E426E000E436E000E446E40AE9A
:10523A0009D03D6C3E1ED8B03E2A3F1ED8B03F2A48
:10524A00800E405644AE09D0416C421ED8B0422A64
:10525A00431ED8B0432A800E4456000E3D1A000E53
:10526A003E1A000E3F1A800E401A000E411A000E16
:10527A00421A000E431A800E441A41503D5C4250B5
:10528A003E5843503F5844504058D8B002D0D89066
:10529A001200D8801200F5C016F0F6C017F0F7C059
:1052AA0018F0F8C019F00CC016F00DC017F00EC0B7
:1052BA0018F00FC019F016C010F017C011F018C07E
:1052CA0012F019C013F0180E05D0D890133212320A
:1052DA0011321032E82EF9D71050146E156A145094
:1052EA001510D8A419D0D8901634106E1734116E30
:1052FA001834126E1934136E105011101210131044
:10530A00D8A405D0000E0D6E020E0C6E1200000E0F
:10531A000D6E030E0C6E120014281510D8A41CD0A2
:10532A0016C010F017C011F018C012F019C013F00F
:10533A00090ED8901036113612361336E82EF9D7E0
:10534A001050111012101310D8A402D0010E01D05F
:10535A00000E0C6E0D6A1200000E0D6E040E0C6E1D
:10536A001200583459345F6E5F50D8A409D0000E29
:10537A00566E000E576E000E586E000E596E1200D1
:10538A0056C05AF057C05BF058C05CF059C05DF087
:10539A00200E05D0D8905D325C325B325A32E82E4C
:1053AA00F9D75A505E6E588EFF0E5616FF0E5716D4
:1053BA00FF0E5816000E5916960E5F5E5FAE0DD0A0
:1053CA005F50800A970FD8A0D2D7D8905932583256
:1053DA00573256325F3EF9D70DD01F0E5F6407D0A1
:1053EA00C6D7D89056365736583659365F065F5064
:1053FA00D8A4F7D75E50D8B408D0591E581E571EE5
:10540A00566C000E57225822592256C056F057C0E1
:10541A0057F058C058F059C059F0120089EC2EF0D4
:10542A00C60E0C6E010E0D6E000E0F6E000E0E6E85
:10543A00000E116E0F0E106E4FEC28F0C60E000112
:10544A00E56F010EE66F900EE76F060EE86F000E2D
:10545A00C16F000EC06F46EC26F0C0C0E9F0C1C0B3
:10546A00EAF0C2C0EBF0C3C0ECF07EEC2CF0420EC6
:10547A00E82EFED700D0C60E0C6E010E0D6E000E81
:10548A000F6E000E0E6E000E116E0F0E106E4FECA8
:10549A0028F0C60E0001E56F010EE66F8B0EE76F6E
:1054AA00060EE86F000EC16F010EC06F46EC26F0C3
:1054BA00C0C0E9F0C1C0EAF0C2C0EBF0C3C0ECF072
:1054CA007EEC2CF0420EE82EFED700D0A9D70CC0F5
:1054DA0013F00DC014F00EC015F00FC016F0100630
:1054EA00D8A0110610280FE11128D8A40CD0000E5C
:1054FA000D6E000E0C6E1200134A142A154A162A53
:10550A001006D8A0110613C0D9FF14C0DAFFDF5065
:10551A00D8B41CD015C0F6FF16C0F7FF0800F55026
:10552A000009D8B413D010501110D8B40FD013C03A
:10553A00D9FF14C0DAFFDF50126E15C0F6FF16C08D
:10554A00F7FF0800F5501218D8B4D6D713C0D9FF00
:10555A0014C0DAFFDF50126E15C0F6FF16C0F7FF4F
:10556A000800F550125C0C6E0D6AD8A00D061200E8
:10557A000E500F10D8B404D00E500F10D8A404D077
:10558A000C50CFEC2EF0120020EE04F00E50D9266B
:10559A000F50DA22DE50DE10D8B416D020EE04F016
:1055AA000E50D9260F50DA2210EE02F00E50E126E4
:1055BA000F50E222DE50E65CE650800A146EDE509E
:1055CA00800A1458D8B0120020EE02F00E50D926E4
:1055DA000F50DA22DECF10F0DDCF11F00EC0D9FF66
:1055EA000FC0DAFFDECF12F0DDCF13F01050122415
:1055FA00D96E11501320DA6E0CC0DFFF20EE02F0D4
:10560A000E50D9260F50DA22DE2A000EDD221200B1
:10561A006DA00AD01EC015F01FC016F01CC017F0EE
:10562A001DC018F0D3EC2DF021BE05D020C025F006
:10563A0021C026F004D0000E266E000E256E000E44
:10564A00246E000E236E0CD0000E0D6E200E0C6E12
:10565A001CC00EF01DC00FF0BDEC2AF0234A242A0C
:10566A002550235C2450800A226E2650800A225834
:10567A00D8A0EAD76DB00AD01EC015F01FC016F028
:10568A001CC017F01DC018F0D3EC2DF01EC00CF092
:10569A001FC00DF050EC2EF025500C241C6E265025
:1056AA000D201D6E1200000E0C14146E000E0D1447
:1056BA00156E800E0E14166E7F0E0F14176E145090
:1056CA00151016101710D8A408D0000E0C6E000E74
:1056DA000D6E000E0E6E000E0F6E000E1014146E7C
:1056EA00000E1114156E800E1214166E7F0E13140E
:1056FA00176E1450151016101710D8A408D0000EE3
:10570A00106E000E116E000E126E000E136E105007
:10571A000C180AE111500D1807E112500E1804E195
:10572A0013500F18D8B402D0D8901200D8801200A3
:10573A00000E116E0FAE06D00E6C0F1ED8B00F2AD7
:10574A00010E116E0DAE06D00C6C0D1ED8B00D2ACE
:10575A00010E111A000E136E000E126E0E500F106B
:10576A00D8B41CD0010E106E04D0D8900E360F3665
:10577A00102A0FAEFAD7D890123613360E500C5C98
:10578A000F500D58D8A005D00E500C5E0F500D5A70
:10579A001280D8900F320E32102EEDD71150D8B495
:1057AA0004D0126C131ED8B0132A12C00CF013C006
:1057BA000DF01200000E116E0DAE06D00C6C0D1E0F
:1057CA00D8B00D2A010E116E0FAE04D00E6C0F1E4A
:1057DA00D8B00F2A0E500F10D8B418D0010E106E80
:1057EA0004D0D8900E360F36102A0FAEFAD70E50C4
:1057FA000C5C0F500D58D8A004D00E500C5E0F5000
:10580A000D5AD8900F320E32102EF1D71150D8B44B
:10581A0004D00C6C0D1ED8B00D2A0CC00CF00DC0B3
:10582A000DF01200000E066E02AE06D0016C021ECA
:10583A00D8B0022A010E066E04AE04D0036C041E10
:10584A00D8B0042A03500410D8B418D0010E056E3B
:10585A0004D0D89003360436052A04AEFAD703508A
:10586A00015C04500258D8A004D00350015E0450D1
:10587A00025AD89004320332052EF1D70650D8B412
:10588A0004D0016C021ED8B0022A01C001F002C085
:10589A0002F012009A0EF66E5D0EF76E000EF86EAA
:1058AA0000EEFBF010EE04F00900F5CFEEFFE55034
:1058BA00E150FAE102EE00F0500EEE6AE806FDE170
:1058CA0001EEC6F0190EEE6AE806FDE100EEEDF013
:1058DA000E0EEE6AE806FDE100EE67F00C0EEE6AC7
:1058EA00E806FDE173907392000EF86E000113EF63
:1058FA002AF0E90E0101BE6F000EBF6FE5C0C0F1CC
:10590A00E6C0C1F1000EC36F000EC26F000EC56F74
:10591A00000EC46FC00E0001DD6F010EDE6FE7C01E
:10592A00DFF0E8C0E0F0BE0EE16F010EE26FD8ECE6
:10593A002CF00101C2510001E525D96E0101C351C4
:10594A000001E621DA6E000EDF6E1200000E0D6E07
:10595A00300E0C6EB4EC2EF0000E0D6E380E0C6E7E
:10596A00B4EC2EF0000E0D6E060E0C6EB4EC2EF09A
:10597A00000E0D6E0C0E0C6EB4EC2EF0000E0D6EB9
:10598A00010E0C6EB4EC2EF07D0E0E6E060E0F6E2E
:10599A00840EB6EC2DF0850E0E6E060E0F6EC50E39
:1059AA00B6EC2DF01200DFC0E3F0E0C0E4F0000E28
:1059BA000001FA6F000EF96F13D0DDC0C7F0DEC028
:1059CA00C8F0E30EC96F000ECA6FE1C0CBF0E2C0A7
:1059DA00CCF05DEC1DF00001C751F927C851FA233C
:1059EA00E3C0F6FFE4C0F7FF0800F5500009D8A4A9
:1059FA00E4D7F9C0DDF0FAC0DEF012000EC012F0F2
:105A0A000FC013F00CC014F00DC015F01250106E38
:105A1A001350116E124A132A10C0F6FF11C0F7FF75
:105A2A00F86A14C0D9FF15C0DAFF144A152A050E00
:105A3A00F76403D00800F55005D0F6CFE1FFF7CFA1
:105A4A00E2FFE750DF6EDF50D8B41200DFD7BF0E97
:105A5A00146EFF0E156E12C016F013C017F0145014
:105A6A00162615501722175006E11A0E165CD8B0E2
:105A7A0002D0010E01D0000E186E196A18501910C2
:105A8A00D8B406D0200E1210126E1350136E1200E4
:105A9A0012C012F013C013F01200000E391A000ED1
:105AAA003A1A000E3B1A800E3C1A35C00CF036C06A
:105ABA000DF037C00EF038C00FF039C010F03AC000
:105ACA0011F03BC012F03CC013F0DEEC20F00CC029
:105ADA0035F00DC036F00EC037F00FC038F01200A6
:105AEA00D50E7124D96E010E7220DA6EAECFDFFFA9
:105AFA00D50E7124D96E010E7220DA6EDF50BEEC1B
:105B0A002EF0714A722A71C001F072C002F0000EC2
:105B1A00046E0A0E036E17EC2CF001C071F002C07D
:105B2A0072F01200010E126E200E0C180D10D8B46D
:105B3A0014D0F70E0E6EFF0E0F6E0CC010F00DC0D3
:105B4A0011F00E5010260F501122115004E1050ECB
:105B5A00105CD8A002D0000E126E12C00CF00D6AB2
:105B6A001200106E10C00CF00D6AB4EC2EF00CD0BE
:105B7A000EC0F6FF0FC0F7FF0800F5500C6E0D6A55
:105B8A00AAEC2EF00E4A0F2A0EC0F6FF0FC0F7FF3E
:105B9A000800F5500009D8B41200EAD7000E1B6EAF
:105BAA00000E1A6E0BD019C00CF00D6A17C00EF059
:105BBA0018C00FF0BDEC2AF01A4A1B2A1A501524F5
:105BCA00D96E1B501620DA6EDF50196E1950D8B4F0
:105BDA001200E9D7EDC010F0EEC011F0EFC012F0DC
:105BEA00F0C013F00CC010F00DC011F00EC012F08E
:105BFA000FC013F0139E10C00CF011C00DF012C0AC
:105C0A000EF013C00FF01200BF0E0E6EFF0E0F6ED5
:105C1A000CC010F00DC011F00E5010260F501122BA
:105C2A00115006E11A0E105CD8B002D0010E01D054
:105C3A00000E0C6E0D6A1200D00E0E6EFF0E0F6E65
:105C4A000CC010F00DC011F00E5010260F5011228A
:105C5A00115006E10A0E105CD8B002D0010E01D034
:105C6A00000E0C6E0D6A12000C500D100E100F1063
:105C7A00D8B408D0000E0C1A000E0D1A000E0E1A17
:105C8A00800E0F1A0CC00CF00DC00DF00EC00EF0F5
:105C9A000FC00FF012000CC00EF00DC00FF002D0B2
:105CAA000C4A0D2A0CC0D9FF0DC0DAFFDF50D8A468
:105CBA00F7D70E500C5C0C6E0F500D580D6E12007B
:105CCA000C500E02F3CF10F0F4CF11F00C500F026B
:105CDA00F35011260D500E02F350112610C00CF08D
:105CEA0011C00DF01200FF0E106EFF0E116EFF0EA6
:105CFA00126E7F0E136E10C00CF011C00DF012C0A0
:105D0A000EF013C00FF01200C4EC2EF0C9EC2EF006
:105D1A00ABEC2CF0D0EC2EF094EC2EF01200030E2B
:105D2A00926E0D0EC16E940EC06E000EC46E000E01
:105D3A00C36E120006009EA406D082749E94000EC2
:105D4A00B36E000EB26E739211000CC083FF828094
:105D5A008282080EE82EFED700F0829212000CC052
:105D6A0083FF82908282080EE82EFED700F082928C
:105D7A001200016EACA2FED701C0ADFF1200000EE8
:105D8A00946E000E956E1200D38CD38AD3981200AB
:085D9A000000FA44120012009F
:020000040020DA
:08000000FFFFFFFFFFFFFFFF00
:020000040030CA
:0E000000FF881F00FF8381FF0FC00FE00F403D
:00000001FF
