:020000040000FA
:0400000007EF00F016
:0A0008007F82DCED27F071EF33F08A
:100600000000000000DCCFD1350000000000C01564
:100610003F6042A20D70A5EC363BAAB83F4F38763A
:100620003F3CAA38338CBEBF350072313F1872315F
:100630003F4CBB31330EEADDB555B38A38610B361A
:10064000BBABAA2A3E42F1533E55326C3E05A38B0A
:100650003EABAAAA3EB76DDB3E9A99193F6042A213
:100660000DCAF249710000804B269E783EEEE9915A
:100670003E13CECC3EAAAA2A3FDB27543580209ACF
:100680003ED9EA04B80060DE3E0000803F0000C0B2
:100690003F00AAB83FC623F6B80040763F25642E37
:1006A0002531642043202025642E25316420480014
:1006B0002564202564202564006D6F6E69746F7257
:1006C00000737461727400006FC0B8F170C0B9F14A
:1006D00071C0BAF172C0BBF1B8C160F1B9C161F1CA
:1006E000BAC162F1BBC163F173C0B8F174C0B9F1B2
:1006F00075C0BAF176C0BBF1B8C184F1B9C185F15A
:10070000BAC186F1BBC187F1FF0E01016015A86F68
:10071000FF0E6115A96FFF0E6215AA6F7F0E63159C
:10072000AB6FFF0E8415986FFF0E8515996FFF0E46
:1007300086159A6F7F0E87159B6F985199119A11A4
:100740009B11D8A409D0000E6F6E000E706E800E43
:10075000716E3F0E726E1200800E62190FE13F0E35
:10076000631960116111D8A409D0000E6F6E000EDC
:10077000706E800E716E3F0E726E1200ABBF09D0AC
:10078000A805000EA959800EAA597F0EAB59D8B002
:100790000BD09BBF24D09805000E9959800E9A5912
:1007A0007F0E9B59D8A01BD06FC001F070C002F023
:1007B00071C003F072C004F073C005F074C006F09D
:1007C00075C007F076C008F061EC22F001C06FF050
:1007D00002C070F003C071F004C072F01200000E8D
:1007E000506F000E516F000E526F000E536F63AFCB
:1007F000B1D09BBF0ED0800E9A5D4B0E9B59D8A0F6
:1008000008D0020E506F000E516F000E526F000E96
:10081000A0D09BBF9FD0800E9A5D3F0E9B59D8A061
:1008200099D0170E0001D26F98C1D3F099C1D4F0BE
:100830009AC1D5F09BC1D6F0D26701D007D0D6358A
:10084000D633D533D433D333D22FF6D7810E00012C
:10085000D3250101A06FFF0E0001D4210101A16F7A
:10086000FF0E0001D5210101A26FFF0E0001D6216C
:100870000101A36FA05117080001D26F98C1D3F0F6
:1008800099C1D4F09AC1D5F09BC1D6F0D26701D0FE
:1008900007D0D635D633D533D433D333D22FF6D78A
:1008A000D3C0ACF1D4C0ADF1D5C0AEF1D6C0AFF17C
:1008B0000101A05117080001D26FACC1D3F0ADC146
:1008C000D4F0AEC1D5F0AFC1D6F0D22B05D0D890C0
:1008D000D337D437D537D637D22FF9D7010198512E
:1008E0000001D31937E1010199510001D41932E116
:1008F00001019A510001D5192DE101019B5100011F
:10090000D619D8A427D0010E0101AC150001D26F71
:10091000000E0101AD150001D36F000E0101AE15EF
:100920000001D46F000E0101AF150001D56FD25147
:1009300002080101506F000E0001D3550101516FF3
:10094000000E0001D4550101526F000E0001D55573
:100950000101536F800E01019A1955E17F0E9B1919
:1009600098119911D8A44FD0800EAA190FE13F0E0B
:10097000AB19A811A911D8A409D0000E6F6E000EF2
:10098000706E800E716E3F0E726E1200ABBF1DD086
:10099000A805000EA959800EAA593F0EAB59D8A040
:1009A00014D087AF09D0000E6F6E000E706E000E6F
:1009B000716E000E726E120073C06FF074C070F032
:1009C00075C071F076C072F0120087AF13D073C09B
:1009D00001F074C002F075C003F076C004F0C5ECFD
:1009E00035F001C06FF002C070F003C071F004C0B8
:1009F00072F01200000E6F6E000E706E000E716EBF
:100A0000000E726E1200800E9A192CE13F0E9B1997
:100A100098119911D8A426D087AF1BD0000E326E42
:100A2000000E336E800E346E3F0E356E6FC036F0A2
:100A300070C037F071C038F072C039F098EC26F011
:100A400032C06FF033C070F034C071F035C072F056
:100A500012006FC06FF070C070F071C071F072C0A2
:100A600072F01200400E8719841185118611D8A4E6
:100A70001BD06FC011F070C012F071C013F072C0C3
:100A800014F06FC015F070C016F071C017F072C08E
:100A900018F031EC1FF011C06FF012C070F013C0ED
:100AA00071F014C072F012003F0E87198411851185
:100AB0008611D8B463BF13D06FC03EF070C03FF052
:100AC00071C040F072C041F074EC1BF03EC06FF09A
:100AD0003FC070F040C071F041C072F012006FC0B2
:100AE00001F070C002F071C003F072C004F003ECBA
:100AF00035F001C070F102C071F103C072F104C0A1
:100B000073F1800E0101AA1906E17F0EAB19A8113D
:100B1000A911D8B40FD0A851A911AA11AB11D8B4FA
:100B200009D0800EAA1905E13F0EAB19A811A91131
:100B3000D8A4B5D070C1B4F171C1B5F172C1B6F12C
:100B400073C1B7F187AF1AD0000E326E000E336E4C
:100B5000800E346E3F0E356EB4C136F0B5C137F03D
:100B6000B6C138F0B7C139F098EC26F032C0B4F114
:100B700033C0B5F134C0B6F135C0B7F1010163AF90
:100B800085D0000EA8250001D26F000E0101A92119
:100B90000001D36F800E0101AA210001D46FC00EA5
:100BA0000101AB210001D56F010150510001D211AB
:100BB000D66F010151510001D311D76F010152517C
:100BC0000001D411D86F010153510001D511D96F23
:100BD000D651D711D811D911D8A43FD0B4C12EF015
:100BE000B5C12FF0B6C130F0B7C131F0B4C12AF0B1
:100BF000B5C12BF0B6C12CF0B7C12DF0A5EC34F087
:100C00002AC032F02BC033F02CC034F02DC035F0A8
:100C1000B4C12EF0B5C12FF0B6C130F0B7C131F07C
:100C2000B4C12AF0B5C12BF0B6C12CF0B7C12DF07C
:100C3000A5EC34F02AC036F02BC037F02CC038F0C9
:100C40002DC039F098EC26F032C0B4F133C0B5F1C4
:100C500034C0B6F135C0B7F119D0010150055111BA
:100C600052115311D8A412D0B4C101F0B5C102F091
:100C7000B6C103F0B7C104F0C5EC35F001C0B4F162
:100C800002C0B5F103C0B6F104C0B7F1B4C16FF052
:100C9000B5C170F0B6C171F0B7C172F01200000EAC
:100CA000886F000E896F800E8A6F3F0E8B6F63AF67
:100CB00053D05051511152115311D8A43FD06FC08D
:100CC0002EF070C02FF071C030F072C031F06FC0E4
:100CD0002AF070C02BF071C02CF072C02DF0A5EC82
:100CE00034F02AC032F02BC033F02CC034F02DC0C9
:100CF00035F06FC02EF070C02FF071C030F072C0B0
:100D000031F06FC02AF070C02BF071C02CF072C0AF
:100D10002DF0A5EC34F02AC036F02BC037F02CC0F3
:100D200038F02DC039F098EC26F032C06FF033C0A7
:100D300070F034C071F035C072F0120050055111DE
:100D400052115311D8A408D0000E886F000E896F7D
:100D5000800E8A6FBF0E8B6F9BBF6BD29805000E03
:100D60009959000E9A594D0E9B59D8A062D2ABBF2B
:100D70000AD0F80EA85DFF0EA9597F0EAA593F0EA2
:100D8000AB59D8B06CD087BF35D0600E156E420E0F
:100D9000166EA20E176E0D0E186E88C111F089C165
:100DA00012F08AC113F08BC114F031EC1FF011C0A6
:100DB000A4F112C0A5F113C0A6F114C0A7F1A4C1FB
:100DC00011F0A5C112F0A6C113F0A7C114F0600E76
:100DD000156E420E166EA20E176E0D0E186E31ECC9
:100DE0001FF011C06FF012C070F013C071F014C08A
:100DF00072F01200CA0E156EF20E166E490E176EC4
:100E0000710E186E88C111F089C112F08AC113F0F9
:100E10008BC114F031EC1FF011C0A4F112C0A5F188
:100E200013C0A6F114C0A7F1A4C111F0A5C112F01E
:100E3000A6C113F0A7C114F0CA0E156EF20E166EFD
:100E4000490E176E710E186E31EC1FF011C06FF065
:100E500012C070F013C071F014C072F01200ABBF7A
:100E60007DD0080EA85D000EA959800EAA593F0E2C
:100E7000AB59D8A073D087BF07D087518611851191
:100E800038E18405D8B035D0600E156E420E166E6E
:100E9000A20E176E0D0E186E88C111F089C112F0E6
:100EA0008AC113F08BC114F031EC1FF011C0A4F112
:100EB00012C0A5F113C0A6F114C0A7F1A4C111F08E
:100EC000A5C112F0A6C113F0A7C114F0600E156EF3
:100ED000420E166EA20E176E0D0E186E31EC1FF03C
:100EE00011C06FF012C070F013C071F014C072F036
:100EF0001200CA0E156EF20E166E490E176E710EA6
:100F0000186E88C111F089C112F08AC113F08BC12B
:100F100014F031EC1FF011C0A4F112C0A5F113C000
:100F2000A6F114C0A7F1A4C111F0A5C112F0A6C189
:100F300013F0A7C114F0CA0E156EF20E166E490E0C
:100F4000176E710E186E31EC1FF011C06FF012C0E9
:100F500070F013C071F014C072F0120070C101F093
:100F600071C102F072C103F073C104F0000E056E8E
:100F7000000E066E800E076EBF0E086E61EC22F04A
:100F800001C0B0F102C0B1F103C0B2F104C0B3F1CD
:100F9000000E156E000E166E800E176E3E0E186E49
:100FA000B0C111F0B1C112F0B2C113F0B3C114F06D
:100FB00031EC1FF011C02EF012C02FF013C030F032
:100FC00014C031F0AB0E2A6EAA0E2B6EAA0E2C6E38
:100FD0003E0E2D6EA5EC34F02AC0A4F12BC0A5F175
:100FE0002CC0A6F12DC0A7F1B0C115F0B1C116F00B
:100FF000B2C117F0B3C118F0B0C111F0B1C112F015
:10100000B2C113F0B3C114F031EC1FF011C054F1B0
:1010100012C055F113C056F114C057F1B0C115F00C
:10102000B1C116F0B2C117F0B3C118F0A4C111F0EC
:10103000A5C112F0A6C113F0A7C114F031EC1FF046
:1010400011C02EF012C02FF013C030F014C031F0D8
:10105000000E2A6E000E2B6E000E2C6E3F0E2D6EB3
:10106000A5EC34F02AC048F12BC049F12CC04AF15C
:101070002DC04BF154C111F055C112F056C113F0FF
:1010800057C114F048C115F049C116F04AC117F014
:101090004BC118F031EC1FF011C044F112C045F102
:1010A00013C046F114C047F1B0C111F0B1C112F044
:1010B000B2C113F0B3C114F0000E156EAA0E166E75
:1010C000B80E176E3F0E186E31EC1FF011C074F1A0
:1010D00012C075F113C076F114C077F1700E156E61
:1010E000A50E166EEC0E176E360E186EB0C111F00E
:1010F000B1C112F0B2C113F0B3C114F031EC1FF062
:1011000011C02AF012C02BF013C02CF014C02DF027
:101110003B0E156EAA0E166EB80E176E3F0E186EA9
:1011200044C111F045C112F046C113F047C114F09B
:1011300031EC1FF011C02EF012C02FF013C030F0B0
:1011400014C031F0A5EC34F02AC078F12BC079F14D
:101150002CC07AF12DC07BF174C101F075C102F091
:1011600076C103F077C104F078C105F079C106F0CB
:101170007AC107F07BC108F061EC22F001C080F178
:1011800002C081F103C082F104C083F180C1B8F1D3
:1011900081C1B9F182C1BAF183C1BBF1B8C190F18B
:1011A000B9C191F1BAC192F1BBC193F1000E010135
:1011B0009015B86FF00E9115B96FFF0E9215BA6FBA
:1011C000FF0E9315BB6FB8C180F1B9C181F1BAC1EF
:1011D00082F1BBC183F174C12EF075C12FF076C1CD
:1011E00030F077C131F080C12AF081C12BF082C18B
:1011F0002CF083C12DF0A5EC34F02AC094F12BC063
:1012000095F12CC096F12DC097F178C12AF079C1E3
:101210002BF07AC12CF07BC12DF094C12EF095C13A
:101220002FF096C130F097C131F0A5EC34F060EFAB
:1012300010F0000E7C6F000E7D6F000E7E6F000EB2
:101240007F6FABBF06D0AB5137E1800EAA5DD8B03F
:1012500033D070C111F071C112F072C113F073C1BB
:1012600014F0000E156E000E166E800E176E4B0EEB
:10127000186E31EC1FF011C070F112C071F113C083
:1012800072F114C073F1E80E01017C27FF0E7D237B
:10129000FF0E7E23FF0E7F2370C1B8F171C1B9F13B
:1012A00072C1BAF173C1BBF1B8C1A8F1B9C1A9F15A
:1012B000BAC1AAF1BBC1ABF1170E0001D26FA8C130
:1012C000D3F0A9C1D4F0AAC1D5F0ABC1D6F0D26792
:1012D00001D007D0D635D633D533D433D333D22F3C
:1012E000F6D7810E0001D325D76FFF0ED421D86F1A
:1012F000FF0ED521D96FFF0ED621DA6FD75101012C
:101300007C270001D85101017D230001D951010141
:101310007E230001DA5101017F23FF0EA815AC6F77
:10132000FF0EA915AD6F7F0EAA15AE6F000EAB159F
:10133000AF6F000EAC11A86F000EAD11A96F800E3B
:10134000AE11AA6F3F0EAF11AB6FAFBF0AD0AF5156
:101350000AE1720EAC5DC40EAD591C0EAE59D8B088
:1013600002D0000E0DD0AFBF0AD0AF5111E1D70EA1
:10137000AC5DB30EAD595D0EAE59D8B009D0010EBB
:10138000A06F000EA16F000EA26F000EA36F16D00B
:10139000000EA06F000EA16F000EA26F000EA36FD3
:1013A000010E7C27000E7D237E237F23000EA827BD
:1013B000000EA923800EAA23FF0EAB23A8C1B8F10B
:1013C000A9C1B9F1AAC1BAF1ABC1BBF1B8C170F101
:1013D000B9C171F1BAC172F1BBC173F170C12AF028
:1013E00071C12BF072C12CF073C12DF0A0C1D2F0ED
:1013F000A1C1D3F00001D890D237D337D890D237DB
:10140000D337890ED225F66E060ED321F76E09006A
:10141000F5CF2EF00900F5CF2FF00900F5CF30F011
:101420000A00F5CF31F0A5EC34F02AC074F12BC0DE
:1014300075F12CC076F12DC077F1000E326E000EE2
:10144000336E800E346E3F0E356E70C105F071C183
:1014500006F072C107F073C108F0A0C1D2F0A1C1BB
:10146000D3F00001D890D237D337D890D237D337C2
:10147000890ED225F66E060ED321F76E0900F5CF40
:1014800001F00900F5CF02F00900F5CF03F00A00E2
:10149000F5CF04F061EC22F001C036F002C037F065
:1014A00003C038F004C039F098EC26F032C078F16F
:1014B00033C079F134C07AF135C07BF174C111F0D9
:1014C00075C112F076C113F077C114F078C115F030
:1014D00079C116F07AC117F07BC118F031EC1FF01A
:1014E00011C05CF112C05DF113C05EF114C05FF178
:1014F0005CC16CF15DC16DF15EC16EF15FC16FF1F8
:101500006CC1B8F16DC1B9F16EC1BAF16FC1BBF177
:10151000B8C190F1B9C191F1BAC192F1BBC193F1D7
:10152000000E01019015B86FF00E9115B96FFF0E06
:101530009215BA6FFF0E9315BB6FB8C16CF1B9C1AC
:101540006DF1BAC16EF1BBC16FF1A8C1D2F0A9C1F2
:10155000D3F0AAC1D4F0ABC1D5F00001D535D53355
:10156000D433D333D233000ED215D66FF00ED31549
:10157000D76FFF0ED415D86FFF0ED515D96F000E9B
:10158000D6110101906F000E0001D7110101916F7A
:10159000000E0001D8110101926F200E0001D91137
:1015A0000101936FA0C1D2F0A1C1D3F0A2C1D4F0C8
:1015B000A3C1D5F0150ED8900001D237D337D43758
:1015C000D537E82EF8D7010190510001D225D66F0A
:1015D000010191510001D321D76F01019251000106
:1015E000D421D86F010193510001D521D96F000E8C
:1015F000D6250101B86F000E0001D7210101B96F96
:10160000400E0001D8210101BA6F000E0001D9215E
:101610000101BB6FB8C168F1B9C169F1BAC16AF122
:10162000BBC16BF1A0C1D2F0A1C1D3F00001D89031
:10163000D237D337D890D237D337890ED225F66E2A
:10164000060ED321F76E0900F5CF2EF00900F5CF75
:101650002FF00900F5CF30F00A00F5CF31F068C166
:101660002AF069C12BF06AC12CF06BC12DF0A5ECFA
:1016700034F02AC094F12BC095F12CC096F12DC006
:1016800097F170C12AF071C12BF072C12CF073C1B7
:101690002DF094C12EF095C12FF096C130F097C176
:1016A00031F0A5EC34F02AC034F12BC035F12CC058
:1016B00036F12DC037F168C115F069C116F06AC165
:1016C00017F06BC118F06CC111F06DC112F06EC152
:1016D00013F06FC114F031EC1FF011C02EF012C0E6
:1016E0002FF013C030F014C031F074C12AF075C16E
:1016F0002BF076C12CF077C12DF0A5EC34F02AC088
:1017000094F12BC095F12CC096F12DC097F134C106
:1017100015F035C116F036C117F037C118F06CC19D
:1017200011F06DC112F06EC113F06FC114F031EC05
:101730001FF011C02EF012C02FF013C030F014C0F3
:1017400031F094C12AF095C12BF096C12CF097C1CD
:101750002DF0A5EC34F02AC054F12BC055F12CC06B
:1017600056F12DC057F154C111F055C112F056C1B8
:1017700013F057C114F078C115F079C116F07AC191
:1017800017F07BC118F031EC1FF011C030F112C01E
:1017900031F113C032F114C033F15CC111F05DC1FD
:1017A00012F05EC113F05FC114F05CC115F05DC1B1
:1017B00016F05EC117F05FC118F031EC1FF011C0D8
:1017C0008CF112C08DF113C08EF114C08FF1550E43
:1017D000056E320E066E6C0E076E3E0E086E420EE1
:1017E000156EF10E166E530E176E3E0E186E8CC1EE
:1017F00011F08DC112F08EC113F08FC114F031ECD5
:101800001FF011C001F012C002F013C003F014C0A9
:1018100004F061EC22F001C0A4F102C0A5F103C004
:10182000A6F104C0A7F1050E056EA30E066E8B0E81
:10183000076E3E0E086E8CC115F08DC116F08EC17C
:1018400017F08FC118F0A4C111F0A5C112F0A6C104
:1018500013F0A7C114F031EC1FF011C001F012C059
:1018600002F013C003F014C004F061EC22F001C0D8
:1018700054F102C055F103C056F104C057F1AB0E4C
:10188000056EAA0E066EAA0E076E3E0E086E8CC17D
:1018900015F08DC116F08EC117F08FC118F054C12C
:1018A00011F055C112F056C113F057C114F031ECCC
:1018B0001FF011C001F012C002F013C003F014C0F9
:1018C00004F061EC22F001C048F102C049F103C00C
:1018D0004AF104C04BF1B70E056E6D0E066EDB0EBD
:1018E000076E3E0E086E8CC115F08DC116F08EC1CC
:1018F00017F08FC118F048C111F049C112F04AC168
:1019000013F04BC114F031EC1FF011C001F012C004
:1019100002F013C003F014C004F061EC22F001C027
:101920003CF102C03DF103C03EF104C03FF19A0E0C
:10193000056E990E066E190E076E3F0E086E8CC16D
:1019400015F08DC116F08EC117F08FC118F03CC193
:1019500011F03DC112F03EC113F03FC114F031EC63
:101960001FF011C001F012C002F013C003F014C048
:1019700004F061EC22F001C004F102C005F103C0E3
:1019800006F104C007F18CC115F08DC116F08EC1AF
:1019900017F08FC118F08CC111F08DC112F08EC1FB
:1019A00013F08FC114F031EC1FF011C008F112C018
:1019B00009F113C00AF114C00BF104C111F005C103
:1019C00012F006C113F007C114F008C115F009C1E7
:1019D00016F00AC117F00BC118F031EC1FF011C05E
:1019E0004CF112C04DF113C04EF114C04FF130C193
:1019F00015F031C116F032C117F033C118F05CC1D7
:101A000005F05DC106F05EC107F05FC108F06CC172
:101A100001F06DC102F06EC103F06FC104F061EC22
:101A200022F001C011F002C012F003C013F004C094
:101A300014F031EC1FF011C058F112C059F113C06D
:101A40005AF114C05BF14CC101F04DC102F04EC11E
:101A500003F04FC104F058C105F059C106F05AC156
:101A600007F05BC108F061EC22F001C04CF102C04C
:101A70004DF103C04EF104C04FF16CC111F06DC1C6
:101A800012F06EC113F06FC114F06CC115F06DC18E
:101A900016F06EC117F06FC118F031EC1FF011C0D5
:101AA0008CF112C08DF113C08EF114C08FF1000EB5
:101AB000056E000E066E400E076E400E086E8CC15D
:101AC00001F08DC102F08EC103F08FC104F061EC12
:101AD00022F001C058F102C059F103C05AF104C00C
:101AE0005BF158C101F059C102F05AC103F05BC16A
:101AF00004F04CC105F04DC106F04EC107F04FC1D6
:101B000008F061EC22F001C068F102C069F103C085
:101B10006AF104C06BF168C1B8F169C1B9F16AC179
:101B2000BAF16BC1BBF1B8C190F1B9C191F1BAC1C1
:101B300092F1BBC193F1000E01019015B86FF00E48
:101B40009115B96FFF0E9215BA6FFF0E9315BB6F0B
:101B5000B8C168F1B9C169F1BAC16AF1BBC16BF131
:101B6000000E056E000E066E400E076EC00E086E6B
:101B700068C101F069C102F06AC103F06BC104F0F1
:101B800061EC22F001C040F102C041F103C042F11A
:101B900004C043F18CC12EF08DC12FF08EC130F006
:101BA0008FC131F040C12AF041C12BF042C12CF06D
:101BB00043C12DF0A5EC34F02AC038F12BC039F127
:101BC0002CC03AF12DC03BF14CC12AF04DC12BF095
:101BD0004EC12CF04FC12DF038C12EF039C12FF07D
:101BE0003AC130F03BC131F0A5EC34F02AC034F1F9
:101BF0002BC035F12CC036F12DC037F16CC111F07E
:101C00006DC112F06EC113F06FC114F068C115F010
:101C100069C116F06AC117F06BC118F031EC1FF002
:101C200011C074F112C075F113C076F114C077F1D0
:101C300068C115F069C116F06AC117F06BC118F0E0
:101C400030C111F031C112F032C113F033C114F0C0
:101C500031EC1FF011C001F012C002F013C003F00C
:101C600014C004F05CC115F05DC116F05EC117F040
:101C70005FC118F034C111F035C112F036C113F054
:101C800037C114F031EC1FF011C005F012C006F09E
:101C900013C007F014C008F061EC22F001C078F125
:101CA00002C079F103C07AF104C07BF174C101F084
:101CB00075C102F076C103F077C104F078C105F078
:101CC00079C106F07AC107F07BC108F061EC22F01F
:101CD00001C09CF102C09DF103C09EF104C09FF1C0
:101CE0009CC1B8F19DC1B9F19EC1BAF19FC1BBF1D0
:101CF000B8C190F1B9C191F1BAC192F1BBC193F1F0
:101D0000000E01019015B86FF00E9115B96FFF0E1E
:101D10009215BA6FFF0E9315BB6FB8C19CF1B9C194
:101D20009DF1BAC19EF1BBC19FF174C12EF075C186
:101D30002FF076C130F077C131F09CC12AF09DC1FF
:101D40002BF09EC12CF09FC12DF0A5EC34F02AC0E1
:101D500094F12BC095F12CC096F12DC097F178C16C
:101D60002AF079C12BF07AC12CF07BC12DF094C1FF
:101D70002EF095C12FF096C130F097C131F0A5EC4F
:101D800034F02AC064F12BC065F12CC066F12DC07F
:101D900067F19CC111F09DC112F09EC113F09FC16B
:101DA00014F0000E156E400E166E760E176E3F0E76
:101DB000186E31EC1FF011C020F112C021F113C0D8
:101DC00022F114C023F14F0E156E380E166E760EEA
:101DD000176E3F0E186E64C111F065C112F066C136
:101DE00013F067C114F031EC1FF011C005F012C000
:101DF00006F013C007F014C008F0C60E156E230ECF
:101E0000166EF60E176EB80E186E9CC111F09DC1BD
:101E100012F09EC113F09FC114F031EC1FF011C0FD
:101E200001F012C002F013C003F014C004F061EC22
:101E300022F001C058F102C059F103C05AF104C0A8
:101E40005BF158C101F059C102F05AC103F05BC106
:101E500004F0A0C1D2F0A1C1D3F00001D890D237D4
:101E6000D337D890D237D337010ED225F66E060E6F
:101E7000D321F76E0900F5CF05F00900F5CF06F084
:101E80000900F5CF07F00A00F5CF08F061EC22F069
:101E900001C024F102C025F103C026F104C027F1DE
:101EA0007CC101F07DC102F07EC103F07FC104F06E
:101EB000010EB9EC2FF001C0B0F102C0B1F103C0C6
:101EC000B2F104C0B3F124C105F025C106F026C16A
:101ED00007F027C108F020C101F021C102F022C1A2
:101EE00003F023C104F061EC22F001C058F102C0FC
:101EF00059F103C05AF104C05BF1A0C1D2F0A1C1F5
:101F0000D3F00001D890D237D337D890D237D33717
:101F1000090ED225F66E060ED321F76E0900F5CF15
:101F200005F00900F5CF06F00900F5CF07F00A002B
:101F3000F5CF08F058C101F059C102F05AC103F0C1
:101F40005BC104F061EC22F001C00CF102C00DF1A4
:101F500003C00EF104C00FF10CC101F00DC102F07D
:101F60000EC103F00FC104F0B0C105F0B1C106F01D
:101F7000B2C107F0B3C108F061EC22F001C080F1FA
:101F800002C081F103C082F104C083F180C1B8F1C5
:101F900081C1B9F182C1BAF183C1BBF1B8C190F17D
:101FA000B9C191F1BAC192F1BBC193F1000E010127
:101FB0009015B86FF00E9115B96FFF0E9215BA6FAC
:101FC000FF0E9315BB6FB8C180F1B9C181F1BAC1E1
:101FD00082F1BBC183F1B0C12EF0B1C12FF0B2C10B
:101FE00030F0B3C131F080C12AF081C12BF082C141
:101FF0002CF083C12DF0A5EC34F02AC094F12BC055
:1020000095F12CC096F12DC097F1A0C1D2F0A1C1DD
:10201000D3F00001D890D237D337D890D237D33706
:10202000090ED225F66E060ED321F76E0900F5CF04
:102030002EF00900F5CF2FF00900F5CF30F00A009F
:10204000F5CF31F094C12AF095C12BF096C12CF058
:1020500097C12DF0A5EC34F02AC038F12BC039F12E
:102060002CC03AF12DC03BF120C12EF021C12FF040
:1020700022C130F023C131F038C12AF039C12BF030
:102080003AC12CF03BC12DF0A5EC34F02AC000F190
:102090002BC001F12CC002F12DC003F124C12AF0A4
:1020A00025C12BF026C12CF027C12DF000C12EF048
:1020B00001C12FF002C130F003C131F0A5EC34F0C2
:1020C0002AC01CF12BC01DF12CC01EF12DC01FF128
:1020D00073C0B8F174C0B9F175C0BAF176C0BBF184
:1020E000B8C190F1B9C191F1BAC192F1BBC193F1FC
:1020F000000E01019015B86FF00E9115B96FFF0E2B
:102100009215BA6FFF0E9315BB6FB8C128F1B9C114
:1021100029F1BAC12AF1BBC12BF180C115F081C1EF
:1021200016F082C117F083C118F028C12EF029C122
:102130002FF02AC130F02BC131F073C02AF074C0E7
:102140002BF075C02CF076C02DF0A5EC34F02AC031
:1021500011F02BC012F02CC013F02DC014F031EC94
:102160001FF011C010F112C011F113C012F114C010
:1021700013F110C101F011C102F012C103F013C13B
:1021800004F01CC115F01DC116F01EC117F01FC1CF
:1021900018F073C011F074C012F075C013F076C05F
:1021A00014F031EC1FF011C005F012C006F013C09E
:1021B00007F014C008F061EC22F001C064F102C025
:1021C00065F103C066F104C067F128C111F029C1AF
:1021D00012F02AC113F02BC114F080C115F081C197
:1021E00016F082C117F083C118F031EC1FF011C056
:1021F0009CF112C09DF113C09EF114C09FF164C107
:1022000001F065C102F066C103F067C104F09CC132
:1022100005F09DC106F09EC107F09FC108F061EC7A
:1022200022F001C0B4F102C0B5F103C0B6F104C0A0
:10223000B7F1B4C1B8F1B5C1B9F1B6C1BAF1B7C11E
:10224000BBF1B8C1ACF1B9C1ADF1BAC1AEF1BBC11E
:10225000AFF10101AFBF3ED0AC05000EAD59000E8D
:10226000AE59430EAF59D8A035D0CA0E156EF20E36
:10227000166E490E176E710E186E88C111F089C165
:1022800012F08AC113F08BC114F031EC1FF011C0B1
:10229000A4F112C0A5F113C0A6F114C0A7F1A4C106
:1022A00011F0A5C112F0A6C113F0A7C114F0CA0E17
:1022B000156EF20E166E490E176E710E186E31EC19
:1022C0001FF011C06FF012C070F013C071F014C095
:1022D00072F01200430EAF19AC11AD11AE11D8A4BB
:1022E0006DD09CC12EF09DC12FF09EC130F09FC1DA
:1022F00031F0B4C12AF0B5C12BF0B6C12CF0B7C192
:102300002DF0A5EC34F02AC032F02BC033F02CC0F5
:1023100034F02DC035F03C0E056EAA0E066E380E58
:10232000076E330E086E64C101F065C102F066C12C
:1023300003F067C104F061EC22F001C036F002C086
:1023400037F003C038F004C039F00EEC32F0D8B0EA
:10235000EDD0CA0E156EF20E166E490E176E710E86
:10236000186E88C111F089C112F08AC113F08BC1B7
:1023700014F031EC1FF011C0A4F112C0A5F113C08C
:10238000A6F114C0A7F1A4C111F0A5C112F0A6C115
:1023900013F0A7C114F0CA0E156EF20E166E490E98
:1023A000176E710E186E31EC1FF011C06FF012C075
:1023B00070F013C071F014C072F01200FF0EAC1573
:1023C0000001D26FFF0E0101AD150001D36FFF0EAA
:1023D0000101AE150001D46F7F0E0101AF150001A0
:1023E000D56FD5BF3ED0D205000ED359160ED459A5
:1023F000430ED559D8A035D0600E156E420E166E1C
:10240000A20E176E0D0E186E88C111F089C112F060
:102410008AC113F08BC114F031EC1FF011C0A4F18C
:1024200012C0A5F113C0A6F114C0A7F1A4C111F008
:10243000A5C112F0A6C113F0A7C114F0600E156E6D
:10244000420E166EA20E176E0D0E186E31EC1FF0B6
:1024500011C06FF012C070F013C071F014C072F0B0
:102460001200160E0101AE1961E1C30EAF19AC11D5
:10247000AD11D8A45BD09CC12EF09DC12FF09EC1A0
:1024800030F09FC131F0B4C12AF0B5C12BF0B6C114
:102490002CF0B7C12DF0A5EC34F02AC032F02BC0DF
:1024A00033F02CC034F02DC035F064C136F065C176
:1024B00037F066C138F067C139F00EEC32F0D8A0C1
:1024C00035D0600E156E420E166EA20E176E0D0EF2
:1024D000186E88C111F089C112F08AC113F08BC146
:1024E00014F031EC1FF011C0A4F112C0A5F113C01B
:1024F000A6F114C0A7F1A4C111F0A5C112F0A6C1A4
:1025000013F0A7C114F0600E156E420E166EA20EE7
:10251000176E0D0E186E31EC1FF011C06FF012C067
:1025200070F013C071F014C072F01200FF0E0101C0
:10253000AC152C6FFF0EAD152D6FFF0EAE152E6F67
:102540007F0EAF152F6F170E0001D26F2CC1D3F085
:102550002DC1D4F02EC1D5F02FC1D6F0D26701D055
:1025600007D0D635D633D533D433D333D22FF6D79D
:10257000810E0001D3250101A06FFF0E0001D421BF
:102580000101A16FFF0E0001D5210101A26FFF0E15
:102590000001D6210101A36F000E7C6F000E7D6F3C
:1025A000000E7E6F000E7F6F2FBFFCD02C05000E3B
:1025B0002D59000E2E593F0E2F59D8A0F3D0A0C18F
:1025C000D2F0010E0001D227000ED36F000ED46F9F
:1025D000800ED56F000ED66FD26701D007D0D635EA
:1025E000D633D533D433D333D22FF6D70101AC5100
:1025F0000001D32501017C6FAD510001D4210101FF
:102600007D6FAE510001D52101017E6FAF510001F8
:10261000D62101017F6F810E0001D26FFF0ED36FB3
:10262000FF0ED46FFF0ED56F170ED66F7CC1D7F09B
:102630007DC1D8F07EC1D9F07FC1DAF0D66701D074
:1026400007D0DA35DA33D933D833D733D62FF6D7A4
:102650000001D751D2250101A06F000E0001D32146
:102660000101A16F000E0001D4210101A26F000E33
:102670000001D5210101A36FA0C1D2F0FF0E00011E
:10268000D36FFF0ED46F7F0ED56F000ED66FD2675B
:1026900001D007D0D635D633D533D433D333D22F68
:1026A000F6D70001D31DD76FD41DD86FD51DD96FB4
:1026B000D61DDA6F01017C510001D7150101B86FF9
:1026C0007D510001D8150101B96F7E510001D91566
:1026D0000101BA6F7F510001DA150101BB6FB8C16A
:1026E000B0F1B9C1B1F1BAC1B2F1BBC1B3F1A051FE
:1026F00017080001D26FFF0E01017C150001D36F96
:10270000FF0E01017D150001D46F7F0E01017E15C2
:102710000001D56F000E01017F150001D66F000E7C
:10272000D311D76F000ED411D86F800ED511D96F89
:10273000000ED611DA6FD26701D007D0DA35DA335E
:10274000D933D833D733D22FF6D7D7C07CF1D8C0FE
:102750007DF1D9C07EF1DAC07FF10101AFAF08D0C1
:102760007F1F7E1F7D1F7C6D000E7D237E237F23B8
:102770009CC12AF09DC12BF09EC12CF09FC12DF071
:10278000B0C12EF0B1C12FF0B2C130F0B3C131F001
:10279000A5EC34F02AC09CF12BC09DF12CC09EF119
:1027A0002DC09FF164C101F065C102F066C103F064
:1027B00067C104F09CC105F09DC106F09EC107F001
:1027C0009FC108F061EC22F001C0B0F102C0B1F18C
:1027D00003C0B2F104C0B3F1B0C1B8F1B1C1B9F1F5
:1027E000B2C1BAF1B3C1BBF1B8C190F1B9C191F1B5
:1027F000BAC192F1BBC193F1000E01019015B86FFF
:10280000800E9115B96FFF0E9215BA6FFF0E9315DA
:10281000BB6FB8C1B0F1B9C1B1F1BAC1B2F1BBC1BE
:10282000B3F1B0C111F0B1C112F0B2C113F0B3C134
:1028300014F0000E156E720E166E310E176E3F0EEE
:10284000186E31EC1FF011C074F112C075F113C095
:1028500076F114C077F19CC12EF09DC12FF09EC17E
:1028600030F09FC131F0B0C12AF0B1C12BF0B2C13C
:102870002CF0B3C12DF0A5EC34F02AC094F12BC09C
:1028800095F12CC096F12DC097F1180E156E720EB1
:10289000166E310E176E3F0E186E94C12EF095C154
:1028A0002FF096C130F097C131F064C12AF065C1B4
:1028B0002BF066C12CF067C12DF0A5EC34F02AC0D6
:1028C00011F02BC012F02CC013F02DC014F031EC1D
:1028D0001FF011C014F112C015F113C016F114C08D
:1028E00017F114C101F015C102F016C103F017C1B0
:1028F00004F08C0E156EBE0E166EBF0E176E350EE2
:10290000186EB0C111F0B1C112F0B2C113F0B3C171
:1029100014F031EC1FF011C005F012C006F013C026
:1029200007F014C008F061EC22F001C078F102C099
:1029300079F103C07AF104C07BF174C101F075C173
:1029400002F076C103F077C104F078C105F079C1D7
:1029500006F07AC107F07BC108F061EC22F001C0FB
:10296000B4F102C0B5F103C0B6F104C0B7F174C14F
:102970002EF075C12FF076C130F077C131F0B4C1BF
:102980002AF0B5C12BF0B6C12CF0B7C12DF0A5ECE3
:1029900034F02AC094F12BC095F12CC096F12DC0D3
:1029A00097F178C12AF079C12BF07AC12CF07BC164
:1029B0002DF094C12EF095C12FF096C130F097C143
:1029C00031F0A5EC34F02AC044F12BC045F12CC005
:1029D00046F12DC047F1B4C111F0B5C112F0B6C136
:1029E00013F0B7C114F0B4C115F0B5C116F0B6C1FB
:1029F00017F0B7C118F031EC1FF011C0B0F112C0E0
:102A0000B1F113C0B2F114C0B3F10E0E056EEA0EAF
:102A1000066EDD0E076EB50E086E4C0E156EBB0E03
:102A2000166E310E176E330E186EB0C111F0B1C1B3
:102A300012F0B2C113F0B3C114F031EC1FF011C0A9
:102A400001F012C002F013C003F014C004F061ECF6
:102A500022F001C0A4F102C0A5F103C0A6F104C098
:102A6000A7F1550E056EB30E066E8A0E076E380E70
:102A7000086EB0C115F0B1C116F0B2C117F0B3C104
:102A800018F0A4C111F0A5C112F0A6C113F0A7C19E
:102A900014F031EC1FF011C001F012C002F013C0AD
:102AA00003F014C004F061EC22F001C054F102C044
:102AB00055F103C056F104C057F1610E056E0B0EBF
:102AC000066E360E076EBB0E086EB0C115F0B1C1B2
:102AD00016F0B2C117F0B3C118F054C111F055C1CE
:102AE00012F056C113F057C114F031EC1FF011C0B1
:102AF00001F012C002F013C003F014C004F061EC46
:102B000022F001C048F102C049F103C04AF104C0FB
:102B10004BF1AB0E056EAA0E066E2A0E076E3E0E28
:102B2000086EB0C115F0B1C116F0B2C117F0B3C153
:102B300018F048C111F049C112F04AC113F04BC15D
:102B400014F031EC1FF011C001F012C002F013C0FC
:102B500003F014C004F061EC22F001C03CF102C0AB
:102B60003DF103C03EF104C03FF1B4C12AF0B5C14C
:102B70002BF0B6C12CF0B7C12DF0B0C115F0B1C12A
:102B800016F0B2C117F0B3C118F03CC111F03DC14D
:102B900012F03EC113F03FC114F031EC1FF011C030
:102BA0002EF012C02FF013C030F014C031F0A5EC9D
:102BB00034F02AC080F12BC081F12CC082F12DC0ED
:102BC00083F1000E056E000E066E000E076EC00E3D
:102BD000086E80C101F081C102F082C103F083C19F
:102BE00004F061EC22F001C036F002C037F003C0FF
:102BF00038F004C039F080C115F081C116F082C1EF
:102C000017F083C118F0B4C111F0B5C112F0B6C10C
:102C100013F0B7C114F031EC1FF011C032F012C044
:102C200033F013C034F014C035F098EC26F032C005
:102C300040F133C041F134C042F135C043F144C1E9
:102C400005F045C106F046C107F047C108F044C190
:102C500015F045C116F046C117F047C118F0B4C1D0
:102C600011F0B5C112F0B6C113F0B7C114F031ECD8
:102C70001FF011C001F012C002F013C003F014C025
:102C800004F061EC22F001C018F102C019F103C098
:102C90001AF104C01BF140C12AF041C12BF042C11E
:102CA0002CF043C12DF018C12EF019C12FF01AC11C
:102CB00030F01BC131F0A5EC34F02AC04CF12BC030
:102CC0004DF12CC04EF12DC04FF1B4C12EF0B5C165
:102CD0002FF0B6C130F0B7C131F04CC12AF04DC170
:102CE0002BF04EC12CF04FC12DF0A5EC34F02AC0D2
:102CF00094F12BC095F12CC096F12DC097F1000EE8
:102D00002A6E000E2B6E800E2C6E3F0E2D6E94C11F
:102D10002EF095C12FF096C130F097C131F0A5EC9F
:102D200034F02AC0B4F12BC0B5F12CC0B6F12DC0DF
:102D3000B7F1B4C1B8F1B5C1B9F1B6C1BAF1B7C113
:102D4000BBF1B8C1ACF1B9C1ADF1BAC1AEF1BBC113
:102D5000AFF17CC1D2F07DC1D3F07EC1D4F07FC190
:102D6000D5F0170ED8900001D237D337D437D537E6
:102D7000E82EF8D7D2510101AC270001D35101014F
:102D8000AD230001D4510101AE230001D551010151
:102D9000AF23170E0001D26FACC1D3F0ADC1D4F098
:102DA000AEC1D5F0AFC1D6F0D26701D007D0D635CD
:102DB000D633D533D433D333D22FF6D70001D6BF91
:102DC00007D0D651D511D4111AE1D305D8B017D0F8
:102DD000B4C12AF0B5C12BF0B6C12CF0B7C12DF0AB
:102DE0007CC12EF07DC12FF05EEC2BF02AC0B4F137
:102DF0002BC0B5F12CC0B6F12DC0B7F110D0ACC1CD
:102E0000B8F1ADC1B9F1AEC1BAF1AFC1BBF1B8C152
:102E1000B4F1B9C1B5F1BAC1B6F1BBC1B7F188C15E
:102E200011F089C112F08AC113F08BC114F0B4C142
:102E300015F0B5C116F0B6C117F0B7C118F031ECF6
:102E40001FF011C06FF012C070F013C071F014C009
:102E500072F01200DDC1C6F0DEC1C7F0DFC1C8F0FC
:102E6000E0C1C9F04BC0C6F04CC0C7F04DC0C8F0BF
:102E70004EC0C9F0C6C0CEF0C7C0CFF0C8C0D0F0B9
:102E8000C9C0D1F0000E0001A16F000EA06FD1519A
:102E900004E1800ED05DD8A017D0CEC04FF0CFC0D7
:102EA00050F0D0C051F0D1C052F0200E05D0D890D3
:102EB0005232513250324F32E82EF9D74F50501023
:102EC00051105210D8B4AFD0D890CE354F6ECF3508
:102ED000506ED035516ED135526E4F50501051104A
:102EE0005210D8A42DD0000E326E000E336E800E1C
:102EF000346EBF0E356E4BC015F04CC016F04DC091
:102F000017F04EC018F04BC011F04CC012F04DC07D
:102F100013F04EC014F031EC1FF011C036F012C0A7
:102F200037F013C038F014C039F098EC26F032C0F6
:102F30004BF033C04CF034C04DF035C04EF01200B1
:102F4000CEC04FF0CFC050F0D0C051F0D1C052F041
:102F5000200E05D0D8905232513250324F32E82EE6
:102F6000F9D74F50501051105210D8B42DD04BC03B
:102F70002EF04CC02FF04DC030F04EC031F04BC0A1
:102F80002AF04CC02BF04DC02CF04EC02DF0A5EC1B
:102F900034F02AC032F02BC033F02CC034F02DC0F6
:102FA00035F0000E366E000E376E000E386E000ED5
:102FB000396E98EC26F032C04BF033C04CF034C080
:102FC0004DF035C04EF01200E70EA027FF0EA123F2
:102FD0004BC011F04CC012F04DC013F04EC014F0B5
:102FE000000E156E000E166E000E176E4C0E186E4B
:102FF00031EC1FF011C04BF012C04CF013C04DF07B
:1030000014C04EF04BC0C6F04CC0C7F04DC0C8F065
:103010004EC0C9F0C6C0CEF0C7C0CFF0C8C0D0F017
:10302000C9C0D1F021D0800ED05D7F0ED159D8A07B
:1030300009D04BC04BF04CC04CF04DC04DF04EC0D1
:103040004EF01200800ED0190FE13F0ED119CE11B3
:10305000CF11D8A409D0000E4B6E000E4C6E000E9E
:103060004D6E000E4E6E12000D0E0001CE27FB0EAF
:10307000CF234A0ED023000ED123810E4F6EFF0EB8
:10308000506ECEC051F0CFC052F0D0C053F0D1C07E
:1030900054F0180E05D0D890543253325232513277
:1030A000E82EF9D74F505126505052225150A027A8
:1030B0005250A123FF0ECE154F6EFF0ECF15506E4E
:1030C0007F0ED015516E000ED115526EF30E4F24A7
:1030D000CE6F040E5020CF6F350E5120D06F3F0EB3
:1030E0005220D16FCEC0C6F0CFC0C7F0D0C0C8F05C
:1030F000D1C0C9F0C6C04BF0C7C04CF0C8C04DF03D
:10310000C9C04EF04BC001F04CC002F04DC003F0FE
:103110004EC004F0000E056E000E066E800E076EA7
:10312000BF0E086E61EC22F001C0CAF002C0CBF005
:1031300003C0CCF004C0CDF0CAC032F0CBC033F035
:10314000CCC034F0CDC035F0000E056E000E066E1A
:10315000000E076E400E086ECAC001F0CBC002F030
:10316000CCC003F0CDC004F061EC22F001C036F019
:1031700002C037F003C038F004C039F098EC26F0F4
:1031800032C0B2F033C0B3F034C0B4F035C0B5F0E3
:10319000B2C011F0B3C012F0B4C013F0B5C014F057
:1031A000B2C015F0B3C016F0B4C017F0B5C018F037
:1031B00031EC1FF011C0B6F012C0B7F013C0B8F078
:1031C00014C0B9F0B6C011F0B7C012F0B8C013F017
:1031D000B9C014F0B6C015F0B7C016F0B8C017F0FB
:1031E000B9C018F031EC1FF011C0BAF012C0BBF03A
:1031F00013C0BCF014C0BDF0130E056ECE0E066EEB
:10320000CC0E076E3E0E086E260E156E9E0E166EC6
:10321000780E176E3E0E186EBAC011F0BBC012F0D9
:10322000BCC013F0BDC014F031EC1FF011C001F0B0
:1032300012C002F013C003F014C004F061EC22F0DD
:1032400001C0BEF002C0BFF003C0C0F004C0C1F0B6
:10325000BEC011F0BFC012F0C0C013F0C1C014F066
:10326000BAC015F0BBC016F0BCC017F0BDC018F056
:1032700031EC1FF011C084F012C085F013C086F04D
:1032800014C087F0AA0E056EAA0E066E2A0E076EEF
:103290003F0E086EEE0E156EE90E166E910E176E4D
:1032A0003E0E186EBAC011F0BBC012F0BCC013F0D5
:1032B000BDC014F031EC1FF011C001F012C002F0DB
:1032C00013C003F014C004F061EC22F001C0BEF0A2
:1032D00002C0BFF003C0C0F004C0C1F0BEC011F016
:1032E000BFC012F0C0C013F0C1C014F0B6C015F0DA
:1032F000B7C016F0B8C017F0B9C018F031EC1FF025
:1033000011C088F012C089F013C08AF014C08BF08D
:1033100088C001F089C002F08AC003F08BC004F0BD
:1033200084C005F085C006F086C007F087C008F0AD
:1033300061EC22F001C080F002C081F003C082F095
:1033400004C083F0000E156E000E166E000E176E90
:103350003F0E186ECAC011F0CBC012F0CCC013F0F3
:10336000CDC014F031EC1FF011C0BEF012C0BFF0A0
:1033700013C0C0F014C0C1F0BEC011F0BFC012F045
:10338000C0C013F0C1C014F0CAC015F0CBC016F015
:10339000CCC017F0CDC018F031EC1FF011C0AEF06A
:1033A00012C0AFF013C0B0F014C0B1F0CAC02AF020
:1033B000CBC02BF0CCC02CF0CDC02DF0AEC02EF089
:1033C000AFC02FF0B0C030F0B1C031F0A5EC34F098
:1033D0002AC0C2F02BC0C3F02CC0C4F02DC0C5F071
:1033E000C2C0C6F0C3C0C7F0C4C0C8F0C5C0C9F0F1
:1033F000000E0001C617F00EC717FF0EC817FF0E0C
:10340000C917C6C0C2F0C7C0C3F0C8C0C4F0C9C0A5
:10341000C5F0C2C02EF0C3C02FF0C4C030F0C5C08C
:1034200031F0CAC02AF0CBC02BF0CCC02CF0CDC0FC
:103430002DF0A5EC34F02AC08CF02BC08DF02CC000
:103440008EF02DC08FF0AEC02EF0AFC02FF0B0C008
:1034500030F0B1C031F08CC02AF08DC02BF08EC09E
:103460002CF08FC02DF0A5EC34F02AC090F02BC0CA
:1034700091F02CC092F02DC093F0B2C015F0B3C003
:1034800016F0B4C017F0B5C018F080C005F081C0C8
:1034900006F082C007F083C008F0AEC001F0AFC0F4
:1034A00002F0B0C003F0B1C004F061EC22F001C042
:1034B00011F002C012F003C013F004C014F031EC9C
:1034C0001FF011C0AAF012C0ABF013C0ACF014C0D2
:1034D000ADF090C001F091C002F092C003F093C033
:1034E00004F0AAC005F0ABC006F0ACC007F0ADC058
:1034F00008F061EC22F001C0A6F002C0A7F003C002
:10350000A8F004C0A9F0A0C001F0A1C002F0000E14
:1035100002BEFF0E036E046E010EB9EC2FF001C067
:10352000A2F002C0A3F003C0A4F004C0A5F0D90E1D
:10353000156EEA0E166E040E176EB80E186EC2C027
:1035400005F0C3C006F0C4C007F0C5C008F0A6C0AF
:1035500001F0A7C002F0A8C003F0A9C004F061EC1C
:1035600022F001C011F002C012F003C013F004C039
:1035700014F031EC1FF011C094F012C095F013C09C
:1035800096F014C097F094C005F095C006F096C070
:1035900007F097C008F0DB0E156E270E166E540E5E
:1035A000176E350E186EA2C011F0A3C012F0A4C0A1
:1035B00013F0A5C014F031EC1FF011C001F012C0DF
:1035C00002F013C003F014C004F061EC22F001C05B
:1035D00098F002C099F003C09AF004C09BF0000E6E
:1035E000156E600E166EDE0E176E3E0E186EA6C0BD
:1035F00011F0A7C012F0A8C013F0A9C014F031EC6C
:103600001FF011C005F012C006F013C007F014C07F
:1036100008F098C001F099C002F09AC003F09BC076
:1036200004F061EC22F001C0AAF002C0ABF003C0CC
:10363000ACF004C0ADF0000E156E600E166EDE0E1E
:10364000176E3E0E186EC2C011F0C3C012F0C4C097
:1036500013F0C5C014F031EC1FF011C005F012C01A
:1036600006F013C007F014C008F0AAC001F0ABC008
:1036700002F0ACC003F0ADC004F061EC22F001C078
:103680009CF002C09DF003C09EF004C09FF09CC05F
:1036900001F09DC002F09EC003F09FC004F0800EB8
:1036A000156E200E166E9A0E176E3E0E186EA2C084
:1036B00011F0A3C012F0A4C013F0A5C014F031ECB7
:1036C0001FF011C005F012C006F013C007F014C0BF
:1036D00008F061EC22F001C04BF002C04CF003C0D6
:1036E0004DF004C04EF012003EC053F03FC054F005
:1036F00040C055F041C056F053C06BF054C06CF060
:1037000055C06DF056C06EF0000E6B14426E000E88
:103710006C14436E800E6D14446E7F0E6E14456EF5
:10372000800E441833E17F0E451842104310D8A490
:103730002DD03EC015F03FC016F040C017F041C07C
:1037400018F03EC011F03FC012F040C013F041C06D
:1037500014F031EC1FF011C001F012C002F013C0E0
:1037600003F014C004F03EC005F03FC006F040C0B6
:1037700007F041C008F061EC22F001C03EF002C049
:103780003FF003C040F004C041F012006EBE07D00D
:103790006E506D106C1034E16B04D8B031D0FF0E58
:1037A0006B14426EFF0E6C14436EFF0E6D14446E6C
:1037B0007F0E6E14456E4250431044104510D8A43D
:1037C00009D03EC03EF03FC03FF040C040F041C095
:1037D00041F012006EAE14D0000E0101E66F210E12
:1037E000E56FAF0E016E060E026E16EC36F001C0EC
:1037F0003EF002C03FF003C040F004C041F01200B0
:10380000170E426E6BC043F06CC044F06DC045F0C3
:103810006EC046F0426601D007D04634463245328B
:1038200044324332422EF6D743C063F044C064F0C2
:1038300045C065F046C066F06350641065106610C0
:10384000D8A42AD0000E4F6E000E506E000E516E9E
:10385000000E526E0BD0D8906B366C366D366E36CD
:10386000010E4F26000E5022512252226DAEF3D788
:10387000FF0E4F24426EFF0E5020436EFF0E51206C
:10388000446EFF0E5220456E4250635E4350645AB0
:103890004450655A4550665A810E6326FF0E6422D5
:1038A000FF0E6522FF0E6622FF0E6B14426EFF0EA6
:1038B0006C14436E7F0E6D14446E000E6E14456ED4
:1038C000000E42106B6E000E43106C6E800E4410A2
:1038D0006D6E000E45106E6E63A008D06B506B26A7
:1038E0006C506C226D506D226E506E2266346632C2
:1038F0006532643263326B506B266C506C226D50B3
:103900006D226E506E22000E4B6E000E4C6E000E3D
:103910004D6E000E4E6E4BC057F04CC058F04DC06F
:1039200059F04EC05AF0000E676E000E686E000E21
:10393000696E010E6A6E43D067504B245B6E68500F
:103940004C205C6E69504D205D6E6A504E205E6E5C
:103950005B506B5C5C506C585D506D586E50800ACB
:10396000426E5E50800A4258D8A01CD067505B243B
:103970004B6E68505C204C6E69505D204D6E6A50F5
:103980005E204E6E5B506B5E5C506C5A5D506D5AA3
:103990005E506E5A67505726685058226950592217
:1039A0006A505A226B506B266C506C226D506D22FF
:1039B0006E506E22D8906A32693268326732675030
:1039C000681069106A10D8A4B7D76B506C106D10CE
:1039D0006E10D8B452D0000E5F6E000E606E800E76
:1039E000616E3F0E626E5FC032F060C033F061C046
:1039F00034F062C035F0000E366E000E376E800E69
:103A0000386E3F0E396E0EEC32F0D8A036D0000E74
:103A10005F6E000E606E800E616E3F0E626E000E75
:103A2000326E000E336E800E346E3F0E356E5FC008
:103A300036F060C037F061C038F062C039F00EEC8B
:103A400032F0D8B006D0020E5726000E5822592266
:103A500013D0010E5714426E000E5814436E000E20
:103A60005914446E000E5A14456E42505726435066
:103A700058224450592245505A2257C042F058C04B
:103A800043F059C044F05AC045F045344532443201
:103A900043324232000E42246B6E000E43206C6EA5
:103AA000000E44206D6E3F0E45206E6E63C042F0E6
:103AB00064C043F065C044F066C045F0170ED8906E
:103AC0004236433644364536E82EF9D742506B2607
:103AD00043506C2244506D2245506E226BC053F00F
:103AE0006CC054F06DC055F06EC056F053C05FF01E
:103AF00054C060F055C061F056C062F05FC03EF047
:103B000060C03FF061C040F062C041F012000201AD
:103B10001151800B1A6F11511125206F10BF208198
:103B20002051D8B40DD02029D8A408D0000E0E6F93
:103B3000000E0F6F000E106F000E116F108F08D067
:103B4000000E0E6F000E0F6F000E106F000E116F43
:103B50001551800B1A1B155115251F6F14BF1F819E
:103B60001F51D8B40DD01F29D8A408D0000E126F51
:103B7000000E136F000E146F000E156F148F08D017
:103B8000000E126F000E136F000E146F000E156FF3
:103B90001F51D8B403D02051D8A409D0000E0E6F05
:103BA000000E0F6F000E106F000E116F12001451F7
:103BB0000E03F3CF25F2F4CF26F225511B6F1C6BB9
:103BC0001D6B1E6B2651216F226B236B246B1351CF
:103BD0000F03F3CF25F2F4CF26F225511B27000E59
:103BE0001C231D231E2326512127000E22232323BD
:103BF000242312511003F3CF25F2F4CF26F22551DE
:103C00001B27000E1C231D231E2326512127000ED7
:103C10002223232324231DC21EF21CC21DF21BC219
:103C20001CF21B6B12510F03F3CF25F2F4CF26F2D7
:103C300025511B2726511C23000E1D23000E1E2379
:103C400013510E03F3CF25F2F4CF26F225511B2793
:103C500026511C23000E1D23000E1E231DC21EF222
:103C60001CC21DF21BC21CF21B6B12510E03F3CFC0
:103C700025F2F4CF26F225511B2726511C23000ED6
:103C80001D23000E1E2314510F03F3CF25F2F4CF92
:103C900026F22551212726512223000E2323000E30
:103CA000242313511003F3CF25F2F4CF26F225512C
:103CB000212726512223000E2323000E24231451F2
:103CC0001003F3CF25F2F4CF26F22551166F2651BB
:103CD000176F186B196B18C219F217C218F216C2B7
:103CE00017F2166B1651212717512223185123233F
:103CF000195124231BC216F21CC217F21DC218F25E
:103D00001EC219F2190E05D0D89019331833173383
:103D10001633E82EF9D716512127175122231851AF
:103D20002323195124231DC21EF21CC21DF21BC2E3
:103D30001CF21B6B1F5120C216F2176B1627000EC8
:103D40001723820E1625256FFF0E1721266F0FD021
:103D5000D89021372237233724371EBF2181D890AE
:103D60001B371C371D371E372507D8A0260723AF62
:103D7000EFD7000E1F6F1EAF17D0FF0E1B15166F6B
:103D8000FF0E1C15176FFF0E1D15186F7F0E1E15E9
:103D9000196F1651171118111911D8B403D0010E4B
:103DA0001F6F02D021B1FBD71F51D8B41FD0010E15
:103DB0002127000E22232323242324A117D021C24C
:103DC00016F222C217F223C218F224C219F21935D0
:103DD000193318331733163316C221F217C222F2E1
:103DE00018C223F219C224F2254B262B26BF0DD070
:103DF000265103E12529D8A008D0000E216F000E1E
:103E0000226F800E236F7F0E20D026BF05D0265153
:103E10000EE12505D8B00BD0000E216F000E226FE9
:103E2000000E236F000E246F000E1A6F0FD025C2F4
:103E300020F2FF0E2117FF0E22177F0E2317000E10
:103E4000241720B1238FD8902031246F1A512413C6
:103E500021C20EF222C20FF223C210F224C211F2CA
:103E600012001450800B1D6E14501424236E13BEC8
:103E700023802350D8B40DD02328D8A408D0000E16
:103E8000116E000E126E000E136E000E146E138E65
:103E900008D0000E116E000E126E000E136E000E92
:103EA000146E1850800B1D1A18501824226E17BE5D
:103EB00022802250D8B40DD02228D8A408D0000ED9
:103EC000156E000E166E000E176E000E186E178E11
:103ED00008D0000E156E000E166E000E176E000E46
:103EE000186E2250D8B403D02350D8A409D0000EA5
:103EF000116E000E126E000E136E000E146E120084
:103F000017501102F3CF28F0F4CF29F028501E6E7D
:103F10001F6A206A216A2950246E256A266A276A48
:103F200016501202F3CF28F0F4CF29F028501E26A5
:103F3000000E1F222022212229502426000E252295
:103F40002622272215501302F3CF28F0F4CF29F0B0
:103F500028501E26000E1F2220222122295024260E
:103F6000000E25222622272220C021F01FC020F08B
:103F70001EC01FF01E6A15501202F3CF28F0F4CFB6
:103F800029F028501E2629501F22000E2022000E44
:103F9000212216501102F3CF28F0F4CF29F0285037
:103FA0001E2629501F22000E2022000E212220C092
:103FB00021F01FC020F01EC01FF01E6A1550110214
:103FC000F3CF28F0F4CF29F028501E2629501F22C5
:103FD000000E2022000E212217501202F3CF28F0EB
:103FE000F4CF29F02850242629502522000E26221D
:103FF000000E272216501302F3CF28F0F4CF29F039
:104000002850242629502522000E2622000E272281
:1040100017501302F3CF28F0F4CF29F02850196E6F
:1040200029501A6E1B6A1C6A1BC01CF01AC01BF0B8
:1040300019C01AF0196A195024261A5025221B504B
:1040400026221C5027221EC019F01FC01AF020C0C3
:104050001BF021C01CF0190E05D0D8901C321B3269
:104060001A321932E82EF9D7195024261A5025226F
:104070001B5026221C50272220C021F01FC020F0F8
:104080001EC01FF01E6A225023C019F01A6A19269A
:10409000000E1A22820E1924286EFF0E1A20296E95
:1040A0000FD0D890243625362636273621BE2480D8
:1040B000D8901E361F36203621362806D8A029066D
:1040C00026AEEFD7000E226E21AE17D0FF0E1E14C3
:1040D000196EFF0E1F141A6EFF0E20141B6E7F0E3A
:1040E00021141C6E19501A101B101C10D8B403D0C8
:1040F000010E226E02D024B0FBD72250D8B41FD0BC
:10410000010E2426000E25222622272227A017D0C2
:1041100024C019F025C01AF026C01BF027C01CF0DF
:104120001C341C321B321A32193219C024F01AC046
:1041300025F01BC026F01CC027F0284A292A29BEDA
:104140000DD0295003E12828D8A008D0000E246EF5
:10415000000E256E800E266E7F0E20D029BE05D063
:1041600029500EE12804D8B00BD0000E246E000EAA
:10417000256E000E266E000E276E000E1D6E0FD0EF
:1041800028C023F0FF0E2416FF0E25167F0E2616DC
:10419000000E271623B0268ED8902330276E1D5090
:1041A000271224C011F025C012F026C013F027C03A
:1041B00014F0120002010351800B0C6F0351032510
:1041C0000E6F02BF0E810E51D8B40DD00E29D8A4A7
:1041D00008D0000E006F000E016F000E026F000E7F
:1041E000036F028F06D0000E006F000E016F000EED
:1041F000026F000E036F0751800B0D6F0C510D19EC
:10420000D8A40C8D075107250D6F06BF0D810D51E8
:10421000D8B40DD00D29D8A408D0000E046F000E1C
:10422000056F000E066F000E076F068F06D0000E9A
:10423000046F000E056F000E066F000E076F0E5123
:104240000D5DD8B022D00CAD02D0800E0C1B0EC27A
:104250000FF20DC20EF20FC20DF200C20FF204C235
:1042600000F20FC204F201C20FF205C201F20FC246
:1042700005F202C20FF206C202F20FC206F203C238
:104280000FF207C203F20FC207F2000E0F6F0E51BA
:104290000DC208F2096B085F000E095B09BF2CD044
:1042A000095104E11A0E085DD8A026D00051011171
:1042B00002110311D8B402D0010E01D0000E0F6F0D
:1042C000000E006F000E016F000E026F000E036FF4
:1042D0000DC20EF215D00FA105D0D8900F310109F3
:1042E0000F6F02D0D8900F3300B10F8F0335033317
:1042F0000233013300330E2B0D510E5DD8A0EBD7E6
:104300000CBD28D00E51D8A409D0000E006F000EAD
:10431000016F000E026F000E036F120004510027A0
:1043200005510123065102230751032303A171D034
:104330000FA105D0D8900F3101090F6F02D0D8908E
:104340000F3300B10F8F03350333023301330033D2
:104350000E2B5FD00451005D0551015906510259E1
:104360000351800A086F0751800A0859D8B025D038
:104370000051045D086F01510559096F025106593A
:104380000A6F035107590B6FFF0E0825006FFF0ED0
:104390000921016FFF0E0A21026FFF0E0B21036F2F
:1043A000800E0C1B0F6D0F51D8A40FD0010E0027EB
:1043B000000E01230223032308D00451005F05519E
:1043C000015B0651025B0751035B005101110211B1
:1043D0000311D8A41CD00F51D8A419D0000E006F1F
:1043E000000E016F000E026F000E036F1200D890D6
:1043F00000370137023703370FBF00810FA102D00A
:10440000D88001D0D8900F370E51D8A40E0702AF34
:10441000EED7000E0D6F0FAF0BD00FC208F27F0E5C
:104420000817D8B403D0010E0D6F02D000B1FBD72E
:104430000D51D8B420D0010E0027000E0123022315
:10444000032303A118D000C208F201C209F202C27C
:104450000AF203C20BF20B350B330A33093308336C
:1044600008C200F209C201F20AC202F20BC203F250
:104470000E29D8A40E2B0E29D8B403D00E51D8A4DF
:104480000DD0000E006F000E016F000E026F000EC7
:10449000036F0E51D8A402D0000E0C6F0EA102D0F3
:1044A000028F01D0029FD8900E31036F0CBF038F93
:1044B00000C200F201C201F202C202F203C203F220
:1044C00012000450800B0D6E045004240F6E03BEC6
:1044D0000F800F50D8B40DD00F28D8A408D0000EEC
:1044E000016E000E026E000E036E000E046E038E4F
:1044F00006D0000E016E000E026E000E036E000E5E
:10450000046E0850800B0E6E0D500E18D8A40D8C42
:10451000085008240E6E07BE0E800E50D8B40DD081
:104520000E28D8A408D0000E056E000E066E000EF0
:10453000076E000E086E078E06D0000E056E000E88
:10454000066E000E076E000E086E0F500E5CD8B09F
:1045500022D00DAC02D0800E0D1A0FC010F00EC08C
:104560000FF010C00EF001C010F005C001F010C037
:1045700005F002C010F006C002F010C006F003C043
:1045800010F007C003F010C007F004C010F008C01E
:1045900004F010C008F0000E106E0F500EC009F0AD
:1045A0000A6A095E000E0A5A0ABE2CD00A5004E1BB
:1045B0001A0E095CD8A026D0015002100310041076
:1045C000D8B402D0010E01D0000E106E000E016EA4
:1045D000000E026E000E036E000E046E0EC00FF091
:1045E00015D010A005D0D89010300109106E02D05F
:1045F000D890103201B0108E0434043203320232EB
:1046000001320F2A0E500F5CD8A0EBD70DBC28D07A
:104610000F50D8A409D0000E016E000E026E000EDD
:10462000036E000E046E1200055001260650022291
:10463000075003220850042204A071D010A005D016
:10464000D89010300109106E02D0D890103201B00D
:10465000108E043404320332023201320F2A5FD04A
:104660000550015C06500258075003580450800A58
:10467000096E0850800A0958D8B025D00150055C51
:10468000096E025006580A6E035007580B6E04500C
:1046900008580C6EFF0E0924016EFF0E0A20026EF0
:1046A000FF0E0B20036EFF0E0C20046E800E0D1A01
:1046B000106C1050D8A40FD0010E0126000E02225B
:1046C0000322042208D00550015E0650025A07500A
:1046D000035A0850045A0150021003100410D8A4C1
:1046E0001CD01050D8A419D0000E016E000E026E1E
:1046F000000E036E000E046E1200D89001360236D2
:104700000336043610BE018010A002D0D88001D03C
:10471000D89010360F50D8A40F0603AEEED7000E77
:104720000E6E10AE0BD010C009F07F0E0916D8B473
:1047300003D0010E0E6E02D001B0FBD70E50D8B4DC
:1047400020D0010E0126000E02220322042204A022
:1047500018D001C009F002C00AF003C00BF004C079
:104760000CF00C340C320B320A32093209C001F061
:104770000AC002F00BC003F00CC004F00F28D8A44C
:104780000F2A0F28D8B403D00F50D8A40DD0000E94
:10479000016E000E026E000E036E000E046E0F50CE
:1047A000D8A402D0000E0D6E0FA002D0038E01D04F
:1047B000039ED8900F30046E0DBE048E01C001F030
:1047C00002C002F003C003F004C004F01200C30EE4
:1047D000C216C280C282C2B2FED7C3CFBCF1C4CF60
:1047E000BDF1000E156E000E166E800E176E3F0E98
:1047F000186EFF0E0001FB6F030EFC6F0101BC5130
:104800000001FB5F0101BD510001FC5BFBC001F039
:10481000FCC002F0000E02BEFF0E036E046E010E1D
:10482000B9EC2FF001C011F002C012F003C013F078
:1048300004C014F031EC1FF011C032F012C033F09C
:1048400013C034F014C035F0BCC101F0BDC102F09A
:10485000000E02BEFF0E036E046E010EB9EC2FF0C7
:1048600001C036F002C037F003C038F004C039F0A0
:1048700098EC26F032C0CAF133C0CBF134C0CCF191
:1048800035C0CDF1CAC132F0CBC133F0CCC134F068
:10489000CDC135F0E1C136F0E2C137F0E3C138F007
:1048A000E4C139F098EC26F032C0CEF133C0CFF13C
:1048B00034C0D0F135C0D1F1CEC1EFF0CFC1F0F0AE
:1048C000D0C1F1F0D1C1F2F0EFC1F3F0F0C1F4F0DA
:1048D00025EC2DF0EFC0BEF1F0C0BFF1F1C0C0F18A
:1048E000F2C0C1F1BEC132F0BFC133F0C0C134F07B
:1048F000C1C135F0000E366EA00E376E0C0E386E4C
:10490000460E396E0EEC32F0D8A009D0000E01012F
:10491000BE6FA00EBF6F0C0EC06F460EC16FCAC136
:1049200032F0CBC133F0CCC134F0CDC135F0E1C1B0
:1049300036F0E2C137F0E3C138F0E4C139F098EC69
:1049400026F032C0CEF133C0CFF134C0D0F135C043
:10495000D1F1CEC1EFF0CFC1F0F0D0C1F1F0D1C1B3
:10496000F2F0F9C1F3F0FAC1F4F025EC2DF0EFC04C
:10497000C2F1F0C0C3F1F1C0C4F1F2C0C5F1C2C1CF
:1049800032F0C3C133F0C4C134F0C5C135F0000EFC
:10499000366EA00E376E0C0E386E460E396E0EEC6B
:1049A00032F0D8A009D0000E0101C26FA00EC36F73
:1049B0000C0EC46F460EC56FCAC132F0CBC133F0C6
:1049C000CCC134F0CDC135F0E1C136F0E2C137F0F1
:1049D000E3C138F0E4C139F098EC26F032C0CEF1F2
:1049E00033C0CFF134C0D0F135C0D1F1CEC1EFF03A
:1049F000CFC1F0F0D0C1F1F0D1C1F2F0F7C1F3F0C6
:104A0000F8C1F4F025EC2DF0EFC0C6F1F0C0C7F10D
:104A1000F1C0C8F1F2C0C9F1C6C132F0C7C133F06C
:104A2000C8C134F0C9C135F0000E366EA00E376E25
:104A30000C0E386E460E396E0EEC32F0D8A009D04E
:104A4000000E0101C66FA00EC76F0C0EC86F460E98
:104A5000C96FF9C0D9FFFAC0DAFFBEC1DEFFBFC11E
:104A6000DEFFC0C1DEFFC1C1DEFF000120EE04F0A9
:104A7000F951D926FA51DA22C2C1DEFFC3C1DEFFE5
:104A8000C4C1DEFFC5C1DEFF20EE08F0F951D92612
:104A9000FA51DA22C6C1DEFFC7C1DEFFC8C1DEFFA0
:104AA000C9C1DEFF120002012A51800B376F2A5163
:104AB0002A253E6F29BF3E813E51D8B40DD03E29F4
:104AC000D8A408D0000E276F000E286F000E296FA3
:104AD000000E2A6F298F06D0000E276F000E286F58
:104AE000000E296F000E2A6F2E51800B371B2E519E
:104AF0002E253F6F2DBF3F813F51D8B40DD03F29A8
:104B0000D8A408D0000E2B6F000E2C6F000E2D6F56
:104B1000000E2E6F2D8F06D0000E2B6F000E2C6F07
:104B2000000E2D6F000E2E6F2B512C112D112E11FA
:104B3000D8A417D0000E276F000E286F000E296F23
:104B4000000E2A6F800E29137F0E2A1337512A1365
:104B500027C227F228C228F229C229F22AC22AF241
:104B600012003E51D8A409D0000E276F000E286F06
:104B7000000E296F000E2A6F12003F513EC22FF225
:104B8000306B2F5F000E305B7F0E2F25386F000ECD
:104B90003021396F27C233F228C234F229C235F2EC
:104BA0002AC236F2000E276F000E286F000E296F02
:104BB000000E2A6F000E3A6F000E3B6F000E3C6F26
:104BC000000E3D6F000E3F6F28D03F51D8B411D07A
:104BD000D8903337343735373637D890273728379A
:104BE00029372A373DBF2781D8903A373B373C37A2
:104BF0003D372B51335D2C5134592D5135592E51A0
:104C00003659D8A009D03D8D2B51335F2C51345BE0
:104C10002D51355B2E51365B3F2B190E3F65D5D795
:104C20003351341135113611D8B411D03A810FD027
:104C3000D8902737283729372A373DBF2781D89082
:104C40003A373B373C373D373807D8A0390729AFCB
:104C5000EFD7000E3F6F3DAF17D0FF0E3A152F6F05
:104C6000FF0E3B15306FFF0E3C15316F7F0E3D156B
:104C7000326F2F51301131113211D8B403D0010EDF
:104C80003F6F02D027B1FBD73F51D8B41FD0010EE0
:104C90002727000E282329232A232AA117D027C239
:104CA0002FF228C230F229C231F22AC232F2323552
:104CB0003233313330332F332FC227F230C228F250
:104CC00031C229F232C22AF2384B392B39BF10D007
:104CD000395103E13829D8A00BD0000E396F38695B
:104CE000000E276F000E286F000E296F000E2A6F2E
:104CF00039BF05D0395111E13805D8B00ED0000EBA
:104D0000396F000E386F000E276F000E286F000EEF
:104D1000296F000E2A6F000E376F38C23EF23EA197
:104D200002D0298F01D0299FD8903E312A6F0ED70B
:104D30003550800B426E35503524496E34BE498063
:104D40004950D8B40DD04928D8A408D0000E326EEE
:104D5000000E336E000E346E000E356E348E06D0AB
:104D6000000E326E000E336E000E346E000E356E85
:104D70003950800B421A395039244A6E38BE4A8065
:104D80004A50D8B40DD04A28D8A408D0000E366EA8
:104D9000000E376E000E386E000E396E388E06D05B
:104DA000000E366E000E376E000E386E000E396E35
:104DB0003650371038103910D8A417D0000E326E84
:104DC000000E336E000E346E000E356E800E3412FF
:104DD0007F0E35124250351232C032F033C033F0FC
:104DE00034C034F035C035F012004950D8A409D091
:104DF000000E326E000E336E000E346E000E356EF5
:104E000012004A5049C03AF03B6A3A5E000E3B5AE3
:104E10007F0E3A24436E000E3B20446E32C03EF0BB
:104E200033C03FF034C040F035C041F0000E326E68
:104E3000000E336E000E346E000E356E000E456EA1
:104E4000000E466E000E476E000E486E000E4A6E53
:104E500028D04A50D8B411D0D8903E363F3640368C
:104E60004136D890323633363436353648BE328005
:104E7000D890453646364736483636503E5C375031
:104E80003F583850405839504158D8A009D0488C24
:104E900036503E5E37503F5A3850405A3950415A8A
:104EA0004A2A190E4A64D5D73E503F10401041108F
:104EB000D8B411D045800FD0D8903236333634363E
:104EC000353648BE3280D890453646364736483665
:104ED0004306D8A0440634AEEFD7000E4A6E48AE63
:104EE00017D0FF0E45143A6EFF0E46143B6EFF0EB0
:104EF00047143C6E7F0E48143D6E3A503B103C10F8
:104F00003D10D8B403D0010E4A6E02D032B0FBD7A8
:104F10004A50D8B41FD0010E3226000E332234225C
:104F2000352235A017D032C03AF033C03BF034C040
:104F30003CF035C03DF03D343D323C323B323A32FC
:104F40003AC032F03BC033F03CC034F03DC035F0E5
:104F5000434A442A44BE10D0445003E14328D8A019
:104F60000BD0000E446E4368000E326E000E336E9E
:104F7000000E346E000E356E44BE05D0445011E173
:104F80004304D8B00ED0000E446E000E436E000EE7
:104F9000326E000E336E000E346E000E356E000E53
:104FA000426E43C049F049A002D0348E01D0349EF5
:104FB000D8904930356E0ED70600E1CFD3F1E2CF5D
:104FC000D4F1D9CFD5F1DACFD6F1F3CFD7F1F4CFF1
:104FD000D8F1F6CFD9F1F7CFDAF1F8CFDBF1F5CF91
:104FE000DCF19EB09DA000D10101F551ED5DEE51C7
:104FF000800AD26FF651800AD259D8B003D0ED4B57
:10500000EE2BEDD0000EEE6F000EED6F27EC36F0BC
:1050100084EC36F036EC35F00001FF6F36EC35F0FD
:105020000101F46F36EC35F00101F26F36EC35F02A
:105030000101F36F36EC35F00101F16F000E016EE6
:10504000030E026E000E046E000E036E000E066E5E
:10505000640E056E59EC30F0000E0001DD6F030E9A
:10506000DE6F9D0EDF6F060EE06FF2C1E1F0E26BC6
:10507000F3C1E3F0E46BFFC0E5F0E66BF4C1E7F0E9
:10508000E86B7CEC34F07DEC36F0000E046E030E21
:10509000056E800E1EEC34F0720E0001F96F020EE8
:1050A000FA6FE7EC23F0000E016E030E026E000EA5
:1050B000046E000E036E000E066E640E056E59EC53
:1050C00030F0000E0001DD6F030EDE6FB00EDF6FFB
:1050D000060EE06F72C277F073C278F074C279F096
:1050E00075C27AF076EC32F077C0E1F078C0E2F089
:1050F00076C277F077C278F078C279F079C27AF028
:1051000076EC32F077C0E3F078C0E4F07AC277F062
:105110007BC278F07CC279F07DC27AF076EC32F016
:1051200077C0E5F078C0E6F07CEC34F0000E046E59
:10513000030E056EC00E1EEC34F072C232F073C264
:1051400033F074C234F075C235F0000E366E000EC6
:10515000376EFA0E386E430E396E0EEC32F0D8B060
:1051600030D076C232F077C233F078C234F079C2F0
:1051700035F0000E366E000E376EFA0E386E430EA6
:10518000396E0EEC32F0D8B01CD07AC232F07BC24D
:1051900033F07CC234F07DC235F0000E366E000E66
:1051A000376EFA0E386E430E396E0EEC32F0D8B010
:1051B00008D0280E0101F26104D04F0E0001FF65F6
:1051C00009D06BEC36F06BEC36F0000E0101F66F97
:1051D000020E04D0000E0101F66F040EF56F9E90D2
:1051E000FBC1CEFFFCC1CFFFDCC1F5FFDBC1F8FF87
:1051F000DAC1F7FFD9C1F6FFD8C1F4FFD7C1F3FF79
:10520000D6C1DAFFD5C1D9FFD4C1E2FFD3C1E1FFD6
:105210007F92110042C0D9FF43C0DAFFDECFF6FF14
:10522000DDCFF7FF0800F550250AD8A405D142C00C
:10523000D9FF43C0DAFFDE2A000EDD22000E010195
:10524000EA6F000EE96FE9C1FDF0EAC1FEF0EB691B
:10525000EC6942C0D9FF43C0DAFFDECFF6FFDDCFF5
:10526000F7FF0800F5502A0AD8A425D042C0D9FF7C
:1052700043C0DAFFDE2A000EDD2244C0D9FF45C05C
:10528000DAFFDFCF46F0020EDE26DFCF47F0000E5A
:10529000DD2246C0D9FF47C0DAFFDECFE9F1DDCF1E
:1052A000EAF1EAAF41D00001FD810101E96DEA1F99
:1052B000D8B0EA2B39D042C0D9FF43C0DAFFDECFE5
:1052C00008F0DDCF09F019EC2FF008C0E9F109C0B2
:1052D000EAF107D042C0D9FF43C0DAFFDE2A000E50
:1052E000DD22D00E466EFF0E476E42C0D9FF43C08E
:1052F000DAFFDECFF6FFDDCFF7FF0800F550486E8E
:10530000496A4650482647504922495006E10A0E4C
:10531000485CD8B002D0010E01D0000E526E536A24
:1053200052505310D8A4D6D742C0D9FF43C0DAFF99
:10533000DECFF6FFDDCFF7FF0800F550640AD8B4E2
:105340000DD042C0D9FF43C0DAFFDECFF6FFDDCF7C
:10535000F7FF0800F550690AD8A43FD042C0D9FF32
:1053600043C0DAFFDE2A000EDD2244C0D9FF45C06B
:10537000DAFFDFCF46F0020EDE26DFCF47F0000E69
:10538000DD2246C0D9FF47C0DAFFDECF4AF0DDCFCD
:105390004BF0000E4BBEFF0E4C6E4D6E4E6E4F6EC0
:1053A000506E516E40C01CF041C01DF04AC01EF04E
:1053B0004BC01FF04CC020F04DC021F04EC022F079
:1053C0004FC023F050C024F051C025F036EC2AF035
:1053D0001CC040F01DC041F0120042C0D9FF43C0C4
:1053E000DAFFDECFF6FFDDCFF7FF0800F550250A24
:1053F000D8A416D042C0D9FF43C0DAFFDE2A000E7F
:10540000DD22000E026E250E016E40C003F041C089
:1054100004F0D4EC32F0000E416E010E406E12002A
:1054200042C0D9FF43C0DAFFDE2A000EDD22000EA3
:10543000416E000E406E120042C0D9FF43C0DAFF39
:10544000DECFF6FFDDCFF7FF0800F550016E026AF0
:1054500040C003F041C004F0D4EC32F042C0D9FFA8
:1054600043C0DAFFDE2A000EDD22D5D71EC036F09B
:105470001FC037F020C038F021C039F022C03AF008
:1054800023C03BF024C03CF025C03DF03DAE02D02F
:10549000010E01D0000E346E356A34503510D8B488
:1054A00010D03D1E3C1E3B1E3A1E391E381E371EB4
:1054B000366C000E3722382239223A223B223C2217
:1054C0003D220101ECBF02D00001FD930101ECBFC0
:1054D00005D0EC5108E1EB05D8B005D0000E316ED7
:1054E000010E306E04D0EBC130F0ECC131F0E9C1F7
:1054F00032F0EAC133F034503510D8A403D00001A3
:10550000FDA503D03206D8A03306000E3F6E1F0E55
:105510003E6E000E0201716F7CD03E06D8A03F06A1
:10552000520E3E24D96E020E3F20DA6E36C001F0D4
:1055300037C002F038C003F039C004F03AC005F0BB
:105540003BC006F03CC007F03DC008F00A0E096EF3
:10555000000E0A6E000E0B6E000E0C6E000E0D6E2D
:10556000000E0E6E000E0F6E000E106EF2EC30F09C
:1055700001C026F002C027F003C028F004C029F0C3
:1055800005C02AF006C02BF007C02CF008C02DF093
:1055900026C013F028C014F01DEC35F01350300F66
:1055A000DF6E3006D8A031063206D8A0330636C0EA
:1055B00001F037C002F038C003F039C004F03AC03F
:1055C00005F03BC006F03CC007F03DC008F00A0EF5
:1055D000096E000E0A6E000E0B6E000E0C6E000EB1
:1055E0000D6E000E0E6E000E0F6E000E106ED3ECE0
:1055F0002DF001C036F002C037F003C038F004C00F
:1056000039F005C03AF006C03BF007C03CF008C0D6
:105610003DF03FBE20D03F5003E13E04D8A01BD058
:1056200036503710381039103A103B103C103D10EE
:10563000D8A473D731BE05D0315002E13004D8B0C0
:105640006CD733BE08D0335003E13204D8A003D066
:105650000001FDB362D734503510D8A403D0000147
:10566000FDA517D03E06D8A03F0634503510D8A46B
:1056700004D0000E2F6E2B0E03D0000E2F6E2D0EB9
:105680002E6E520E3E24D96E020E3F20DA6E2EC0D0
:10569000DFFF1CC011F01DC012F0520E3E24136E2D
:1056A000020E3F20146E32C015F033C016F024EC09
:1056B00033F011C01CF012C01DF012002AC038F0E7
:1056C0002BC039F02CC03AF02DC03BF02FBE56D085
:1056D0002F5004E1800E2E5CD8A050D038C011F0BD
:1056E00039C012F03AC013F03BC014F0000E156E32
:1056F000000E166E000E176E7F0E186E31EC1FF046
:1057000011C038F012C039F013C03AF014C03BF0A9
:10571000810E2E26FF0E2F222FBE88D02F5004E19F
:10572000800E2E5CD8A082D038C011F039C012F0A3
:105730003AC013F03BC014F0000E156E000E166E4A
:10574000000E176E7F0E186E31EC1FF011C038F08E
:1057500012C039F013C03AF014C03BF0810E2E266F
:10576000FF0E2F222FBE62D02F5004E1800E2E5C40
:10577000D8A05CD0000E2F6E7F0E57D02FAE56D023
:10578000820E2E5CFF0E2F58D8B050D038C011F0CA
:1057900039C012F03AC013F03BC014F0000E156E81
:1057A000000E166E800E176E0C0E186E31EC1FF088
:1057B00011C038F012C039F013C03AF014C03BF0F9
:1057C000660E2E26000E2F222FAE30D0820E2E5CBB
:1057D000FF0E2F58D8B02AD038C011F039C012F0BF
:1057E0003AC013F03BC014F0000E156E000E166E9A
:1057F000800E176E0C0E186E31EC1FF011C038F0D1
:1058000012C039F013C03AF014C03BF0660E2E26D9
:10581000000E2F222FAE0AD0820E2E5CFF0E2F58C4
:10582000D8B004D0FF0E2F6E820E2E6E7F0E2E2467
:10583000306E000E2F20316E326A336A170ED89008
:105840003036313632363336E82EF9D730C034F0C0
:1058500031C035F032C036F033C037F034C011F00B
:1058600035C012F036C013F037C014F038C015F050
:1058700039C016F03AC017F03BC018F031EC1FF0F9
:1058800011C02AF012C02BF013C02CF014C02DF060
:105890002AC02AF02BC02BF02CC02CF02DC02DF0EC
:1058A00012000D0EC16E940EC06E000EC46E000E7E
:1058B000C36E000E02014A6F000E4B6F000E4C6F5C
:1058C000000E4D6F000E496F000E486FC30EC216DA
:1058D000C280C282C2B2FED7C3CF46F2C4CF47F263
:1058E000000E0201126F000E136F800E146F3F0E38
:1058F000156FFF0E406F030E416F4651405F4751D9
:10590000415B40C200F241C201F2000E01BFFF0E36
:10591000026F036F010E77EC2EF000C20EF201C28F
:105920000FF202C210F203C211F287EC1DF00EC298
:1059300027F20FC228F210C229F211C22AF246C27F
:1059400000F247C201F20201000E01BFFF0E026F1A
:10595000036F010E77EC2EF000C22BF201C22CF285
:1059600002C22DF203C22EF253EC25F027C242F2FE
:1059700028C243F229C244F22AC245F24AC200F2C6
:105980004BC201F24CC202F24DC203F242C204F217
:1059900043C205F244C206F245C207F2DAEC20F037
:1059A00000C24AF201C24BF202C24CF203C24DF2F3
:1059B000100EE82EFED700D00201484B492B49BFFC
:1059C00085D7495104E10A0E485DD8A07FD74AC265
:1059D00027F24BC228F24CC229F24DC22AF2000E25
:1059E0002B6F000E2C6F200E2D6F410E2E6F53EC7F
:1059F00025F027C24AF228C24BF229C24CF22AC231
:105A00004DF24AC227F24BC228F24CC229F24DC2D3
:105A10002AF2000E02012B6F000E2C6F200E2D6F4C
:105A2000410E2E6F53EC25F027C24AF228C24BF2EA
:105A300029C24CF22AC24DF24AC2E1F14BC2E2F154
:105A40004CC2E3F14DC2E4F112000101EF5100013B
:105A5000F31932E10101F0510001F419D8A42CD05E
:105A6000960EE16F020EE26FEFC0DDF0F0C0DEF0E7
:105A7000F1C0DFF0F2C0E0F084EC31F00001DDC0F5
:105A8000F5F0DEC0F6F0000EF6BFFF0EF76FF86F10
:105A9000F5C001F0F6C002F0F7C003F0F8C004F062
:105AA000010EB9EC2FF001C0EFF002C0F0F003C01E
:105AB000F1F004C0F2F012000101F9510001F319F4
:105AC00032E10101FA510001F419D8A42CD08A0E58
:105AD000E16F020EE26FEFC0DDF0F0C0DEF0F1C06A
:105AE000DFF0F2C0E0F084EC31F00001DDC0F5F051
:105AF000DEC0F6F0000EF6BFFF0EF76FF86FF5C0D0
:105B000001F0F6C002F0F7C003F0F8C004F0010E97
:105B1000B9EC2FF001C0EFF002C0F0F003C0F1F0DB
:105B200004C0F2F012000101F7510001F31932E153
:105B30000101F8510001F419D8A42CD07E0EE16FB8
:105B4000020EE26FEFC0DDF0F0C0DEF0F1C0DFF07A
:105B5000F2C0E0F084EC31F00001DDC0F5F0DEC011
:105B6000F6F0000EF6BFFF0EF76FF86FF5C001F00C
:105B7000F6C002F0F7C003F0F8C004F0010EB9EC73
:105B80002FF001C0EFF002C0F0F003C0F1F004C04C
:105B9000F2F01200000EEF6F000EF06F000EF16FCA
:105BA000000EF26F1200000E126E10AE12D0101E18
:105BB0000F1E0E1E0D1E0C1E0B1E0A1E096C000E63
:105BC0000A220B220C220D220E220F221022010E7D
:105BD000126E08AE12D0081E071E061E051E041EF9
:105BE000031E021E016C000E022203220422052263
:105BF000062207220822010E121A20EE13F0070EC9
:105C0000DE6AE806FDE209500A100B100C100D10B8
:105C10000E100F101010D8B446D0010E116E0AD01D
:105C2000D89009360A360B360C360D360E360F363E
:105C30001036112A10AEF4D7D89013361436153614
:105C400016361736183619361A360950015C0A50BE
:105C500002580B5003580C5004580D5005580E5064
:105C600006580F50075810500858D8A011D00950A6
:105C7000015E0A50025A0B50035A0C50045A0D5040
:105C8000055A0E50065A0F50075A1050085A1380E2
:105C9000D89010320F320E320D320C320B320A32E3
:105CA0000932112EC9D71250D8B410D01A1E191E9D
:105CB000181E171E161E151E141E136C000E14221D
:105CC000152216221722182219221A2213C001F0B7
:105CD00014C002F015C003F016C004F017C005F0A0
:105CE00018C006F019C007F01AC008F0120002012F
:105CF000086F02010851D8A403AF1AD000C204F201
:105D000001C205F202C206F203C207F2041F051F18
:105D1000061F071F042B000E05230623072304C2BA
:105D20000AF205C20BF206C20CF207C20DF208D04D
:105D300000C20AF201C20BF202C20CF203C20DF25F
:105D40000051011102110311D8A409D0000E006FF7
:105D5000000E016F000E026F000E036F1200960E10
:105D6000096F06D0092BD8900D330C330B330A334F
:105D7000000E0A15046F000E0B15056F000E0C15B2
:105D8000066FFE0E0D15076F045105110611071160
:105D9000D8B40DD0E7D7092B010E0A27000E0B232C
:105DA0000C230D23D8900D330C330B330A33000E24
:105DB0000A15046F000E0B15056F000E0C15066F0B
:105DC000FF0E0D15076F0451051106110711D8B408
:105DD00007D0E1D70907D8900A370B370C370D37B2
:105DE0000CBF03D0020E0961F5D709A10C9FD89012
:105DF000093309C204F2056B066B076B04C207F294
:105E0000066B056B046B04510A1305510B13065105
:105E10000C1307510D130851D8A403AF01D00D8FF7
:105E20000AC200F20BC201F20CC202F20DC203F26E
:105E30001200000E166E000E156E000E0F6E000E94
:105E40000E6E02D0084A092A010E146E08C0F6FF31
:105E500009C0F7FF0800F550200AD8B418D0F70E93
:105E60000A6EFF0E0B6E08C0F6FF09C0F7FF0800B0
:105E7000F5500C6E0D6A0A500C260B500D220D5079
:105E800004E1050E0C5CD8A002D0000E146E14C004
:105E900010F0116A10501110D8B408D0D3D7000EEA
:105EA0000F6E010E0E6E084A092A2ED008C0F6FFAA
:105EB00009C0F7FF0800F5500A6E0B6A0B50000A84
:105EC000D8A422D00A502B0AD8B4EDD7060AD8B4E9
:105ED000E6D71AD015C001F016C002F0000E046E0D
:105EE0000A0E036EF1EC35F008C0F6FF09C0F7FFAB
:105EF0000800F550015E000E025A300E0124156EA6
:105F0000000E0220166ECFD7D00E0A6EFF0E0B6E5B
:105F100008C0F6FF09C0F7FF0800F5500C6E0D6AC7
:105F20000A500C260B500D220D5006E10A0E0C5C97
:105F3000D8B002D0010E01D0000E126E136A1250BA
:105F40001310D8A4C7D70E500F10D8A40DD015C069
:105F50000AF016C00BF00A1E0B1E0A4A0B2A0AC0D2
:105F600008F00BC009F0120015C008F016C009F0C7
:105F70001200096E0950D8A404AE1AD001C005F071
:105F800002C006F003C007F004C008F0051E061E9C
:105F9000071E081E052A000E06220722082205C039
:105FA0000BF006C00CF007C00DF008C00EF008D0D2
:105FB00001C00BF002C00CF003C00DF004C00EF0E5
:105FC0000150021003100410D8A409D0000E016E75
:105FD000000E026E000E036E000E046E1200960E8E
:105FE0000A6E06D00A2AD8900E320D320C320B32CD
:105FF000000E0B14056E000E0C14066E000E0D1430
:10600000076EFE0E0E14086E0550061007100810DD
:10601000D8B40DD0E7D70A2A010E0B26000E0C22A9
:106020000D220E22D8900E320D320C320B32000EA1
:106030000B14056E000E0C14066E000E0D14076E88
:10604000FF0E0E14086E0550061007100810D8B485
:1060500007D0E1D70A06D8900B360C360D360E362F
:106060000DBE03D0020E0A60F5D70AA00D9ED8908F
:106070000A320AC005F0066A076A086A05C008F015
:10608000076A066A056A05500B1206500C12075083
:106090000D1208500E120950D8A404AE01D00E8E75
:1060A0000BC001F00CC002F00DC003F00EC004F0F4
:1060B000120001C00BF002C00CF005500610D8B45D
:1060C00012000BC0D9FF0CC0DAFF03C0DFFF055080
