:020000040000FA
:040000002CEF00F0F1
:060008007E82FDED2AF0EE
:100018007E80D8CF6AF3E8CF6BF3E0CF6CF3D9CF0B
:100028006DF3DACF6EF39EAA07D0ABA203D0AB98DC
:1000380000F0AB8866EC36F06EC3DAFF6DC3D9FF0B
:100048006CC3E0FF6BC3E8FF6AC3D8FF7E90100063
:040058008BEF36F004
:100600000000000000DCCFD1350000000000C01564
:100610003F6042A20D70A5EC363BAAB83F4F38763A
:100620003F3CAA38338CBEBF350072313F1872315F
:100630003F4CBB31330EEADDB555B38A38610B361A
:10064000BBABAA2A3E42F1533E55326C3E05A38B0A
:100650003EABAAAA3EB76DDB3E9A99193F6042A213
:100660000DCAF249710000804B269E783EEEE9915A
:100670003E13CECC3EAAAA2A3FD1F717378071315C
:100680003F0000803F0000C03F00AAB83FC623F6ED
:10069000B80040763F25732564202564202564003A
:1006A0002573252E32662043006D6F6E69746F725C
:1006B00000737461727400494E46004E414E0069E9
:0B06C0006E66006E616E006C6600004C
:1006CC00C2C0B8F1C3C0B9F1C4C0BAF1C5C0BBF166
:1006DC00B8C160F1B9C161F1BAC162F1BBC163F1DA
:1006EC00C6C0B8F1C7C0B9F1C8C0BAF1C9C0BBF136
:1006FC00B8C17CF1B9C17DF1BAC17EF1BBC17FF14A
:10070C00FF0E01016015A86FFF0E6115A96FFF0E9A
:10071C006215AA6F7F0E6315AB6FFF0E7C15906F81
:10072C00FF0E7D15916FFF0E7E15926F7F0E7F155C
:10073C00936F9051911192119311D8A40AD0000E7D
:10074C000001C26F000EC36F800EC46F3F0EC56FE9
:10075C001200800E621910E13F0E631960116111D5
:10076C00D8A40AD0000E0001C26F000EC36F800E19
:10077C00C46F3F0EC56F1200ABBF09D0A805000EA9
:10078C00A959800EAA597F0EAB59D8B00BD093BF84
:10079C0024D09005000E9159800E92597F0E9359DA
:1007AC00D8A01BD0C2C001F0C3C002F0C4C003F07B
:1007BC00C5C004F0C6C005F0C7C006F0C8C007F03D
:1007CC00C9C008F016EC25F001C0C2F002C0C3F09D
:1007DC0003C0C4F004C0C5F01200000E506F000E30
:1007EC00516F000E526F000E536F63AF90D093BFDA
:1007FC000ED0800E925D4B0E9359D8A008D0020EED
:10080C00506F000E516F000E526F000E7FD093BFD1
:10081C007ED0800E925D3F0E9359D8A078D0170EE3
:10082C006F6E90C170F091C171F092C172F093C172
:10083C0073F06F6601D007D0733473327232713239
:10084C0070326F2EF6D7810E70240101A06FFF0E4F
:10085C007120A16FFF0E7220A26FFF0E7320A36F89
:10086C00A05117086F6E90C170F091C171F092C1D8
:10087C0072F093C173F06F6601D007D0733473328A
:10088C007232713270326F2EF6D770C0ACF171C00B
:10089C00ADF172C0AEF173C0AFF10101A0511708F8
:1008AC006F6EACC170F0ADC171F0AEC172F0AFC182
:1008BC0073F06F2A05D0D890703671367236733655
:1008CC006F2EF9D79051701822E1915171181FE1D8
:1008DC00925172181CE193517318D8A418D0010EC0
:1008EC00AC156F6E000EAD15706E000EAE15716E00
:1008FC00000EAF15726E6F500208506F000E7054E0
:10090C00516F000E7154526F000E7254536F800E63
:10091C00921958E17F0E931990119111D8A452D0CD
:10092C00800EAA1910E13F0EAB19A811A911D8A479
:10093C000AD0000E0001C26F000EC36F800EC46F90
:10094C003F0EC56F1200ABBF1ED0A805000EA959F3
:10095C00800EAA593F0EAB59D8A015D07FAF0AD044
:10096C00000E0001C26F000EC36F000EC46F000EAC
:10097C00C56F1200C6C0C2F0C7C0C3F0C8C0C4F077
:10098C00C9C0C5F012007FAF13D0C6C001F0C7C0FC
:10099C0002F0C8C003F0C9C004F0D3EC37F001C0BA
:1009AC00C2F002C0C3F003C0C4F004C0C5F0120012
:1009BC00000E0001C26F000EC36F000EC46F000E5C
:1009CC00C56F1200800E92192CE13F0E93199011F5
:1009DC009111D8A426D07FAF1BD0000E326E000E22
:1009EC00336E800E346E3F0E356EC2C036F0C3C00F
:1009FC0037F0C4C038F0C5C039F09CEC26F032C0DA
:100A0C00C2F033C0C3F034C0C4F035C0C5F012001E
:100A1C00C2C0C2F0C3C0C3F0C4C0C4F0C5C0C5F0EE
:100A2C001200400E7F197C117D117E11D8A41BD0B1
:100A3C00C2C011F0C3C012F0C4C013F0C5C014F092
:100A4C00C2C015F0C3C016F0C4C017F0C5C018F072
:100A5C006DEC23F011C0C2F012C0C3F013C0C4F08F
:100A6C0014C0C5F012003F0E7F197C117D117E1150
:100A7C00D8B463BF13D0C2C03EF0C3C03FF0C4C0F3
:100A8C0040F0C5C041F05AEC21F03EC0C2F03FC06E
:100A9C00C3F040C0C4F041C0C5F01200C2C001F0A8
:100AAC00C3C002F0C4C003F0C5C004F029EC37F099
:100ABC0001C070F102C071F103C072F104C073F196
:100ACC00800E0101AA1906E17F0EAB19A811A9111C
:100ADC00D8B40FD0A851A911AA11AB11D8B409D010
:100AEC00800EAA1905E13F0EAB19A811A911D8A4C3
:100AFC00A5D070C1B4F171C1B5F172C1B6F173C1B9
:100B0C00B7F17FAF1AD0000E326E000E336E800E2E
:100B1C00346E3F0E356EB4C136F0B5C137F0B6C188
:100B2C0038F0B7C139F09CEC26F032C0B4F133C0C8
:100B3C00B5F134C0B6F135C0B7F1010163AF75D072
:100B4C00000EA8256F6E000EA921706E800EAA21D2
:100B5C00716EC00EAB21726E50516F10736E51518D
:100B6C007010746E52517110756E53517210766E06
:100B7C007350741075107610D8A43FD0B4C12EF0F9
:100B8C00B5C12FF0B6C130F0B7C131F0B4C12AF005
:100B9C00B5C12BF0B6C12CF0B7C12DF0AEEC36F0D0
:100BAC002AC032F02BC033F02CC034F02DC035F0FD
:100BBC00B4C12EF0B5C12FF0B6C130F0B7C131F0D1
:100BCC00B4C12AF0B5C12BF0B6C12CF0B7C12DF0D1
:100BDC00AEEC36F02AC036F02BC037F02CC038F013
:100BEC002DC039F09CEC26F032C0B4F133C0B5F115
:100BFC0034C0B6F135C0B7F118D0500551115211AF
:100C0C005311D8A412D0B4C101F0B5C102F0B6C1D1
:100C1C0003F0B7C104F0D3EC37F001C0B4F102C05B
:100C2C00B5F103C0B6F104C0B7F1B4C1C2F0B5C19F
:100C3C00C3F0B6C1C4F0B7C1C5F01200000E846F8A
:100C4C00000E856F800E866F3F0E876F63AF53D09B
:100C5C005051511152115311D8A43FD0C2C02EF093
:100C6C00C3C02FF0C4C030F0C5C031F0C2C02AF0F0
:100C7C00C3C02BF0C4C02CF0C5C02DF0AEEC36F0C8
:100C8C002AC032F02BC033F02CC034F02DC035F01C
:100C9C00C2C02EF0C3C02FF0C4C030F0C5C031F0BC
:100CAC00C2C02AF0C3C02BF0C4C02CF0C5C02DF0BC
:100CBC00AEEC36F02AC036F02BC037F02CC038F032
:100CCC002DC039F09CEC26F032C0C2F033C0C3F01A
:100CDC0034C0C4F035C0C5F012005005511152118A
:100CEC005311D8A408D0000E846F000E856F800EAF
:100CFC00866FBF0E876F93BF6BD29005000E915914
:100D0C00000E92594D0E9359D8A062D2ABBF0AD0A7
:100D1C00F80EA85DFF0EA9597F0EAA593F0EAB59CC
:100D2C00D8B06CD07FBF35D0600E156E420E166EEB
:100D3C00A20E176E0D0E186E84C111F085C112F043
:100D4C0086C113F087C114F06DEC23F011C0A4F12F
:100D5C0012C0A5F113C0A6F114C0A7F1A4C111F0E3
:100D6C00A5C112F0A6C113F0A7C114F0600E156E48
:100D7C00420E166EA20E176E0D0E186E6DEC23F051
:100D8C0011C0C2F012C0C3F013C0C4F014C0C5F03F
:100D9C001200CA0E156EF20E166E490E176E710EFB
:100DAC00186E84C111F085C112F086C113F087C191
:100DBC0014F06DEC23F011C0A4F112C0A5F113C016
:100DCC00A6F114C0A7F1A4C111F0A5C112F0A6C1DF
:100DDC0013F0A7C114F0CA0E156EF20E166E490E62
:100DEC00176E710E186E6DEC23F011C0C2F012C0AC
:100DFC00C3F013C0C4F014C0C5F01200ABBF7DD05B
:100E0C00080EA85D000EA959800EAA593F0EAB59C9
:100E1C00D8A073D07FBF07D07F517E117D1138E1F0
:100E2C007C05D8B035D0600E156E420E166EA20E33
:100E3C00176E0D0E186E84C111F085C112F086C1AB
:100E4C0013F087C114F06DEC23F011C0A4F112C0A3
:100E5C00A5F113C0A6F114C0A7F1A4C111F0A5C14E
:100E6C0012F0A6C113F0A7C114F0600E156E420E5D
:100E7C00166EA20E176E0D0E186E6DEC23F011C0CF
:100E8C00C2F012C0C3F013C0C4F014C0C5F01200FD
:100E9C00CA0E156EF20E166E490E176E710E186E86
:100EAC0084C111F085C112F086C113F087C114F012
:100EBC006DEC23F011C0A4F112C0A5F113C0A6F182
:100ECC0014C0A7F1A4C111F0A5C112F0A6C113F072
:100EDC00A7C114F0CA0E156EF20E166E490E176EDF
:100EEC00710E186E6DEC23F011C0C2F012C0C3F07D
:100EFC0013C0C4F014C0C5F0120070C101F071C170
:100F0C0002F072C103F073C104F0000E056E000E06
:100F1C00066E800E076EBF0E086E16EC25F001C033
:100F2C00B0F102C0B1F103C0B2F104C0B3F1000ED4
:100F3C00156E000E166E800E176E3E0E186EB0C13A
:100F4C0011F0B1C112F0B2C113F0B3C114F06DECD9
:100F5C0023F011C02EF012C02FF013C030F014C0CB
:100F6C0031F0AB0E2A6EAA0E2B6EAA0E2C6E3E0E14
:100F7C002D6EAEEC36F02AC0A4F12BC0A5F12CC01E
:100F8C00A6F12DC0A7F1B0C115F0B1C116F0B2C1D8
:100F9C0017F0B3C118F0B0C111F0B1C112F0B2C169
:100FAC0013F0B3C114F06DEC23F011C058F112C062
:100FBC0059F113C05AF114C05BF1B0C115F0B1C1B5
:100FCC0016F0B2C117F0B3C118F0A4C111F0A5C14D
:100FDC0012F0A6C113F0A7C114F06DEC23F011C0F0
:100FEC002EF012C02FF013C030F014C031F0000EF0
:100FFC002A6E000E2B6E000E2C6E3F0E2D6EAEEC7C
:10100C0036F02AC048F12BC049F12CC04AF12DC052
:10101C004BF158C111F059C112F05AC113F05BC118
:10102C0014F048C115F049C116F04AC117F04BC174
:10103C0018F06DEC23F011C044F112C045F113C04F
:10104C0046F114C047F1B0C111F0B1C112F0B2C1F8
:10105C0013F0B3C114F0000E156EAA0E166EB80E76
:10106C00176E3F0E186E6DEC23F011C074F112C0A8
:10107C0075F113C076F114C077F1700E156EA50ED4
:10108C00166EEC0E176E360E186EB0C111F0B1C1A3
:10109C0012F0B2C113F0B3C114F06DEC23F011C017
:1010AC002AF012C02BF013C02CF014C02DF03B0E04
:1010BC00156EAA0E166EB80E176E3F0E186E44C142
:1010CC0011F045C112F046C113F047C114F06DEC9C
:1010DC0023F011C02EF012C02FF013C030F014C04A
:1010EC0031F0AEEC36F02AC078F12BC079F12CC07F
:1010FC007AF12DC07BF174C101F075C102F076C19B
:10110C0003F077C104F078C105F079C106F07AC11B
:10111C0007F07BC108F016EC25F001C080F102C08D
:10112C0081F103C082F104C083F180C1B8F181C1A7
:10113C00B9F182C1BAF183C1BBF1B8C194F1B9C1A3
:10114C0095F1BAC196F1BBC197F1000E010194154E
:10115C00B86FF00E9515B96FFF0E9615BA6FFF0E9E
:10116C009715BB6FB8C180F1B9C181F1BAC182F1D9
:10117C00BBC183F174C12EF075C12FF076C130F074
:10118C0077C131F080C12AF081C12BF082C12CF0E3
:10119C0083C12DF0AEEC36F02AC098F12BC099F13A
:1011AC002CC09AF12DC09BF178C12AF079C12BF09B
:1011BC007AC12CF07BC12DF098C12EF099C12FF083
:1011CC009AC130F09BC131F0AEEC36F00FEF10F05D
:1011DC00000E886F000E896F000E8A6F000E8B6FE9
:1011EC00ABBF06D0AB5137E1800EAA5DD8B033D07F
:1011FC0070C111F071C112F072C113F073C114F00F
:10120C00000E156E000E166E800E176E4B0E186EBD
:10121C006DEC23F011C070F112C071F113C072F1BA
:10122C0014C073F1E80E01018827FF0E8923FF0E0D
:10123C008A23FF0E8B2370C1B8F171C1B9F172C151
:10124C00BAF173C1BBF1B8C1A8F1B9C1A9F1BAC166
:10125C00AAF1BBC1ABF1170E6F6EA8C170F0A9C19A
:10126C0071F0AAC172F0ABC173F06F6601D007D0F8
:10127C00733473327232713270326F2EF6D7810E34
:10128C007024746EFF0E7120756EFF0E7220766ED8
:10129C00FF0E7320776E74500101882775508923D7
:1012AC0076508A2377508B23FF0EA815AC6FFF0E58
:1012BC00A915AD6F7F0EAA15AE6F000EAB15AF6FF3
:1012CC00000EAC11A86F000EAD11A96F800EAE11FF
:1012DC00AA6F3F0EAF11AB6FAFBF0AD0AF510AE18F
:1012EC00720EAC5DC40EAD591C0EAE59D8B002D006
:1012FC00000E0DD0AFBF0AD0AF5111E1D70EAC5DCF
:10130C00B30EAD595D0EAE59D8B009D0010EA06F19
:10131C00000EA16F000EA26F000EA36F16D0000E70
:10132C00A06F000EA16F000EA26F000EA36F010E36
:10133C008827000E89238A238B23000EA827000EF2
:10134C00A923800EAA23FF0EAB23A8C1B8F1A9C113
:10135C00B9F1AAC1BAF1ABC1BBF1B8C170F1B9C155
:10136C0071F1BAC172F1BBC173F170C12AF071C1D4
:10137C002BF072C12CF073C12DF0A0C16FF0A1C184
:10138C0070F0D8906F367036D8906F367036810EFC
:10139C006F24F66E060E7020F76E0900F5CF2EF056
:1013AC000900F5CF2FF00900F5CF30F00A00F5CF8A
:1013BC0031F0AEEC36F02AC074F12BC075F12CC0B4
:1013CC0076F12DC077F1000E326E000E336E800E6A
:1013DC00346E3F0E356E70C105F071C106F072C1EE
:1013EC0007F073C108F0A0C16FF0A1C170F0D890E4
:1013FC006F367036D8906F367036810E6F24F66E5D
:10140C00060E7020F76E0900F5CF01F00900F5CF3C
:10141C0002F00900F5CF03F00A00F5CF04F016EC4A
:10142C0025F001C036F002C037F003C038F004C01C
:10143C0039F09CEC26F032C078F133C079F134C02D
:10144C007AF135C07BF174C111F075C112F076C11F
:10145C0013F077C114F078C115F079C116F07AC188
:10146C0017F07BC118F06DEC23F011C054F112C0D1
:10147C0055F113C056F114C057F154C16CF155C15C
:10148C006DF156C16EF157C16FF16CC1B8F16DC100
:10149C00B9F16EC1BAF16FC1BBF1B8C194F1B9C168
:1014AC0095F1BAC196F1BBC197F1000E01019415EB
:1014BC00B86FF00E9515B96FFF0E9615BA6FFF0E3B
:1014CC009715BB6FB8C16CF1B9C16DF1BAC16EF1B2
:1014DC00BBC16FF1A8C16FF0A9C170F0AAC171F0C6
:1014EC00ABC172F072347232713270326F32000EE4
:1014FC006F14736EF00E7014746EFF0E7114756EA3
:10150C00FF0E7214766E000E7310946F000E741032
:10151C00956F000E7510966F200E7610976FA0C108
:10152C006FF0A1C170F0A2C171F0A3C172F0150EE1
:10153C00D8906F36703671367236E82EF9D79451D2
:10154C006F24736E95517020746E96517120756E68
:10155C0097517220766E000E7324B86F000E7420B3
:10156C00B96F400E7520BA6F000E7620BB6FB8C1F4
:10157C0068F1B9C169F1BAC16AF1BBC16BF1A0C123
:10158C006FF0A1C170F0D8906F367036D8906F366E
:10159C007036810E6F24F66E060E7020F76E090001
:1015AC00F5CF2EF00900F5CF2FF00900F5CF30F074
:1015BC000A00F5CF31F068C12AF069C12BF06AC17D
:1015CC002CF06BC12DF0AEEC36F02AC098F12BC08C
:1015DC0099F12CC09AF12DC09BF170C12AF071C108
:1015EC002BF072C12CF073C12DF098C12EF099C163
:1015FC002FF09AC130F09BC131F0AEEC36F02AC01E
:10160C0034F12BC035F12CC036F12DC037F168C147
:10161C0015F069C116F06AC117F06BC118F06CC1F6
:10162C0011F06DC112F06EC113F06FC114F06DECBE
:10163C0023F011C02EF012C02FF013C030F014C0E4
:10164C0031F074C12AF075C12BF076C12CF077C142
:10165C002DF0AEEC36F02AC098F12BC099F12CC0CD
:10166C009AF12DC09BF134C115F035C116F036C17D
:10167C0017F037C118F06CC111F06DC112F06EC1CA
:10168C0013F06FC114F06DEC23F011C02EF012C0EA
:10169C002FF013C030F014C031F098C12AF099C16A
:1016AC002BF09AC12CF09BC12DF0AEEC36F02AC079
:1016BC0058F12BC059F12CC05AF12DC05BF158C117
:1016CC0011F059C112F05AC113F05BC114F078C17A
:1016DC0015F079C116F07AC117F07BC118F06DECDA
:1016EC0023F011C030F112C031F113C032F114C02B
:1016FC0033F154C111F055C112F056C113F057C15A
:10170C0014F054C115F055C116F056C117F057C15D
:10171C0018F06DEC23F011C08CF112C08DF113C0D8
:10172C008EF114C08FF1550E056E320E066E6C0ED6
:10173C00076E3E0E086E420E156EF10E166E530EAF
:10174C00176E3E0E186E8CC111F08DC112F08EC149
:10175C0013F08FC114F06DEC23F011C001F012C026
:10176C0002F013C003F014C004F016EC25F001C015
:10177C00A4F102C0A5F103C0A6F104C0A7F1050EA7
:10178C00056EA30E066E8B0E076E3E0E086E8CC198
:10179C0015F08DC116F08EC117F08FC118F0A4C1D1
:1017AC0011F0A5C112F0A6C113F0A7C114F06DEC95
:1017BC0023F011C001F012C002F013C003F014C0EA
:1017CC0004F016EC25F001C058F102C059F103C029
:1017DC005AF104C05BF1AB0E056EAA0E066EAA0E92
:1017EC00076E3E0E086E8CC115F08DC116F08EC1C1
:1017FC0017F08FC118F058C111F059C112F05AC12D
:10180C0013F05BC114F06DEC23F011C001F012C0A9
:10181C0002F013C003F014C004F016EC25F001C064
:10182C0048F102C049F103C04AF104C04BF1B70EB4
:10183C00056E6D0E066EDB0E076E3E0E086E8CC1CD
:10184C0015F08DC116F08EC117F08FC118F048C17C
:10185C0011F049C112F04AC113F04BC114F06DECF8
:10186C0023F011C001F012C002F013C003F014C039
:10187C0004F016EC25F001C038F102C039F103C0B8
:10188C003AF104C03BF19A0E056E990E066E190ED4
:10189C00076E3F0E086E8CC115F08DC116F08EC10F
:1018AC0017F08FC118F038C111F039C112F03AC1DC
:1018BC0013F03BC114F06DEC23F011C001F012C019
:1018CC0002F013C003F014C004F016EC25F001C0B4
:1018DC0000F102C001F103C002F104C003F18CC19C
:1018EC0015F08DC116F08EC117F08FC118F08CC198
:1018FC0011F08DC112F08EC113F08FC114F06DEC8C
:10190C0023F011C004F112C005F113C006F114C08C
:10191C0007F100C111F001C112F002C113F003C1B3
:10192C0014F004C115F005C116F006C117F007C17B
:10193C0018F06DEC23F011C04CF112C04DF113C036
:10194C004EF114C04FF130C115F031C116F032C157
:10195C0017F033C118F054C105F055C106F056C14B
:10196C0007F057C108F06CC101F06DC102F06EC1F7
:10197C0003F06FC104F016EC25F001C011F002C0A9
:10198C0012F003C013F004C014F06DEC23F011C07E
:10199C005CF112C05DF113C05EF114C05FF14CC17B
:1019AC0001F04DC102F04EC103F04FC104F05CC117
:1019BC0005F05DC106F05EC107F05FC108F016ECE2
:1019CC0025F001C04CF102C04DF103C04EF104C032
:1019DC004FF16CC111F06DC112F06EC113F06FC1FB
:1019EC0014F06CC115F06DC116F06EC117F06FC11B
:1019FC0018F06DEC23F011C08CF112C08DF113C0F6
:101A0C008EF114C08FF1000E056E000E066E400EA6
:101A1C00076E400E086E8CC101F08DC102F08EC1B4
:101A2C0003F08FC104F016EC25F001C05CF102C08C
:101A3C005DF103C05EF104C05FF15CC101F05DC1FA
:101A4C0002F05EC103F05FC104F04CC105F04DC162
:101A5C0006F04EC107F04FC108F016EC25F001C09E
:101A6C0068F102C069F103C06AF104C06BF168C18E
:101A7C00B8F169C1B9F16AC1BAF16BC1BBF1B8C1B6
:101A8C0094F1B9C195F1BAC196F1BBC197F1000EB1
:101A9C0001019415B86FF00E9515B96FFF0E9615E0
:101AAC00BA6FFF0E9715BB6FB8C168F1B9C169F178
:101ABC00BAC16AF1BBC16BF1000E056E000E066E69
:101ACC00400E076EC00E086E68C101F069C102F0CD
:101ADC006AC103F06BC104F016EC25F001C03CF1B7
:101AEC0002C03DF103C03EF104C03FF18CC12EF0A9
:101AFC008DC12FF08EC130F08FC131F03CC12AF076
:101B0C003DC12BF03EC12CF03FC12DF0AEEC36F0B8
:101B1C002AC040F12BC041F12CC042F12DC043F141
:101B2C004CC12AF04DC12BF04EC12CF04FC12DF001
:101B3C0040C12EF041C12FF042C130F043C131F011
:101B4C00AEEC36F02AC034F12BC035F12CC036F196
:101B5C002DC037F16CC111F06DC112F06EC113F0D4
:101B6C006FC114F068C115F069C116F06AC117F0A5
:101B7C006BC118F06DEC23F011C074F112C075F14B
:101B8C0013C076F114C077F168C115F069C116F075
:101B9C006AC117F06BC118F030C111F031C112F0ED
:101BAC0032C113F033C114F06DEC23F011C001F00D
:101BBC0012C002F013C003F014C004F054C115F0AD
:101BCC0055C116F056C117F057C118F034C111F0B9
:101BDC0035C112F036C113F037C114F06DEC23F09F
:101BEC0011C005F012C006F013C007F014C008F0C5
:101BFC0016EC25F001C078F102C079F103C07AF13E
:101C0C0004C07BF174C101F075C102F076C103F020
:101C1C0077C104F078C105F079C106F07AC107F0FC
:101C2C007BC108F016EC25F001C09CF102C09DF1BF
:101C3C0003C09EF104C09FF19CC1B8F19DC1B9F1E4
:101C4C009EC1BAF19FC1BBF1B8C194F1B9C195F174
:101C5C00BAC196F1BBC197F1000E01019415B86F92
:101C6C00F00E9515B96FFF0E9615BA6FFF0E9715FE
:101C7C00BB6FB8C19CF1B9C19DF1BAC19EF1BBC19A
:101C8C009FF174C12EF075C12FF076C130F077C181
:101C9C0031F09CC12AF09DC12BF09EC12CF09FC14C
:101CAC002DF0AEEC36F02AC098F12BC099F12CC077
:101CBC009AF12DC09BF178C12AF079C12BF07AC131
:101CCC002CF07BC12DF098C12EF099C12FF09AC148
:101CDC0030F09BC131F0AEEC36F02AC064F12BC071
:101CEC0065F12CC066F12DC067F19CC111F09DC14E
:101CFC0012F09EC113F09FC114F0000E156E400E31
:101D0C00166E760E176E3F0E186E6DEC23F011C02A
:101D1C0020F112C021F113C022F114C023F14F0E97
:101D2C00156E380E166E760E176E3F0E186E64C159
:101D3C0011F065C112F066C113F067C114F06DECBF
:101D4C0023F011C005F012C006F013C007F014C048
:101D5C0008F0C60E156E230E166EF60E176EB80E24
:101D6C00186E9CC111F09DC112F09EC113F09FC161
:101D7C0014F06DEC23F011C001F012C002F013C08E
:101D8C0003F014C004F016EC25F001C05CF102C0A5
:101D9C005DF103C05EF104C05FF15CC101F05DC197
:101DAC0002F05EC103F05FC104F0A0C16FF0A1C1ED
:101DBC0070F0D8906F367036D8906F367036010E42
:101DCC006F24F66E060E7020F76E0900F5CF05F045
:101DDC000900F5CF06F00900F5CF07F00A00F5CFA2
:101DEC0008F016EC25F001C024F102C025F103C067
:101DFC0026F104C027F188C101F089C102F08AC123
:101E0C0003F08BC104F0010EACEC2EF001C0B0F16C
:101E1C0002C0B1F103C0B2F104C0B3F124C105F0AA
:101E2C0025C106F026C107F027C108F020C101F03A
:101E3C0021C102F022C103F023C104F016EC25F0FD
:101E4C0001C05CF102C05DF103C05EF104C05FF142
:101E5C00A0C16FF0A1C170F0D8906F367036D890D9
:101E6C006F367036090E6F24F66E060E7020F76E04
:101E7C000900F5CF05F00900F5CF06F00900F5CF04
:101E8C0007F00A00F5CF08F05CC101F05DC102F06B
:101E9C005EC103F05FC104F016EC25F001C008F13F
:101EAC0002C009F103C00AF104C00BF108C101F032
:101EBC0009C102F00AC103F00BC104F0B0C105F076
:101ECC00B1C106F0B2C107F0B3C108F016EC25F0B1
:101EDC0001C080F102C081F103C082F104C083F122
:101EEC0080C1B8F181C1B9F182C1BAF183C1BBF132
:101EFC00B8C194F1B9C195F1BAC196F1BBC197F1D2
:101F0C00000E01019415B86FF00E9515B96FFF0E08
:101F1C009615BA6FFF0E9715BB6FB8C180F1B9C19A
:101F2C0081F1BAC182F1BBC183F1B0C12EF0B1C154
:101F3C002FF0B2C130F0B3C131F080C12AF081C1B1
:101F4C002BF082C12CF083C12DF0AEEC36F02AC000
:101F5C0098F12BC099F12CC09AF12DC09BF1A0C126
:101F6C006FF0A1C170F0D8906F367036D8906F3684
:101F7C007036090E6F24F66E060E7020F76E09008F
:101F8C00F5CF2EF00900F5CF2FF00900F5CF30F08A
:101F9C000A00F5CF31F098C12AF099C12BF09AC103
:101FAC002CF09BC12DF0AEEC36F02AC040F12BC0CA
:101FBC0041F12CC042F12DC043F120C12EF021C1C2
:101FCC002FF022C130F023C131F040C12AF041C1C1
:101FDC002BF042C12CF043C12DF0AEEC36F02AC0F0
:101FEC000CF12BC00DF12CC00EF12DC00FF124C142
:101FFC002AF025C12BF026C12CF027C12DF00CC1E5
:10200C002EF00DC12FF00EC130F00FC131F0AEEC3F
:10201C0036F02AC01CF12BC01DF12CC01EF12DC0B6
:10202C001FF1C6C0B8F1C7C0B9F1C8C0BAF1C9C078
:10203C00BBF1B8C194F1B9C195F1BAC196F1BBC16C
:10204C0097F1000E01019415B86FF00E9515B96F4C
:10205C00FF0E9615BA6FFF0E9715BB6FB8C128F11E
:10206C00B9C129F1BAC12AF1BBC12BF180C115F05C
:10207C0081C116F082C117F083C118F028C12EF06F
:10208C0029C12FF02AC130F02BC131F0C6C02AF083
:10209C00C7C02BF0C8C02CF0C9C02DF0AEEC36F088
:1020AC002AC011F02BC012F02CC013F02DC014F06C
:1020BC006DEC23F011C010F112C011F113C012F12C
:1020CC0014C013F110C101F011C102F012C103F0E0
:1020DC0013C104F01CC115F01DC116F01EC117F080
:1020EC001FC118F0C6C011F0C7C012F0C8C013F061
:1020FC00C9C014F06DEC23F011C005F012C006F04D
:10210C0013C007F014C008F016EC25F001C064F100
:10211C0002C065F103C066F104C067F128C111F07B
:10212C0029C112F02AC113F02BC114F080C115F093
:10213C0081C116F082C117F083C118F06DEC23F049
:10214C0011C09CF112C09DF113C09EF114C09FF1FF
:10215C0064C101F065C102F066C103F067C104F00F
:10216C009CC105F09DC106F09EC107F09FC108F00F
:10217C0016EC25F001C0B4F102C0B5F103C0B6F104
:10218C0004C0B7F1B4C1B8F1B5C1B9F1B6C1BAF177
:10219C00B7C1BBF1B8C1ACF1B9C1ADF1BAC1AEF1C7
:1021AC00BBC1AFF10101AFBF3ED0AC05000EAD59C4
:1021BC00000EAE59430EAF59D8A035D0CA0E156ECD
:1021CC00F20E166E490E176E710E186E84C111F058
:1021DC0085C112F086C113F087C114F06DEC23F0A9
:1021EC0011C0A4F112C0A5F113C0A6F114C0A7F13F
:1021FC00A4C111F0A5C112F0A6C113F0A7C114F02F
:10220C00CA0E156EF20E166E490E176E710E186E02
:10221C006DEC23F011C0C2F012C0C3F013C0C4F0B7
:10222C0014C0C5F01200430EAF19AC11AD11AE11B4
:10223C00D8A46DD09CC12EF09DC12FF09EC130F062
:10224C009FC131F0B4C12AF0B5C12BF0B6C12CF04E
:10225C00B7C12DF0AEEC36F02AC032F02BC033F003
:10226C002CC034F02DC035F03C0E056EAA0E066E57
:10227C00380E076E330E086E64C101F065C102F0B2
:10228C0066C103F067C104F016EC25F001C036F00E
:10229C0002C037F003C038F004C039F004EC32F05F
:1022AC00D8B0E5D0CA0E156EF20E166E490E176E2A
:1022BC00710E186E84C111F085C112F086C113F035
:1022CC0087C114F06DEC23F011C0A4F112C0A5F17C
:1022DC0013C0A6F114C0A7F1A4C111F0A5C112F04E
:1022EC00A6C113F0A7C114F0CA0E156EF20E166E2D
:1022FC00490E176E710E186E6DEC23F011C0C2F002
:10230C0012C0C3F013C0C4F014C0C5F01200FF0E0D
:10231C00AC156F6EFF0EAD15706EFF0EAE15716EB7
:10232C007F0EAF15726E72BE3ED06F04000E7058E9
:10233C00160E7158430E7258D8A035D0600E156E1B
:10234C00420E166EA20E176E0D0E186E84C111F091
:10235C0085C112F086C113F087C114F06DEC23F027
:10236C0011C0A4F112C0A5F113C0A6F114C0A7F1BD
:10237C00A4C111F0A5C112F0A6C113F0A7C114F0AD
:10238C00600E156E420E166EA20E176E0D0E186EA6
:10239C006DEC23F011C0C2F012C0C3F013C0C4F036
:1023AC0014C0C5F01200160EAE1961E1C30EAF19C0
:1023BC00AC11AD11D8A45BD09CC12EF09DC12FF0F7
:1023CC009EC130F09FC131F0B4C12AF0B5C12BF0E1
:1023DC00B6C12CF0B7C12DF0AEEC36F02AC032F0FD
:1023EC002BC033F02CC034F02DC035F064C136F066
:1023FC0065C137F066C138F067C139F004EC32F0D2
:10240C00D8A035D0600E156E420E166EA20E176E49
:10241C000D0E186E84C111F085C112F086C113F037
:10242C0087C114F06DEC23F011C0A4F112C0A5F11A
:10243C0013C0A6F114C0A7F1A4C111F0A5C112F0EC
:10244C00A6C113F0A7C114F0600E156E420E166EE5
:10245C00A20E176E0D0E186E6DEC23F011C0C2F0AB
:10246C0012C0C3F013C0C4F014C0C5F01200FF0EAC
:10247C000101AC152C6FFF0EAD152D6FFF0EAE15B7
:10248C002E6F7F0EAF152F6F170E6F6E2CC170F065
:10249C002DC171F02EC172F02FC173F06F6601D097
:1024AC0007D0733473327232713270326F2EF6D7AA
:1024BC00810E70240101A06FFF0E7120A16FFF0E21
:1024CC007220A26FFF0E7320A36F000E886F000E98
:1024DC00896F000E8A6F000E8B6F2FBFD8D02C0522
:1024EC00000E2D59000E2E593F0E2F59D8A0CFD0CB
:1024FC00A0C16FF0010E6F26000E706E000E716E93
:10250C00800E726E000E736E6F6601D007D073343E
:10251C0073327232713270326F2EF6D70101AC51B8
:10252C007024886FAD517120896FAE5172208A6F03
:10253C00AF5173208B6F810E6F6EFF0E706EFF0E9E
:10254C00716EFF0E726E170E736E88C174F089C1B6
:10255C0075F08AC176F08BC177F0736601D007D025
:10256C0077347732763275327432732EF6D77450E4
:10257C006F240101A06F000E7020A16F000E71205E
:10258C00A26F000E7220A36FA0C16FF0FF0E706ED1
:10259C00FF0E716E7F0E726E000E736E6F6601D041
:1025AC0007D0733473327232713270326F2EF6D7A9
:1025BC00701C746E711C756E721C766E731C776E4B
:1025CC00010188517414B86F89517514B96F8A510F
:1025DC007614BA6F8B517714BB6FB8C1B0F1B9C117
:1025EC00B1F1BAC1B2F1BBC1B3F1A05117086F6E12
:1025FC00FF0E8815706EFF0E8915716E7F0E8A1591
:10260C00726E000E8B15736E000E7010746E000ED1
:10261C007110756E800E7210766E000E7310776EE0
:10262C006F6601D007D077347732763275327432D8
:10263C006F2EF6D774C088F175C089F176C08AF117
:10264C0077C08BF10101AFAF08D08B1F8A1F891F98
:10265C00886D000E89238A238B239CC12AF09DC18F
:10266C002BF09EC12CF09FC12DF0B0C12EF0B1C14A
:10267C002FF0B2C130F0B3C131F0AEEC36F02AC05D
:10268C009CF12BC09DF12CC09EF12DC09FF164C11B
:10269C0001F065C102F066C103F067C104F09CC192
:1026AC0005F09DC106F09EC107F09FC108F016EC25
:1026BC0025F001C0B0F102C0B1F103C0B2F104C009
:1026CC00B3F1B0C1B8F1B1C1B9F1B2C1BAF1B3C192
:1026DC00BBF1B8C194F1B9C195F1BAC196F1BBC1C6
:1026EC0097F1000E01019415B86F800E9515B96F16
:1026FC00FF0E9615BA6FFF0E9715BB6FB8C1B0F1F0
:10270C00B9C1B1F1BAC1B2F1BBC1B3F1B0C111F0F1
:10271C00B1C112F0B2C113F0B3C114F0000E156EBA
:10272C00720E166E310E176E3F0E186E6DEC23F096
:10273C0011C074F112C075F113C076F114C077F1A9
:10274C009CC12EF09DC12FF09EC130F09FC131F085
:10275C00B0C12AF0B1C12BF0B2C12CF0B3C12DF035
:10276C00AEEC36F02AC098F12BC099F12CC09AF13E
:10277C002DC09BF1180E156E720E166E310E176E63
:10278C003F0E186E98C12EF099C12FF09AC130F0FF
:10279C009BC131F064C12AF065C12BF066C12CF0ED
:1027AC0067C12DF0AEEC36F02AC011F02BC012F040
:1027BC002CC013F02DC014F06DEC23F011C014F1EB
:1027CC0012C015F113C016F114C017F114C101F0A9
:1027DC0015C102F016C103F017C104F08C0E156E72
:1027EC00BE0E166EBF0E176E350E186EB0C111F000
:1027FC00B1C112F0B2C113F0B3C114F06DEC23F0FF
:10280C0011C005F012C006F013C007F014C008F098
:10281C0016EC25F001C078F102C079F103C07AF111
:10282C0004C07BF174C101F075C102F076C103F0F4
:10283C0077C104F078C105F079C106F07AC107F0D0
:10284C007BC108F016EC25F001C0B4F102C0B5F163
:10285C0003C0B6F104C0B7F174C12EF075C12FF0EE
:10286C0076C130F077C131F0B4C12AF0B5C12BF08C
:10287C00B6C12CF0B7C12DF0AEEC36F02AC098F1F1
:10288C002BC099F12CC09AF12DC09BF178C12AF084
:10289C0079C12BF07AC12CF07BC12DF098C12EF0B0
:1028AC0099C12FF09AC130F09BC131F0AEEC36F0EB
:1028BC002AC044F12BC045F12CC046F12DC047F184
:1028CC00B4C111F0B5C112F0B6C113F0B7C114F018
:1028DC00B4C115F0B5C116F0B6C117F0B7C118F0F8
:1028EC006DEC23F011C0B0F112C0B1F113C0B2F114
:1028FC0014C0B3F10E0E056EEA0E066EDD0E076EF9
:10290C00B50E086E4C0E156EBB0E166E310E176E94
:10291C00330E186EB0C111F0B1C112F0B2C113F088
:10292C00B3C114F06DEC23F011C001F012C002F031
:10293C0013C003F014C004F016EC25F001C0A4F190
:10294C0002C0A5F103C0A6F104C0A7F1550E056E97
:10295C00B30E066E8A0E076E380E086EB0C115F0F7
:10296C00B1C116F0B2C117F0B3C118F0A4C111F087
:10297C00A5C112F0A6C113F0A7C114F06DEC23F0A1
:10298C0011C001F012C002F013C003F014C004F027
:10299C0016EC25F001C058F102C059F103C05AF1F0
:1029AC0004C05BF1610E056E0B0E066E360E076EE3
:1029BC00BB0E086EB0C115F0B1C116F0B2C117F064
:1029CC00B3C118F058C111F059C112F05AC113F02B
:1029DC005BC114F06DEC23F011C001F012C002F0D9
:1029EC0013C003F014C004F016EC25F001C048F13C
:1029FC0002C049F103C04AF104C04BF1AB0E056EA5
:102A0C00AA0E066E2A0E076E3E0E086EB0C115F0A9
:102A1C00B1C116F0B2C117F0B3C118F048C111F032
:102A2C0049C112F04AC113F04BC114F06DEC23F004
:102A3C0011C001F012C002F013C003F014C004F076
:102A4C0016EC25F001C038F102C039F103C03AF19F
:102A5C0004C03BF1B4C12AF0B5C12BF0B6C12CF0C7
:102A6C00B7C12DF0B0C115F0B1C116F0B2C117F05D
:102A7C00B3C118F038C111F039C112F03AC113F0DA
:102A8C003BC114F06DEC23F011C02EF012C02FF0EE
:102A9C0013C030F014C031F0AEEC36F02AC080F127
:102AAC002BC081F12CC082F12DC083F1000E056E7C
:102ABC00000E066E000E076EC00E086E80C101F08F
:102ACC0081C102F082C103F083C104F016EC25F041
:102ADC0001C036F002C037F003C038F004C039F042
:102AEC0080C115F081C116F082C117F083C118F0B6
:102AFC00B4C111F0B5C112F0B6C113F0B7C114F0E6
:102B0C006DEC23F011C032F012C033F013C034F06E
:102B1C0014C035F09CEC26F032C03CF133C03DF1D2
:102B2C0034C03EF135C03FF144C105F045C106F05B
:102B3C0046C107F047C108F044C115F045C116F075
:102B4C0046C117F047C118F0B4C111F0B5C112F06D
:102B5C00B6C113F0B7C114F06DEC23F011C001F045
:102B6C0012C002F013C003F014C004F016EC25F0F0
:102B7C0001C018F102C019F103C01AF104C01BF115
:102B8C003CC12AF03DC12BF03EC12CF03FC12DF0D1
:102B9C0018C12EF019C12FF01AC130F01BC131F041
:102BAC00AEEC36F02AC04CF12BC04DF12CC04EF1DE
:102BBC002DC04FF1B4C12EF0B5C12FF0B6C130F01D
:102BCC00B7C131F04CC12AF04DC12BF04EC12CF0E5
:102BDC004FC12DF0AEEC36F02AC098F12BC099F114
:102BEC002CC09AF12DC09BF1000E2A6E000E2B6E9C
:102BFC00800E2C6E3F0E2D6E98C12EF099C12FF0C9
:102C0C009AC130F09BC131F0AEEC36F02AC0B4F171
:102C1C002BC0B5F12CC0B6F12DC0B7F1B4C1B8F1D1
:102C2C00B5C1B9F1B6C1BAF1B7C1BBF1B8C1ACF11C
:102C3C00B9C1ADF1BAC1AEF1BBC1AFF188C16FF092
:102C4C0089C170F08AC171F08BC172F0170ED890E7
:102C5C006F36703671367236E82EF9D76F50010127
:102C6C00AC277050AD237150AE237250AF23170EAA
:102C7C006F6EACC170F0ADC171F0AEC172F0AFC18E
:102C8C0073F06F6601D007D07334733272327132C5
:102C9C0070326F2EF6D773BE07D07350721071104E
:102CAC001AE17004D8B017D0B4C12AF0B5C12BF01A
:102CBC00B6C12CF0B7C12DF088C12EF089C12FF010
:102CCC000AEC2AF02AC0B4F12BC0B5F12CC0B6F135
:102CDC002DC0B7F110D0ACC1B8F1ADC1B9F1AEC1D6
:102CEC00BAF1AFC1BBF1B8C1B4F1B9C1B5F1BAC158
:102CFC00B6F1BBC1B7F184C111F085C112F086C128
:102D0C0013F087C114F0B4C115F0B5C116F0B6C1FB
:102D1C0017F0B7C118F06DEC23F011C0C2F012C05F
:102D2C00C3F013C0C4F014C0C5F01200000E0101B2
:102D3C00D76F000ED66FD0C0E6F1D1C0E7F1D2C08C
:102D4C00E8F1D3C0E9F1E9AF16D0000ED76F010E50
:102D5C00D66FE6C101F0E7C102F0E8C103F0E9C1AA
:102D6C0004F0D3EC37F001C0E6F102C0E7F103C088
:102D7C00E8F104C0E9F1000E0101EF6F000EEE6FF7
:102D8C0020C2DBF121C2DCF1D651D711D8A403D07B
:102D9C00020124A514D00101D651D711D8A404D016
:102DAC00000EC16F2B0E03D0000EC16F2D0EC06F25
:102DBC00C0C12CF2EE4BEF2BDB07D8A0DC07E6C131
:102DCC0001F0E7C102F0E8C103F0E9C104F06CECDA
:102DDC0032F001040210D8A44DD0BF0E0001D56F03
:102DEC00FF0ED66FD451D76FD86BD551D727D6518C
:102DFC00D823D85106E11A0ED75DD8B002D0010EF7
:102E0C0001D0000E0101C26FC36BC251C311D8B403
:102E1C000DD02C0EEE25016E020EEF21026EB70EB8
:102E2C00036E060E046E17EC36F00CD02C0EEE254D
:102E3C00016E020EEF21026EBF0E036E060E046EC3
:102E4C0017EC36F00101FD0EDB27FF0EDC23CEC0A4
:102E5C0011F0CFC012F02C0E136E020E146EDBC1EB
:102E6C0015F0DCC116F0D1EC33F011C0CEF012C06D
:102E7C00CFF01200E6C101F0E7C102F0E8C103F0A7
:102E8C00E9C104F06CEC32F001500210D8A436D039
:102E9C00BF0E0001D56FFF0ED66FD451D76FD86B14
:102EAC00D551D727D651D823D85106E11A0ED75D64
:102EBC00D8B002D0010E01D0000E0101C46FC56B59
:102ECC00C451C511D8B40DD02C0EEE25016E020ED6
:102EDC00EF21026EBB0E036E060E046E17EC36F07D
:102EEC00B1D72C0EEE25016E020EEF21026EC30E31
:102EFC00036E060E046E17EC36F0A4D7000E01011B
:102F0C00F06F000EF16F800EF26F3F0EF36F000E3C
:102F1C00ED6F000EEC6FE6C101F0E7C102F0E8C105
:102F2C0003F0E9C104F0000E056E000E066E000EF3
:102F3C00076E000E086E1EEC34F0D8A01ED076D0B2
:102F4C00F0C111F0F1C112F0F2C113F0F3C114F0A1
:102F5C00000E156E000E166E200E176E410E186EBA
:102F6C006DEC23F011C0F0F112C0F1F113C0F2F1CD
:102F7C0014C0F3F10101EC4BED2BE6C132F0E7C1CB
:102F8C0033F0E8C134F0E9C135F0000E156E000ED7
:102F9C00166E200E176E410E186EF0C111F0F1C1B5
:102FAC0012F0F2C113F0F3C114F06DEC23F011C068
:102FBC0036F012C037F013C038F014C039F004ECFE
:102FCC0032F0D8A01FD0BCD7F0C132F0F1C133F031
:102FDC00F2C134F0F3C135F0000E366E000E376ED0
:102FEC00200E386E410E396E9CEC26F032C0F0F19A
:102FFC0033C0F1F134C0F2F135C0F3F10101EC074B
:10300C00D8A0ED07E6C132F0E7C133F0E8C134F0E7
:10301C00E9C135F0F0C136F0F1C137F0F2C138F04A
:10302C00F3C139F004EC32F0D8A0CED7D4C007F0FD
:10303C00086A40EC36F007500101DD6FDDC1DAF1B2
:10304C00670EDD19D8A41BD0020122512311D8A47C
:10305C0004D0000E236F010E226F23BF05D0235125
:10306C0009E12205D8B006D0000E0101D96F060E79
:10307C00D86F09D022C2D8F123C2D9F104D00201F1
:10308C0023AFF8D7F1D7670E0101DD19D8A428D0EA
:10309C00EDAF06D0FC0EEC5DFF0EED59D8A01DD0A7
:1030AC00FF0E0001D56FFF0ED66FD8C1D7F0D9C176
:1030BC00D8F0D551D727D651D8230101EC510001B6
:1030CC00D75DD851800AD96F0101ED51800A0001FA
:1030DC00D959D8A002D0660E01D0650E0101DA6F65
:1030EC00D8C1D0F1D9C1D1F1670EDD19D8A405D062
:1030FC00660EDA19D8B4EDAF02D0D04BD12B660ED8
:10310C00DA19D8A416D0EDAF0CD0000EF06F000E6B
:10311C00F16F800EF26F3F0EF36F000EED6F000E2D
:10312C00EC6F670EDD19D8B404D0EC51D027ED51FB
:10313C00D123000EEB6F000EEA6FE6C1DEF1E7C1A2
:10314C00DFF1E8C1E0F1E9C1E1F1F0C1BCF1F1C19D
:10315C00BDF1F2C1BEF1F3C1BFF17BD0DEC132F0E3
:10316C00DFC133F0E0C134F0E1C135F0F0C136F02D
:10317C00F1C137F0F2C138F0F3C139F09CEC26F014
:10318C0032C04BF033C04CF034C04DF035C04EF073
:10319C00DFEC2BF04BC0E2F14CC0E3F14DC0E4F19D
:1031AC004EC0E5F1E2C1CAF0E3C1CBF0E4C1CCF012
:1031BC00E5C1CDF0D2EC32F0CAC0D4F1CBC0D5F120
:1031CC00DEC12AF0DFC12BF0E0C12CF0E1C12DF003
:1031DC00F0C115F0F1C116F0F2C117F0F3C118F0FF
:1031EC00E2C111F0E3C112F0E4C113F0E5C114F037
:1031FC006DEC23F011C02EF012C02FF013C030F084
:10320C0014C031F0AEEC36F02AC0DEF12BC0DFF189
:10321C002CC0E0F12DC0E1F1F0C132F0F1C133F07E
:10322C00F2C134F0F3C135F0000E366E000E376E7D
:10323C00200E386E410E396E9CEC26F032C0F0F147
:10324C0033C0F1F134C0F2F135C0F3F10101EA4BB6
:10325C00EB2BD051EA5DEB51800A0001D56F0101D7
:10326C00D151800A0001D559D8A078D7F0C111F0FE
:10327C00F1C112F0F2C113F0F3C114F0000E156E8F
:10328C00000E166EA00E176E400E186E6DEC23F02D
:10329C0011C0E2F112C0E3F113C0E4F114C0E5F186
:1032AC00DEC132F0DFC133F0E0C134F0E1C135F002
:1032BC00E2C136F0E3C137F0E4C138F0E5C139F0D2
:1032CC0004EC32F0D8B003D0000E010118D0DEC1EE
:1032DC0001F0DFC102F0E0C103F0E1C104F0E2C192
:1032EC0005F0E3C106F0E4C107F0E5C108F01EECFF
:1032FC0034F0D8A00BD00101D4B108D0000EE26F8D
:10330C00000EE36F000EE46F000EE56FE6C101F0F6
:10331C00E7C102F0E8C103F0E9C104F0E2C105F035
:10332C00E3C106F0E4C107F0E5C108F016EC25F0A6
:10333C0001C0DEF102C0DFF103C0E0F104C0E1F135
:10334C00BCC1F0F1BDC1F1F1BEC1F2F1BFC1F3F1ED
:10335C00650E0101DA19D8B405D0ECC1D2F1EDC17A
:10336C00D3F104D0000ED36F000ED26F000ECF6FCE
:10337C00000ECE6F000ECD6F000ECC6F000EEB6FFB
:10338C00000EEA6FC8D0DEC132F0DFC133F0E0C10D
:10339C0034F0E1C135F0F0C136F0F1C137F0F2C1D3
:1033AC0038F0F3C139F09CEC26F032C04BF033C04E
:1033BC004CF034C04DF035C04EF0DFEC2BF04BC070
:1033CC00E2F14CC0E3F14DC0E4F14EC0E5F1E2C1D5
:1033DC00CAF0E3C1CBF0E4C1CCF0E5C1CDF0D2EC46
:1033EC0032F0CAC0D4F1CBC0D5F1020124B90DD052
:1033FC000101D451D511D8A408D0670EDD19D8B469
:10340C00D3AF03D0CC4BCD2B3AD00101CE51CF1141
:10341C00D8B4D3AF22D02C0EEE25D96E020EEF21EC
:10342C00DA6E2E0EDF6EEE4BEF2BDB07D8A0DC072F
:10343C00000ECF6F010ECE6F10D02C0EEE25D96E74
:10344C00020EEF21DA6E300EDF6EEE4BEF2BDB0748
:10345C00D8A0DC07CC07D8A0CD07CC51CD11D8A46F
:10346C00ECD72C0EEE25D96E020EEF21DA6ED4516C
:10347C00300FDF6EEE4BEF2BDB07D8A0DC07DEC185
:10348C002AF0DFC12BF0E0C12CF0E1C12DF0F0C12E
:10349C0015F0F1C116F0F2C117F0F3C118F0E2C14A
:1034AC0011F0E3C112F0E4C113F0E5C114F06DECBE
:1034BC0023F011C02EF012C02FF013C030F014C046
:1034CC0031F0AEEC36F02AC0DEF12BC0DFF12CC0AF
:1034DC00E0F12DC0E1F1F0C132F0F1C133F0F2C1F5
:1034EC0034F0F3C135F0000E366E000E376E200E40
:1034FC00386E410E396E9CEC26F032C0F0F133C0C0
:10350C00F1F134C0F2F135C0F3F10101D207D8A0CA
:10351C00D307EA4BEB2BD051EA5DEB51800A00014B
:10352C00D56F0101D151800A0001D559D8B009D00D
:10353C000101EFBF28D7EF5104E14B0EEE5DD8A08F
:10354C0022D70101CE51CF11D8A40ED0020124A94B
:10355C000BD02C0E0101EE25D96E020EEF21DA6E86
:10356C002E0EDF6EEE4BEF2B2C0E0101EE25D96EDD
:10357C00020EEF21DA6E000EDF6E650EDA19D8A49A
:10358C0066D4000EEB6F4F0EEA6F2C0EEA25D96E47
:10359C00020EEB21DA6E000EDF6E000ED76F000EFE
:1035AC00D66FEDAF08D0000ED76F010ED66FEC6D55
:1035BC00ED1FD8B0ED2B000ED96F020ED86F2BD0AB
:1035CC00EA07D8A0EB072C0EEA25D96E020EEB21E8
:1035DC00DA6EECC101F0EDC102F0000E046E0A0EC1
:1035EC00036E1CEC35F00150300FDF6EECC101F0B6
:1035FC00EDC102F0000E046E0A0E036E63EC34F0A3
:10360C0001C0ECF102C0EDF10101D807D8A0D90737
:10361C00DB07D8A0DC07EC51ED11D8A4D1D7D9BF6A
:10362C0005D0D951CDE1D805D8B0CAD7EA07D8A072
:10363C00EB07D651D711D8A404D0000EC76F2B0EB0
:10364C0003D0000EC76F2D0EC66F2C0EEA25D96E57
:10365C00020EEB21DA6EC6C1DFFFDB07D8A0DC0758
:10366C00EA07D8A0EB07BF0E0001D56FFF0ED66F8F
:10367C00D451D76FD86BD551D727D651D823D85121
:10368C0006E11A0ED75DD8B002D0010E01D0000EA3
:10369C000101CA6FCB6BCA51CB11D8A404D0000E58
:1036AC00C96F650E03D0000EC96F450EC86F2C0E86
:1036BC00EA25D96E020EEB21DA6EC8C1DFFFDB07FB
:1036CC00D8A0DC072C0EEE25016E020EEF21026E47
:1036DC002C0EEA25036E020EEB21046E17EC36F06D
:1036EC002DEF17F004C2B6F005C2B7F006C2B8F061
:1036FC0007C2B9F04BC0B6F04CC0B7F04DC0B8F033
:10370C004EC0B9F0B6C0BEF0B7C0BFF0B8C0C0F084
:10371C00B9C0C1F0000E00019D6F000E9C6FC1512D
:10372C0004E1800EC05DD8A017D0BEC04FF0BFC062
:10373C0050F0C0C051F0C1C052F0200E05D0D8904E
:10374C005232513250324F32E82EF9D74F5050107E
:10375C0051105210D8B4AFD0D890BE354F6EBF3583
:10376C00506EC035516EC135526E4F5050105110C5
:10377C005210D8A42DD0000E326E000E336E800E77
:10378C00346EBF0E356E4BC015F04CC016F04DC0EC
:10379C0017F04EC018F04BC011F04CC012F04DC0D9
:1037AC0013F04EC014F06DEC23F011C036F012C0C3
:1037BC0037F013C038F014C039F09CEC26F032C04E
:1037CC004BF033C04CF034C04DF035C04EF012000D
:1037DC00BEC04FF0BFC050F0C0C051F0C1C052F0DD
:1037EC00200E05D0D8905232513250324F32E82E42
:1037FC00F9D74F50501051105210D8B42DD04BC097
:10380C002EF04CC02FF04DC030F04EC031F04BC0FC
:10381C002AF04CC02BF04DC02CF04EC02DF0AEEC6D
:10382C0036F02AC032F02BC033F02CC034F02DC04F
:10383C0035F0000E366E000E376E000E386E000E30
:10384C00396E9CEC26F032C04BF033C04CF034C0D7
:10385C004DF035C04EF01200E70E9C27FF0E9D2355
:10386C004BC011F04CC012F04DC013F04EC014F010
:10387C00000E156E000E166E000E176E4C0E186EA6
:10388C006DEC23F011C04BF012C04CF013C04DF096
:10389C0014C04EF04BC0B6F04CC0B7F04DC0B8F0F1
:1038AC004EC0B9F0B6C0BEF0B7C0BFF0B8C0C0F0E3
:1038BC00B9C0C1F021D0800EC05D7F0EC159D8A017
:1038CC0009D04BC04BF04CC04CF04DC04DF04EC02D
:1038DC004EF01200800EC0190FE13F0EC119BE113F
:1038EC00BF11D8A409D0000E4B6E000E4C6E000E0A
:1038FC004D6E000E4E6E12000D0E0001BE27FB0E1B
:10390C00BF234A0EC023000EC123810E4F6EFF0E43
:10391C00506EBEC051F0BFC052F0C0C053F0C1C019
:10392C0054F0180E05D0D8905432533252325132D2
:10393C00E82EF9D74F5051265050522251509C2707
:10394C0052509D23FF0EBE154F6EFF0EBF15506ECD
:10395C007F0EC015516E000EC115526EF30E4F2422
:10396C00BE6F040E5020BF6F350E5120C06F3F0E3E
:10397C005220C16FBEC0B6F0BFC0B7F0C0C0B8F027
:10398C00C1C0B9F0B6C04BF0B7C04CF0B8C04DF0E8
:10399C00B9C04EF04BC001F04CC002F04DC003F06A
:1039AC004EC004F0000E056E000E066E800E076E03
:1039BC00BF0E086E16EC25F001C0BAF002C0BBF0C9
:1039CC0003C0BCF004C0BDF0BAC032F0BBC033F0D1
:1039DC00BCC034F0BDC035F0000E056E000E066E96
:1039EC00000E076E400E086EBAC001F0BBC002F0AC
:1039FC00BCC003F0BDC004F016EC25F001C036F0DD
:103A0C0002C037F003C038F004C039F09CEC26F04B
:103A1C0032C0A6F033C0A7F034C0A8F035C0A9F06E
:103A2C00A6C011F0A7C012F0A8C013F0A9C014F0E2
:103A3C00A6C015F0A7C016F0A8C017F0A9C018F0C2
:103A4C006DEC23F011C0AAF012C0ABF013C0ACF0B7
:103A5C0014C0ADF0AAC011F0ABC012F0ACC013F0A2
:103A6C00ADC014F0AAC015F0ABC016F0ACC017F086
:103A7C00ADC018F06DEC23F011C0AEF012C0AFF079
:103A8C0013C0B0F014C0B1F0130E056ECE0E066E5E
:103A9C00CC0E076E3E0E086E260E156E9E0E166E22
:103AAC00780E176E3E0E186EAEC011F0AFC012F04D
:103ABC00B0C013F0B1C014F06DEC23F011C001F0E4
:103ACC0012C002F013C003F014C004F016EC25F081
:103ADC0001C0B2F002C0B3F003C0B4F004C0B5F042
:103AEC00B2C011F0B3C012F0B4C013F0B5C014F0F2
:103AFC00AEC015F0AFC016F0B0C017F0B1C018F0E2
:103B0C006DEC23F011C084F012C085F013C086F068
:103B1C0014C087F0AA0E056EAA0E066E2A0E076E4A
:103B2C003F0E086EEE0E156EE90E166E910E176EA8
:103B3C003E0E186EAEC011F0AFC012F0B0C013F054
:103B4C00B1C014F06DEC23F011C001F012C002F002
:103B5C0013C003F014C004F016EC25F001C0B2F051
:103B6C0002C0B3F003C0B4F004C0B5F0B2C011F0A1
:103B7C00B3C012F0B4C013F0B5C014F0AAC015F065
:103B8C00ABC016F0ACC017F0ADC018F06DEC23F064
:103B9C0011C088F012C089F013C08AF014C08BF0E9
:103BAC0088C001F089C002F08AC003F08BC004F019
:103BBC0084C005F085C006F086C007F087C008F009
:103BCC0016EC25F001C080F002C081F003C082F039
:103BDC0004C083F0000E156E000E166E000E176EEC
:103BEC003F0E186EBAC011F0BBC012F0BCC013F07F
:103BFC00BDC014F06DEC23F011C0B2F012C0B3F0E4
:103C0C0013C0B4F014C0B5F0B2C011F0B3C012F0D0
:103C1C00B4C013F0B5C014F0BAC015F0BBC016F0A8
:103C2C00BCC017F0BDC018F06DEC23F011C09EF0B5
:103C3C0012C09FF013C0A0F014C0A1F09CC001F002
:103C4C009DC002F0000E02BEFF0E036E046E010E4C
:103C5C00ACEC2EF001C0A2F002C0A3F003C0A4F0A3
:103C6C0004C0A5F0A6C015F0A7C016F0A8C017F0A8
:103C7C00A9C018F080C005F081C006F082C007F022
:103C8C0083C008F09EC001F09FC002F0A0C003F0FA
:103C9C00A1C004F016EC25F001C011F002C012F026
:103CAC0003C013F004C014F06DEC23F011C08CF0C1
:103CBC0012C08DF013C08EF014C08FF0D10E156EA3
:103CCC00F70E166E170E176E370E186EA2C011F087
:103CDC00A3C012F0A4C013F0A5C014F06DEC23F037
:103CEC0011C005F012C006F013C007F014C008F0A4
:103CFC008CC001F08DC002F08EC003F08FC004F0B8
:103D0C0016EC25F001C090F002C091F003C092F0C7
:103D1C0004C093F09EC02EF09FC02FF0A0C030F0D6
:103D2C00A1C031F090C02AF091C02BF092C02CF0C1
:103D3C0093C02DF0AEEC36F02AC094F02BC095F069
:103D4C002CC096F02DC097F0BAC005F0BBC006F0A1
:103D5C00BCC007F0BDC008F094C001F095C002F0E3
:103D6C0096C003F097C004F016EC25F001C098F053
:103D7C0002C099F003C09AF004C09BF098C001F007
:103D8C0099C002F09AC003F09BC004F0800E156E2F
:103D9C00710E166E310E176E3F0E186EA2C011F01A
:103DAC00A3C012F0A4C013F0A5C014F06DEC23F066
:103DBC0011C005F012C006F013C007F014C008F0D3
:103DCC0016EC25F001C04BF002C04CF003C04DF0D6
:103DDC0004C04EF01200DCC0D9FFDDC0DAFFDECF2C
:103DEC00F6FFDDCFF7FF0800F550250AD8A442D224
:103DFC00DCC0D9FFDDC0DAFFDE2A000EDD22000EAA
:103E0C000201216F000E206F20C224F221C225F284
:103E1C0022692369DCC0D9FFDDC0DAFFDECFF6FFF3
:103E2C00DDCFF7FF0800F5502E0AD8A46ED0000E97
:103E3C00236F000E226FDCC0D9FFDDC0DAFFDE2A53
:103E4C00000EDD22DCC0D9FFDDC0DAFFDECFF6FFCD
:103E5C00DDCFF7FF0800F5502A0AD8A41CD0DCC02F
:103E6C00D9FFDDC0DAFFDE2A000EDD22DEC0D9FF6D
:103E7C00DFC0DAFFDFCFE0F0020EDE26DFCFE1F0AD
:103E8C00000EDD22E0C0D9FFE1C0DAFFDECF22F266
:103E9C00DDCF23F23AD0DCC0D9FFDDC0DAFFDECFB4
:103EAC0008F0DDCF09F00CEC2EF008C022F209C0AE
:103EBC0023F207D0DCC0D9FFDDC0DAFFDE2A000E0A
:103ECC00DD22D00E0001E06FFF0EE16FDCC0D9FFE8
:103EDC00DDC0DAFFDECFF6FFDDCFF7FF0800F550CF
:103EEC00E26FE36BE051E227E151E323E35106E19A
:103EFC000A0EE25DD8B002D0010E01D0000EEE6FBA
:103F0C00EF6BEE51EF11D8A4D5D7DCC0D9FFDDC0D3
:103F1C00DAFFDECFF6FFDDCFF7FF0800F550076EB6
:103F2C00086A40EC36F007500001F76FF751D8B42F
:103F3C0035D0DCC0D9FFDDC0DAFFDECFE0F0DDCF5D
:103F4C00E1F0010EE027000EE123E0C0F6FFE1C036
:103F5C00F7FF0800F550076E086A40EC36F0075082
:103F6C000001F86FF851D8B419D0DCC0D9FFDDC00E
:103F7C00DAFFDECFE0F0DDCFE1F0020EE027000E3D
:103F8C00E123E0C0F6FFE1C0F7FF0800F550076E33
:103F9C00086A40EC36F007500001F96FDCC0D9FF1D
:103FAC00DDC0DAFFDECFF6FFDDCFF7FF0800F550FE
:103FBC00640AD8B40DD0DCC0D9FFDDC0DAFFDECF87
:103FCC00F6FFDDCFF7FF0800F550690AD8A43FD003
:103FDC00DCC0D9FFDDC0DAFFDE2A000EDD22DEC038
:103FEC00D9FFDFC0DAFFDFCFE0F0020EDE26DFCF35
:103FFC00E1F0000EDD22E0C0D9FFE1C0DAFFDECF38
:10400C00E4F0DDCFE5F0000EE5BFFF0EE66FE76FE5
:10401C00E86FE96FEA6FEB6FDAC01CF0DBC01DF0E4
:10402C00E4C01EF0E5C01FF0E6C020F0E7C021F0B0
:10403C00E8C022F0E9C023F0EAC024F0EBC025F080
:10404C00E0EC27F01CC0DAF01DC0DBF01200660EAD
:10405C00F719D8A43FD0DCC0D9FFDDC0DAFFDECF22
:10406C00F6FFDDCFF7FF0800F5CFF2F0DCC0D9FF8B
:10407C00DDC0DAFFDE2A000EDD22DEC0D9FFDFC094
:10408C00DAFFDFCFE0F0040EDE26DFCFE1F0000E2A
:10409C00DD22E0C0D9FFE1C0DAFFDECFF3F0DECFE6
:1040AC00F4F0DECFF5F0DECFF6F0DAC0CEF0DBC008
:1040BC00CFF0F3C0D0F0F4C0D1F0F5C0D2F0F6C020
:1040CC00D3F0F2C0D4F09CEC16F0CEC0DAF0CFC036
:1040DC00DBF01200F70E016E000E026EC70E036EBF
:1040EC00060E046E000E066E020E056E30EC33F0FA
:1040FC0001500210D8A456D0DCC0D9FFDDC0DAFFC5
:10410C00DECFE0F0DDCFE1F0010E0001E027000E84
:10411C00E123E0C0F6FFE1C0F7FF0800F5CFF2F0B5
:10412C00BF0EE06FFF0EE16FDCC0D9FFDDC0DAFF20
:10413C00DECFF6FFDDCFF7FF0800F550E26FE36B43
:10414C00E051E227E151E323E35106E11A0EE25D6F
:10415C00D8B002D0010E01D0000EF06FF16BF0510F
:10416C00F111DEC0D9FFDFC0DAFFDFCFE0F0040EC3
:10417C00DE26DFCFE1F0000EDD22E0C0D9FFE1C08A
:10418C00DAFFDECFF3F0DECFF4F0DECFF5F0DECFEA
:10419C00F6F0020EDCC0D9FFDDC0DAFFDE26000E21
:1041AC00DD2283D7DCC0D9FFDDC0DAFFDECFF6FF1E
:1041BC00DDCFF7FF0800F550730AD8A42AD0DCC075
:1041CC00D9FFDDC0DAFFDE2A000EDD22DEC0D9FF0A
:1041DC00DFC0DAFFDFCFE0F0020EDE26DFCFE1F04A
:1041EC00000EDD22E0C0D9FFE1C0DAFFDECFECF03B
:1041FC00DDCFEDF0DAC00AF0DBC00BF0ECC00CF058
:10420C00EDC00DF0E5EC2FF00AC0DAF00BC0DBF0DE
:10421C001200DCC0D9FFDDC0DAFFDECFF6FFDDCF48
:10422C00F7FF0800F550250AD8A417D0DCC0D9FF39
:10423C00DDC0DAFFDE2A000EDD22000E026E250E36
:10424C00016EDAC003F0DBC004F081EC33F0000E39
:10425C000001DB6F010EDA6F1200DCC0D9FFDDC08C
:10426C00DAFFDE2A000EDD22000E0001DB6F000EED
:10427C00DA6F1200DCC0D9FFDDC0DAFFDECFF6FF4B
:10428C00DDCFF7FF0800F550016E026ADAC003F0CB
:10429C00DBC004F081EC33F0DCC0D9FFDDC0DAFF09
:1042AC00DE2A000EDD22D3D73EC053F03FC054F0BF
:1042BC0040C055F041C056F053C06BF054C06CF088
:1042CC0055C06DF056C06EF0000E6B14426E000EB1
:1042DC006C14436E800E6D14446E7F0E6E14456E1E
:1042EC00800E441833E17F0E451842104310D8A4B9
:1042FC002DD03EC015F03FC016F040C017F041C0A5
:10430C0018F03EC011F03FC012F040C013F041C095
:10431C0014F06DEC23F011C001F012C002F013C0C8
:10432C0003F014C004F03EC005F03FC006F040C0DE
:10433C0007F041C008F016EC25F001C03EF002C0B9
:10434C003FF003C040F004C041F012006EBE07D035
:10435C006E506D106C1034E16B04D8B031D0FF0E80
:10436C006B14426EFF0E6C14436EFF0E6D14446E94
:10437C007F0E6E14456E4250431044104510D8A465
:10438C0009D03EC03EF03FC03FF040C040F041C0BD
:10439C0041F012006EAE14D0000E02011D6F210E02
:1043AC001C6FA80E016E060E026E29EC38F001C0CF
:1043BC003EF002C03FF003C040F004C041F01200D8
:1043CC00170E426E6BC043F06CC044F06DC045F0EC
:1043DC006EC046F0426601D007D0463446324532B4
:1043EC0044324332422EF6D743C063F044C064F0EB
:1043FC0045C065F046C066F06350641065106610E9
:10440C00D8A42AD0000E4F6E000E506E000E516EC6
:10441C00000E526E0BD0D8906B366C366D366E36F5
:10442C00010E4F26000E5022512252226DAEF3D7B0
:10443C00FF0E4F24426EFF0E5020436EFF0E512094
:10444C00446EFF0E5220456E4250635E4350645AD8
:10445C004450655A4550665A810E6326FF0E6422FD
:10446C00FF0E6522FF0E6622FF0E6B14426EFF0ECE
:10447C006C14436E7F0E6D14446E000E6E14456EFC
:10448C00000E42106B6E000E43106C6E800E4410CA
:10449C006D6E000E45106E6E63A008D06B506B26CF
:1044AC006C506C226D506D226E506E2266346632EA
:1044BC006532643263326B506B266C506C226D50DB
:1044CC006D226E506E22000E4B6E000E4C6E000E66
:1044DC004D6E000E4E6E4BC057F04CC058F04DC098
:1044EC0059F04EC05AF0000E676E000E686E000E4A
:1044FC00696E010E6A6E43D067504B245B6E685038
:10450C004C205C6E69504D205D6E6A504E205E6E84
:10451C005B506B5C5C506C585D506D586E50800AF3
:10452C00426E5E50800A4258D8A01CD067505B2463
:10453C004B6E68505C204C6E69505D204D6E6A501D
:10454C005E204E6E5B506B5E5C506C5A5D506D5ACB
:10455C005E506E5A6750572668505822695059223F
:10456C006A505A226B506B266C506C226D506D2227
:10457C006E506E22D8906A32693268326732675058
:10458C00681069106A10D8A4B7D76B506C106D10F6
:10459C006E10D8B452D0000E5F6E000E606E800E9E
:1045AC00616E3F0E626E5FC032F060C033F061C06E
:1045BC0034F062C035F0000E366E000E376E800E91
:1045CC00386E3F0E396E04EC32F0D8A036D0000EA7
:1045DC005F6E000E606E800E616E3F0E626E000E9E
:1045EC00326E000E336E800E346E3F0E356E5FC031
:1045FC0036F060C037F061C038F062C039F004ECBE
:10460C0032F0D8B006D0020E5726000E582259228E
:10461C0013D0010E5714426E000E5814436E000E48
:10462C005914446E000E5A14456E4250572643508E
:10463C0058224450592245505A2257C042F058C073
:10464C0043F059C044F05AC045F045344532443229
:10465C0043324232000E42246B6E000E43206C6ECD
:10466C00000E44206D6E3F0E45206E6E63C042F00E
:10467C0064C043F065C044F066C045F0170ED89096
:10468C004236433644364536E82EF9D742506B262F
:10469C0043506C2244506D2245506E226BC053F037
:1046AC006CC054F06DC055F06EC056F053C05FF046
:1046BC0054C060F055C061F056C062F05FC03EF06F
:1046CC0060C03FF061C040F062C041F01200145075
:1046DC00800B1D6E145014241F6E13BE1F801F50B0
:1046EC00D8B40DD01F28D8A408D0000E116E000E1F
:1046FC00126E000E136E000E146E138E08D0000E88
:10470C00116E000E126E000E136E000E146E185009
:10471C00800B1D1A185018241E6E17BE1E801E50BA
:10472C00D8B40DD01E28D8A408D0000E156E000EDB
:10473C00166E000E176E000E186E178E08D0000E37
:10474C00156E000E166E000E176E000E186E1E50B3
:10475C00D8B403D01F50D8A409D0000E116E000E8F
:10476C00126E000E136E000E146E12001750110212
:10477C00F3CF28F0F4CF29F02850206E216A226A5A
:10478C00236A2950246E256A266A276A165012025B
:10479C00F3CF28F0F4CF29F028502026000E212248
:1047AC002222232229502426000E252226222722CB
:1047BC0015501302F3CF28F0F4CF29F028502026FF
:1047CC00000E21222222232229502426000E2522EB
:1047DC002622272222C023F021C022F020C021F063
:1047EC00206A15501202F3CF28F0F4CF29F028508C
:1047FC00202629502122000E2222000E23221650A0
:10480C001102F3CF28F0F4CF29F02850202629509C
:10481C002122000E2222000E232222C023F021C0CE
:10482C0022F020C021F0206A15501102F3CF28F09D
:10483C00F4CF29F02850202629502122000E2222C4
:10484C00000E232217501202F3CF28F0F4CF29F0D8
:10485C002850242629502522000E2622000E27221D
:10486C0016501302F3CF28F0F4CF29F02850242649
:10487C0029502522000E2622000E27221750130243
:10488C00F3CF28F0F4CF29F02850196E29501A6E66
:10489C001B6A1C6A1BC01CF01AC01BF019C01AF052
:1048AC00196A195024261A5025221B5026221C50F6
:1048BC00272220C019F021C01AF022C01BF023C0FF
:1048CC001CF0190E05D0D8901C321B321A3219323A
:1048DC00E82EF9D7195024261A5025221B502622CF
:1048EC001C50272222C023F021C022F020C021F02E
:1048FC00206A1E501FC019F01A6A1926000E1A22BF
:10490C00820E1924286EFF0E1A20296E0FD0D89013
:10491C00243625362636273623BE2480D8902036DA
:10492C002136223623362806D8A0290626AEEFD704
:10493C00000E1E6E23AE17D0FF0E2014196EFF0E44
:10494C0021141A6EFF0E22141B6E7F0E23141C6E84
:10495C0019501A101B101C10D8B403D0010E1E6E67
:10496C0002D024B0FBD71E50D8B41FD0010E242681
:10497C00000E25222622272227A017D024C019F0AA
:10498C0025C01AF026C01BF027C01CF01C341C32AA
:10499C001B321A32193219C024F01AC025F01BC070
:1049AC0026F01CC027F0284A292A29BE0DD02950F0
:1049BC0003E12828D8A008D0000E246E000E256E26
:1049CC00800E266E7F0E20D029BE05D029500EE118
:1049DC002804D8B00BD0000E246E000E256E000EED
:1049EC00266E000E276E000E1D6E0FD028C01FF015
:1049FC00FF0E2416FF0E25167F0E2616000E271608
:104A0C001FB0268ED8901F30276E1D50271224C041
:104A1C0011F025C012F026C013F027C014F01200BC
:104A2C000450800B0D6E045004240F6E03BE0F80D7
:104A3C000F50D8B40DD00F28D8A408D0000E016E9A
:104A4C00000E026E000E036E000E046E038E06D076
:104A5C00000E016E000E026E000E036E000E046E50
:104A6C000850800B0E6E0D500E18D8A40D8C0850EB
:104A7C0008240E6E07BE0E800E50D8B40DD00E2832
:104A8C00D8A408D0000E056E000E066E000E076E40
:104A9C00000E086E078E06D0000E056E000E066E18
:104AAC00000E076E000E086E0F500E5CD8B022D0B0
:104ABC000DAC02D0800E0D1A0FC010F00EC00FF00E
:104ACC0010C00EF001C010F005C001F010C005F0D0
:104ADC0002C010F006C002F010C006F003C010F0C7
:104AEC0007C003F010C007F004C010F008C004F0B9
:104AFC0010C008F0000E106E0F500EC009F00A6ABC
:104B0C00095E000E0A5A0ABE2CD00A5004E11A0E95
:104B1C00095CD8A026D00150021003100410D8B4A0
:104B2C0002D0010E01D0000E106E000E016E000EB0
:104B3C00026E000E036E000E046E0EC00FF015D048
:104B4C0010A005D0D89010300109106E02D0D8906A
:104B5C00103201B0108E04340432033202320132AE
:104B6C000F2A0E500F5CD8A0EBD70DBC28D00F50DD
:104B7C00D8A409D0000E016E000E026E000E036E5A
:104B8C00000E046E1200055001260650022207503A
:104B9C0003220850042204A071D010A005D0D89094
:104BAC0010300109106E02D0D890103201B0108E66
:104BBC00043404320332023201320F2A5FD0055022
:104BCC00015C06500258075003580450800A096EC5
:104BDC000850800A0958D8B025D00150055C096EE0
:104BEC00025006580A6E035007580B6E04500858B2
:104BFC000C6EFF0E0924016EFF0E0A20026EFF0ED2
:104C0C000B20036EFF0E0C20046E800E0D1A106C20
:104C1C001050D8A40FD0010E0126000E0222032240
:104C2C00042208D00550015E0650025A0750035A60
:104C3C000850045A0150021003100410D8A41CD0C0
:104C4C001050D8A419D0000E016E000E026E000E8A
:104C5C00036E000E046E1200D89001360236033635
:104C6C00043610BE018010A002D0D88001D0D8909C
:104C7C0010360F50D8A40F0603AEEED7000E0E6EF2
:104C8C0010AE0BD010C009F07F0E0916D8B403D0AB
:104C9C00010E0E6E02D001B0FBD70E50D8B420D04E
:104CAC00010E0126000E02220322042204A018D0B9
:104CBC0001C009F002C00AF003C00BF004C00CF0F4
:104CCC000C340C320B320A32093209C001F00AC022
:104CDC0002F00BC003F00CC004F00F28D8A40F2A6C
:104CEC000F28D8B403D00F50D8A40DD0000E016EED
:104CFC00000E026E000E036E000E046E0F50D8A450
:104D0C0002D0000E0D6E0FA002D0038E01D0039EB8
:104D1C00D8900F30046E0DBE048E01C001F002C09D
:104D2C0002F003C003F004C004F012003550800BF5
:104D3C00426E35503524496E34BE49804950D8B442
:104D4C000DD04928D8A408D0000E326E000E336E58
:104D5C00000E346E000E356E348E06D0000E326EA0
:104D6C00000E336E000E346E000E356E3950800B13
:104D7C00421A395039244A6E38BE4A804A50D8B447
:104D8C000DD04A28D8A408D0000E366E000E376E0F
:104D9C00000E386E000E396E388E06D0000E366E50
:104DAC00000E376E000E386E000E396E365037100E
:104DBC0038103910D8A417D0000E326E000E336E96
:104DCC00000E346E000E356E800E34127F0E3512CE
:104DDC004250351232C032F033C033F034C034F0AC
:104DEC0035C035F012004950D8A409D0000E326EEF
:104DFC00000E336E000E346E000E356E12004A50EB
:104E0C0049C03AF03B6A3A5E000E3B5A7F0E3A2498
:104E1C00436E000E3B20446E32C03EF033C03FF078
:104E2C0034C040F035C041F0000E326E000E336ECF
:104E3C00000E346E000E356E000E456E000E466E82
:104E4C00000E476E000E486E000E4A6E28D04A5077
:104E5C00D8B411D0D8903E363F3640364136D89033
:104E6C00323633363436353648BE3280D8904536F5
:104E7C0046364736483636503E5C37503F583850E9
:104E8C00405839504158D8A009D0488C36503E5E15
:104E9C0037503F5A3850405A3950415A4A2A190E05
:104EAC004A64D5D73E503F1040104110D8B411D0B1
:104EBC0045800FD0D890323633363436353648BE2E
:104ECC003280D89045364636473648364306D8A009
:104EDC00440634AEEFD7000E4A6E48AE17D0FF0E24
:104EEC0045143A6EFF0E46143B6EFF0E47143C6E93
:104EFC007F0E48143D6E3A503B103C103D10D8B418
:104F0C0003D0010E4A6E02D032B0FBD74A50D8B44F
:104F1C001FD0010E3226000E33223422352235A04A
:104F2C0017D032C03AF033C03BF034C03CF035C03F
:104F3C003DF03D343D323C323B323A323AC032F0F5
:104F4C003BC033F03CC034F03DC035F0434A442AFA
:104F5C0044BE10D0445003E14328D8A00BD0000E1F
:104F6C00446E4368000E326E000E336E000E346ECB
:104F7C00000E356E44BE05D0445011E14304D8B048
:104F8C000ED0000E446E000E436E000E326E000EFC
:104F9C00336E000E346E000E356E000E426E43C042
:104FAC0049F049A002D0348E01D0349ED8904930BB
:104FBC00356E0ED71EC036F01FC037F020C038F04B
:104FCC0021C039F022C03AF023C03BF024C03CF0A1
:104FDC0025C03DF03DAE02D0010E01D0000E346E66
:104FEC00356A34503510D8B410D03D1E3C1E3B1ED3
:104FFC003A1E391E381E371E366C000E37223822E8
:10500C0039223A223B223C223D22020123AF249337
:10501C0023BF05D0235108E12205D8B005D0000EDE
:10502C00316E010E306E04D022C230F023C231F04A
:10503C0020C232F021C233F034503510D8A402D043
:10504C0024A503D03206D8A03306000E3F6E4F0EB7
:10505C003E6E000E7B6F7CD03E06D8A03F062C0E19
:10506C003E24D96E020E3F20DA6E36C001F037C0F6
:10507C0002F038C003F039C004F03AC005F03BC070
:10508C0006F03CC007F03DC008F00A0E096E000E99
:10509C000A6E000E0B6E000E0C6E000E0D6E000EE6
:1050AC000E6E000E0F6E000E106E7BEC30F001C019
:1050BC0026F002C027F003C028F004C029F005C078
:1050CC002AF006C02BF007C02CF008C02DF026C02B
:1050DC0013F028C014F043EC37F01350300FDF6E90
:1050EC003006D8A031063206D8A0330636C001F0FF
:1050FC0037C002F038C003F039C004F03AC005F0F4
:10510C003BC006F03CC007F03DC008F00A0E096E2B
:10511C00000E0A6E000E0B6E000E0C6E000E0D6E65
:10512C00000E0E6E000E0F6E000E106E68EC2DF061
:10513C0001C036F002C037F003C038F004C039F0BB
:10514C0005C03AF006C03BF007C03CF008C03DF08B
:10515C003FBE20D03F5003E13E04D8A01BD03650B8
:10516C003710381039103A103B103C103D10D8A4B1
:10517C0073D731BE05D0315002E13004D8B06CD7B2
:10518C0033BE08D0335003E13204D8A003D002015F
:10519C0024B362D734503510D8A403D0020124A50F
:1051AC0017D03E06D8A03F0634503510D8A404D0F2
:1051BC00000E2F6E2B0E03D0000E2F6E2D0E2E6EAA
:1051CC002C0E3E24D96E020E3F20DA6E2EC0DFFF6D
:1051DC001CC011F01DC012F02C0E3E24136E020EDA
:1051EC003F20146E32C015F033C016F0D1EC33F002
:1051FC0011C01CF012C01DF01200C250C30B0409E8
:10520C00C26EC280C282C2B2FED7C3CFEEF0C4CF90
:10521C00EFF0000E156E000E166EA00E176E400EFF
:10522C00186EFF0E0001EC6F030EED6FEE51EC5F8C
:10523C00EF51ED5BECC001F0EDC002F0000E02BED0
:10524C00FF0E036E046E010EACEC2EF001C011F0DB
:10525C0002C012F003C013F004C014F06DEC23F084
:10526C0011C032F012C033F013C034F014C035F05A
:10527C00000E366EC00E376E7F0E386E440E396ED1
:10528C009CEC26F032C0F0F033C0F1F034C0F2F0F8
:10529C0035C0F3F0F0C032F0F1C033F0F2C034F0AE
:1052AC00F3C035F099C236F09AC237F09BC238F091
:1052BC009CC239F09CEC26F032C0F4F033C0F5F00F
:1052CC0034C0F6F035C0F7F0F4C0E0F0F5C0E1F012
:1052DC00F6C0E2F0F7C0E3F026C2E4F027C2E5F036
:1052EC00BAEC2CF0E0C018F2E1C019F2E2C01AF2EC
:1052FC00E3C01BF2F0C032F0F1C033F0F2C034F076
:10530C00F3C035F099C236F09AC237F09BC238F030
:10531C009CC239F09CEC26F032C0F4F033C0F5F0AE
:10532C0034C0F6F035C0F7F0F4C0E0F0F5C0E1F0B1
:10533C00F6C0E2F0F7C0E3F0A1C2E4F0A2C2E5F0DF
:10534C00BAEC2CF0E0C014F2E1C015F2E2C016F297
:10535C00E3C017F2F0C032F0F1C033F0F2C034F019
:10536C00F3C035F099C236F09AC237F09BC238F0D0
:10537C009CC239F09CEC26F032C0F4F033C0F5F04E
:10538C0034C0F6F035C0F7F0F4C0E0F0F5C0E1F051
:10539C00F6C0E2F0F7C0E3F09FC2E4F0A0C2E5F083
:1053AC00BAEC2CF0E0C010F2E1C011F2E2C012F243
:1053BC00E3C013F2EAC0D9FFEBC0DAFF18C2DEFF7C
:1053CC0019C2DEFF1AC2DEFF1BC2DEFF000120EE97
:1053DC0004F0EA51D926EB51DA2214C2DEFF15C2D1
:1053EC00DEFF16C2DEFF17C2DEFF20EE08F0EA5128
:1053FC00D926EB51DA2210C2DEFF11C2DEFF12C237
:10540C00DEFF13C2DEFF12002AC038F02BC039F0C9
:10541C002CC03AF02DC03BF02FBE56D02F5004E1DB
:10542C00800E2E5CD8A050D038C011F039C012F0CC
:10543C003AC013F03BC014F0000E156E000E166E41
:10544C00000E176E7F0E186E6DEC23F011C038F045
:10545C0012C039F013C03AF014C03BF0810E2E2666
:10546C00FF0E2F222FBE88D02F5004E1800E2E5C11
:10547C00D8A082D038C011F039C012F03AC013F065
:10548C003BC014F0000E156E000E166E000E176E5B
:10549C007F0E186E6DEC23F011C038F012C039F08D
:1054AC0013C03AF014C03BF0810E2E26FF0E2F22B3
:1054BC002FBE62D02F5004E1800E2E5CD8A05CD0A1
:1054CC00000E2F6E7F0E57D02FAE56D0820E2E5C54
:1054DC00FF0E2F58D8B050D038C011F039C012F090
:1054EC003AC013F03BC014F0000E156E000E166E91
:1054FC00800E176E0C0E186E6DEC23F011C038F088
:10550C0012C039F013C03AF014C03BF0660E2E26D0
:10551C00000E2F222FAE30D0820E2E5CFF0E2F5895
:10552C00D8B02AD038C011F039C012F03AC013F0FC
:10553C003BC014F0000E156E000E166E800E176E2A
:10554C000C0E186E6DEC23F011C038F012C039F04F
:10555C0013C03AF014C03BF0660E2E26000E2F221C
:10556C002FAE0AD0820E2E5CFF0E2F58D8B004D06E
:10557C00FF0E2F6E820E2E6E7F0E2E24306E000EBE
:10558C002F20316E326A336A170ED890303631368E
:10559C0032363336E82EF9D730C034F031C035F01E
:1055AC0032C036F033C037F034C011F035C012F0D1
:1055BC0036C013F037C014F038C015F039C016F0EF
:1055CC003AC017F03BC018F06DEC23F011C02AF074
:1055DC0012C02BF013C02CF014C02DF02AC02AF0EE
:1055EC002BC02BF02CC02CF02DC02DF0120006007F
:1055FC00E1CFE2F2E2CFE3F2D9CFE4F2DACFE5F297
:10560C00F3CFE6F2F4CFE7F2F6CFE8F2F7CFE9F218
:10561C00F8CFEAF2F5CFEBF29EB09DA0B4D0020128
:10562C009D51285D2951800AE16F9E51800AE159F4
:10563C00D8B003D0284B292BA1D0000E296F000E17
:10564C00286F000E016E030E026E000E046E000E2B
:10565C00036E000E066E640E056E4CEC2FF0210EE0
:10566C00E82EFED700F0000E0201CB6F030ECC6FBC
:10567C00A00ECD6F060ECE6F000ECF6F030ED06F47
:10568C00000E4C6E000E4B6E98EC31F04BC0D1F20C
:10569C004CC0D2F24DC0D3F24EC0D4F2EDEC35F08A
:1056AC0071EC38F0000E046E030E056E800E8BEC60
:1056BC0035F0210EE82EFED700F07C0E0001EA6FCB
:1056CC00020EEB6F03EC29F0000E016E030E026E5E
:1056DC00000E046E000E036E000E066E640E056E58
:1056EC004CEC2FF07CC2CAF07DC2CBF07EC2CCF069
:1056FC007FC2CDF0D2EC32F0CAC0FAF1CBC0FBF1D4
:10570C0080C2CAF081C2CBF082C2CCF083C2CDF091
:10571C00D2EC32F0CAC0FCF1CBC0FDF184C2CAF0AD
:10572C0085C2CBF086C2CCF087C2CDF0D2EC32F081
:10573C00CAC0FEF1CBC0FFF1000E0201CB6F030E0D
:10574C00CC6F950ECD6F060ECE6F000ECF6F030E85
:10575C00D06FFAC1D1F2FBC1D2F2FCC1D3F2FDC1C0
:10576C00D4F2FEC1D5F2FFC1D6F2EDEC35F0000E4D
:10577C00046E030E056EC00E8BEC35F09E90A5C228
:10578C00CEFFA6C2CFFFEBC2F5FFEAC2F8FFE9C21B
:10579C00F7FFE8C2F6FFE7C2F4FFE6C2F3FFE5C28B
:1057AC00DAFFE4C2D9FFE3C2E2FFE2C2E1FF7E927C
:1057BC00110008C25BF009C25CF00AC25DF00BC2BA
:1057CC005EF04BC05BF04CC05CF04DC05DF04EC069
:1057DC005EF0810E4F6EFF0E506E5BC051F05CC0E0
:1057EC0052F05DC053F05EC054F0180E05D0D89046
:1057FC005432533252325132E82EF9D751504F2491
:10580C00596E000E50205A6E5ABE0FD05A5004E1F9
:10581C00170E595CD8A009D04BC04BF04CC04CF0C3
:10582C004DC04DF04EC04EF012005ABE5ED059C065
:10583C004FF0FF0E506EFF0E516E7F0E526E000E2B
:10584C00536E4F6601D007D053345332523251321B
:10585C0050324F2EF6D750C055F051C056F052C0B2
:10586C0057F053C058F055505B144F6E56505C14A3
:10587C00506E57505D14516E58505E14526E4F500E
:10588C00501051105210D8B4C7D75BC04FF05CC049
:10589C0050F05DC051F05EC052F0200E05D0D89093
:1058AC005232513250324F32E82EF9D74F505010FD
:1058BC0051105210D8B408D055505B2656505C226B
:1058CC0057505D2258505E22551C4F6E561C506E20
:1058DC00571C516E581C526E4F505B1650505C1634
:1058EC0051505D1652505E1636D05BC04FF05CC006
:1058FC0050F05DC051F05EC052F0200E05D0D89033
:10590C005232513250324F32E82EF9D74F5050109C
:10591C0051105210D8A408D0000E5B6E000E5C6EB5
:10592C00000E5D6E000E16D0D8905B344F6E5C345A
:10593C00506E5D34516E5E34526E4F50501051109B
:10594C005210D8B408D0000E5B6E000E5C6E800E48
:10595C005D6EBF0E5E6E5BC04BF05CC04CF05DC00C
:10596C004DF05EC04EF01200020126510001E41908
:10597C0032E1020127510001E519D8A42CD0BF0E49
:10598C00D26F020ED36FE0C0CEF0E1C0CFF0E2C018
:10599C00D0F0E3C0D1F00DEC31F00001CEC0E6F058
:1059AC00CFC0E7F0000EE7BFFF0EE86FE96FE6C06F
:1059BC0001F0E7C002F0E8C003F0E9C004F0010E0A
:1059CC00ACEC2EF001C0E0F002C0E1F003C0E2F05C
:1059DC0004C0E3F012000201A1510001E41932E10C
:1059EC000201A2510001E519D8A42CD0B30ED26F3C
:1059FC00020ED36FE0C0CEF0E1C0CFF0E2C0D0F029
:105A0C00E3C0D1F00DEC31F00001CEC0E6F0CFC018
:105A1C00E7F0000EE7BFFF0EE86FE96FE6C001F09C
:105A2C00E7C002F0E8C003F0E9C004F0010EACECF2
:105A3C002EF001C0E0F002C0E1F003C0E2F004C0BF
:105A4C00E3F0120002019F510001E41932E102015E
:105A5C00A0510001E519D8A42CD0A70ED26F020ECC
:105A6C00D36FE0C0CEF0E1C0CFF0E2C0D0F0E3C025
:105A7C00D1F00DEC31F00001CEC0E6F0CFC0E7F074
:105A8C00000EE7BFFF0EE86FE96FE6C001F0E7C05C
:105A9C0002F0E8C003F0E9C004F0010EACEC2EF00B
:105AAC0001C0E0F002C0E1F003C0E2F004C0E3F09A
:105ABC001200000EE06F000EE16F000EE26F000EA0
:105ACC00E36F1200000E126E10AE12D0101E0F1EDD
:105ADC000E1E0D1E0C1E0B1E0A1E096C000E0A2239
:105AEC000B220C220D220E220F221022010E126EFE
:105AFC0008AE12D0081E071E061E051E041E031E2D
:105B0C00021E016C000E0222032204220522062230
:105B1C0007220822010E121A20EE13F0070EDE6A7D
:105B2C00E806FDE209500A100B100C100D100E10B7
:105B3C000F101010D8B446D0010E116E0AD0D890A8
:105B4C0009360A360B360C360D360E360F36103635
:105B5C00112A10AEF4D7D8901336143615361636E3
:105B6C001736183619361A360950015C0A50025885
:105B7C000B5003580C5004580D5005580E50065835
:105B8C000F50075810500858D8A011D00950015E7A
:105B9C000A50025A0B50035A0C50045A0D50055A15
:105BAC000E50065A0F50075A1050085A1380D890AE
:105BBC0010320F320E320D320C320B320A320932E5
:105BCC00112EC9D71250D8B410D01A1E191E181E77
:105BDC00171E161E151E141E136C000E14221522F1
:105BEC0016221722182219221A2213C001F014C0EF
:105BFC0002F015C003F016C004F017C005F018C071
:105C0C0006F019C007F01AC008F01200000E166E4C
:105C1C00000E156E000E0F6E000E0E6E02D0084AAE
:105C2C00092A010E146E08C0F6FF09C0F7FF080020
:105C3C00F550200AD8B418D0F70E0A6EFF0E0B6E72
:105C4C0008C0F6FF09C0F7FF0800F5500C6E0D6A8E
:105C5C000A500C260B500D220D5004E1050E0C5C65
:105C6C00D8A002D0000E146E14C010F0116A10509F
:105C7C001110D8B408D0D3D7000E0F6E010E0E6ED3
:105C8C00084A092A2ED008C0F6FF09C0F7FF080001
:105C9C00F5500A6E0B6A0B50000AD8A422D00A5099
:105CAC002B0AD8B4EDD7060AD8B4E6D71AD015C04B
:105CBC0001F016C002F0000E046E0A0E036E16EC14
:105CCC0038F008C0F6FF09C0F7FF0800F550015E78
:105CDC00000E025A300E0124156E000E0220166EB4
:105CEC00CFD7D00E0A6EFF0E0B6E08C0F6FF09C0A0
:105CFC00F7FF0800F5500C6E0D6A0A500C260B507D
:105D0C000D220D5006E10A0E0C5CD8B002D0010E2B
:105D1C0001D0000E126E136A12501310D8A4C7D7FC
:105D2C000E500F10D8A40DD015C00AF016C00BF0F1
:105D3C000A1E0B1E0A4A0B2A0AC008F00BC009F0F7
:105D4C00120015C008F016C009F01200096E0950B7
:105D5C00D8A404AE1AD001C005F002C006F003C0EE
:105D6C0007F004C008F0051E061E071E081E052AB3
:105D7C00000E06220722082205C00BF006C00CF00C
:105D8C0007C00DF008C00EF008D001C00BF002C027
:105D9C000CF003C00DF004C00EF001500210031003
:105DAC000410D8A409D0000E016E000E026E000E75
:105DBC00036E000E046E1200960E0A6E06D00A2AAE
:105DCC00D8900E320D320C320B32000E0B14056EC5
:105DDC00000E0C14066E000E0D14076EFE0E0E1443
:105DEC00086E0550061007100810D8B40DD0E7D770
:105DFC000A2A010E0B26000E0C220D220E22D89020
:105E0C000E320D320C320B32000E0B14056E000EDE
:105E1C000C14066E000E0D14076EFF0E0E14086E99
:105E2C000550061007100810D8B407D0E1D70A06A1
:105E3C00D8900B360C360D360E360DBE03D0020E36
:105E4C000A60F5D70AA00D9ED8900A320AC005F058
:105E5C00066A076A086A05C008F0076A066A056AD6
:105E6C0005500B1206500C1207500D1208500E1252
:105E7C000950D8A404AE01D00E8E0BC001F00CC09A
:105E8C0002F00DC003F00EC004F0120001C00BF0C4
:105E9C0002C00CF005500610D8B412000BC0D9FF8C
:105EAC000CC0DAFF03C0DFFF05500B24076E065051
:105EBC000C20086EFF0E0724D96EFF0E0820DA6E38
:105ECC0003C0DFFF065004E1030E055CD8A01200EE
:105EDC0020EE01F00B50D9260C50DA2203C0DFFF64
:105EEC0020EE02F00B50D9260C50DA2203C0DFFF53
:105EFC0005500B24076E06500C20086EFE0E07246E
:105F0C00D96EFF0E0820DA6E03C0DFFF05500B249C
:105F1C00076E06500C20086EFD0E0724D96EFF0E7E
:105F2C000820DA6E03C0DFFF065004E1070E055CA3
:105F3C00D8A0120020EE03F00B50D9260C50DA2218
:105F4C0003C0DFFF05500B24076E06500C20086EB3
:105F5C00FC0E0724D96EFF0E0820DA6E03C0DFFF9B
:105F6C00065004E1090E055CD8A012000BC007F026
:105F7C000CC008F0071E081E074A082A030E071457
:105F8C00096E0A6A09500B260A500C220950055E4C
:105F9C000A50065AFC0E0516FF0E06160BD00BC047
:105FAC00D9FF0CC0DAFF03C0DFFF0506D8A0060638
:105FBC000B4A0C2A05500610D8B41200F0D722EE6A
:105FCC0092F010EE0FF0060EDBCFE3FFE806FCE2DA
:105FDC000CC01AF00DC01BF01A501B10D8A404D022
:105FEC000F0E1A6E000E1B6E1AC001F01BC002F0D1
:105FFC0001EC38F001C01EF002C01FF022C21CF0F0
:10600C0023C21DF01DBE0ED01E501C5C1D50800AFC
:10601C000E6E1F50800A0E58D8B004D01CC01EF053
:10602C001DC01FF01EC01CF01FC01DF020C218F0B8
:10603C0021C219F0020124A10DD016D0000E026E5F
:10604C00200E016E0AC003F00BC004F081EC33F09B
:10605C001E4A1F2A18501E5C1F50800A0E6E1950C3
:10606C00800A0E58D8A0EAD7000E176E000E166ED6
